S01600002E2F44656275672F5254532D4C61622E73313936
S3152000000000BFDFF814D001F07EFA05F07DFA01F08A
S315200000108CBAFEE700BF000000C0012080B483B088
S3152000002000AF0346FB71FB7903F01F03012202FA9E
S3152000003003F1064A97F907305B0942F8231000BFFF
S315200000400C37BD465DF8047B704700BF00E100E039
S3152000005080B483B000AF03463960FB7197F907304F
S31520000060002B0BDA3B68DAB20C49FB7903F00F035D
S31520000070043B1201D2B20B441A7609E03B68DAB28D
S31520000080074997F907301201D2B20B4483F80023AF
S3152000009000BF0C37BD465DF8047B704700ED00E0DD
S315200000A000E100E080B582B000AF786039600022C0
S315200000B00121074806F023FC02211720FFF7C8FF7D
S315200000C01720FFF7ABFF00BF0837BD4680BD00BF36
S315200000D00004024080B582B000AF786039607B684A
S315200000E09B688021184606F09EFB03461846083773
S315200000F0BD4680BD80B582B000AF786039607B6830
S315200001009B683A68D2B20121184606F0F8FB00BF78
S315200001100837BD4680BD80B582B000AF78603960B3
S315200001207B689B680121184606F010FC00BF083743
S31520000130BD4680BD80B584B000AF7860396007F1D8
S315200001400803184605F096FA8023BB6000233B730C
S315200001503B68002B01D0082300E00C237B7301238E
S31520000160BB7307F10803184605F012FA00BF1037D3
S31520000170BD4680BD80B584B002AF786039608020EE
S3152000018005F0CAFA0346012B14D1802005F0DEFAC9
S315200001907B68DB68002B10D07B68DA687B681B697C
S315200001A0002100910021002000F00AFD054B0122CC
S315200001B01A6002E0044800F0C7F800231846083702
S315200001C0BD4680BDCC9E002058920020314900E0DB
S315200001D03149EFF3088020ED108A7246EFF3118340
S315200001E020E9FC0F2D4FD7F80080C8F800001EE04C
S315200001F0084600F0A9F82A4800F0A6F8294800F099
S31520000200A3F8D8F8040000F0EBF8274800F09CF893
S31520000210D8F8000000F0B5F8244800F095F8D8F892
S315200002200000006800F0ADF81D4800F08DF8DFF8FA
S315200002308080D8F80080C7F8008018E01D4800F0BC
S3152000024083F8D8F8040000F0CBF81B4800F07CF8BF
S31520000250D8F8000000F095F8144800F075F8D8F8A2
S315200002600000006800F08DF80D4800F06DF8134A84
S31520000270536843F00063536000BFD8F80000B0E82D
S31520000280FC0F83F311889646B0EC108A80F3088819
S315200002907047000098970020A99700203C980020DE
S315200002A019980020CA970020E2970020EA9700209C
S315200002B0EC9E0020F39700200898002000ED00E037
S315200002C080B483B000AF0346FB71FB7903F01F03B4
S315200002D0012202FA03F1064A97F907305B0942F830
S315200002E0231000BF0C37BD465DF8047B704700BF66
S315200002F000E100E080B483B000AF03463960FB71B3
S3152000030097F90730002B0BDA3B68DAB20C49FB79F8
S3152000031003F00F03043B1201D2B20B441A7609E014
S315200003203B68DAB2074997F907301201D2B20B447B
S3152000033083F8002300BF0C37BD465DF8047B704769
S3152000034000ED00E000E100E080B582B000AF78600B
S315200003500EE07B681B780D2B07D07B685A1C7A60D1
S315200003601B78184600F060F902E07B6801337B6059
S315200003707B681B78002BECD100BF00BF0837BD4639
S3152000038080BD80B586B000AF786000237B617B6836
S3152000039003F00F027B69591C796110498A5C07F1C9
S315200003A018010B4403F80C2C7B681B097B607B68C7
S315200003B0002BECD10AE07B69013B7B6107F10C0243
S315200003C07B6913441B78184600F02EF97B69002BB5
S315200003D0F1D100BF00BF1837BD4680BD1C98002054
S315200003E080B59EB000AF78607B68002B02DA4FF0B4
S315200003F0FF3300E001233B677B683A6F02FB03F380
S315200004007B6000237B6779681C4B83FB01239A1052
S31520000410CB17D21A13469B0013445B00CA1A7B6F74
S31520000420591C796716498A5C07F178010B4403F851
S315200004306C2C7B68114A82FB03129210DB17D31AAD
S315200004407B607B68002BDED13B6F002B0EDA2D20E4
S3152000045000F0EAF80AE07B6F013B7B6707F10C02AC
S315200004607B6F13441B78184600F0DEF87B6F002B59
S31520000470F1D100BF00BF7837BD4680BD676666668E
S315200004801C98002080B483B000AF10237B607B686B
S3152000049083F3118800BF00BF0C37BD465DF8047B8F
S315200004A0704780B483B000AF30237B607B6883F3D2
S315200004B0118800BF00BF0C37BD465DF8047B70472E
S315200004C080B584B000AF78600B48FFF73DFF0B4B3B
S315200004D01B68002B02D1094B094A1A60074B1B687F
S315200004E0FB60064B1A687B681344044A1360FB685A
S315200004F018461037BD4680BD7C92002030A20020D1
S315200005004822012080B485B000AF786039603B680E
S3152000051003F5F95310337A6813607B681B68BB6058
S315200005200023FB600AE0FB689B001A46BB68134465
S315200005301A4600231360FB680133FB60FB68332BEC
S31520000540F1DDBB686FF016021A60BB6804331A46E9
S3152000055003231360BB6884331A464FF080731360FD
S3152000056000BF1437BD465DF8047B704780B485B064
S3152000057000AF786039607B681B688033FB60FB685E
S315200005803A681A6000BF1437BD465DF8047B704791
S3152000059080B584B000AF1D4801F074FF3B1D18469E
S315200005A002F0BCF840F24733BB803B1D1946174882
S315200005B002F048F8164B174A1A6002216FF0010024
S315200005C0FFF798FE144B154A1A6000216FF00400BD
S315200005D0FFF790FE124B134A1A6002213220FFF7D2
S315200005E089FE3220FFF76CFE0021084802F0E0F871
S315200005F00121064802F0A9F901220221034803F04D
S3152000060078F900BF1037BD4680BD00BF000C004002
S3152000061038C00120D10100202CC00120CD010020AE
S3152000062008C10120AF09002080B582B000AF034683
S31520000630FB71FB799BB21946074805F0E2FC00BF27
S315200006408021054805F0CCFE0346002BF8D000BFDC
S3152000065000BF0837BD4680BD0010014080B500AF01
S31520000660124802F0C1F803461A46114B1A60114B84
S3152000067001221A60104B00221A60104B1B68002BB7
S3152000068006D00E4B1B680E4A12680021104698476A
S31520000690084B00221A60084B1B68002B01D000F083
S315200006A05DFA054B00221A6000BF80BD000C004099
S315200006B0D09E0020C89E0020CC9E0020409F002077
S315200006C0E09E002080B500AF124802F08DF8034668
S315200006D01A46114B1A60114B01221A60104B002248
S315200006E01A60104B5B68002B06D00E4B5B680E4AD7
S315200006F05268012110469847084B00221A60084B81
S315200007001B68002B01D000F029FA054B00221A6045
S3152000071000BF80BD000C0040D09E0020C89E002057
S31520000720CC9E0020409F0020E09E002080B500AF98
S31520000730124802F059F803461A46114B1A60114B1B
S3152000074001221A60104B00221A60104B9B68002B66
S3152000075006D00E4B9B680E4A926802211046984797
S31520000760084B00221A60084B1B68002B01D000F0B2
S31520000770F5F9054B00221A6000BF80BD000C004031
S31520000780D09E0020C89E0020CC9E0020409F0020A6
S31520000790E09E002080B485B000AF786039600023E9
S315200007A0FB603B681B68BB6004E0BB68FB60BB6802
S315200007B01B68BB60BB68002B05D0BB689A687B684A
S315200007C09B689A42F1DD7B68BA681A60FB68002B49
S315200007D003D13B687A681A6002E0FB687A681A607F
S315200007E000BF1437BD465DF8047B704780B485B0E2
S315200007F000AF786039600023FB603B681B68BB60F4
S3152000080004E0BB68FB60BB681B68BB60BB68002B51
S3152000081005D0BB685A687B685B689A42F1DD7B68C5
S31520000820BA681A60FB68002B03D13B687A681A60A5
S3152000083002E0FB687A681A6000BF1437BD465DF88F
S31520000840047B704780B584B000AF78607B681B68F6
S31520000850FB60FB68002B04D0FB681A687B681A6073
S315200008600CE00948FFF770FD00220221074806F038
S3152000087046F80748FFF768FD30BFFDE7FB681846D6
S315200008801037BD4680BD00BF949200200004024070
S31520000890A092002080B584B000AF78607B681B688A
S315200008A0FB60FB68002B04D0FB681A687B681A6023
S315200008B00CE00948FFF748FD00220221074806F010
S315200008C01EF80748FFF740FD30BFFDE7FB681846D6
S315200008D01037BD4680BD00BF949200200004024020
S315200008E0AC92002080B483B000AF786039603B685A
S315200008F01A687B681A603B687A681A6000BF0C37F2
S31520000900BD465DF8047B704780B483B000AF786045
S3152000091039603B681A687B689A603B687A681A6017
S3152000092000BF0C37BD465DF8047B704780B485B0A8
S3152000093000AF78607B681B68FB60FB689A687B6801
S315200009401A60FB6818461437BD465DF8047B70476D
S3152000095080B485B000AF786039600023FB603B68C7
S315200009601B68BB6004E0BB68FB60BB681B68BB60A0
S31520000970BB68002B03D0BA687B689A42F3D1BB6868
S31520000980002B0DD0FB68002B04D0BB681A68FB68CF
S315200009901A6003E0BB681A683B681A60012300E00E
S315200009A0002318461437BD465DF8047B704780B592
S315200009B082B000AF02211E4803F025F81C4801F042
S315200009C013FF03467B6007E01A48FFF73BFF034609
S315200009D019491846FFF7DEFE164B1B68002B06D07A
S315200009E0144B1B685A687B68D31A002BECDD114B1D
S315200009F01B68002B16D00E4801F0F6FE03463B601E
S31520000A000C4B1B685B683A689A4204DD002202217F
S31520000A100A4805F074FF074B1B685B6819460448B3
S31520000A2002F021FA00F09AF800BF0837BD4680BDD3
S31520000A30000C0040C49E0020C09E002000040240FE
S31520000A400346024A136010DFF74600BFEC9E0020E3
S31520000A500346054A1360054B5B68044A43F08053FE
S31520000A605360F74600BF00BFEC9E002000ED00E07B
S31520000A7080B582B000AF7860094B5B68C3F308038A
S31520000A80002B03D17868FFF7DBFF02E07868FFF7D9
S31520000A90DFFFFFF706FD00BF0837BD4680BD00BF5C
S31520000AA000ED00E090B585B000AF234B1C682348CD
S31520000AB0FFF7C8FE0346E360E368BB60FFF7F1FC7F
S31520000AC0BB68D868BB681969BB685B691A4600F0C1
S31520000AD015F9FFF7D7FC1A49B868FFF703FF194B3A
S31520000AE01B689B68DB687B60144B1B68002B0AD055
S31520000AF07B68002BD9D0114B1B689A687B689B6852
S31520000B00D31A002BD1DD0F48FFF710FF03460E49FD
S31520000B101846FFF7F9FE0B4B1B68FB6003E0FB68EA
S31520000B201B691B68FB60FB681B69002BF7D1F86803
S31520000B30FFF79EFFB9E700BF3C980020C09E00202B
S31520000B4030980020389800203498002080B500AFD7
S31520000B5000F004F8FFF7A5FC30BFFBE780B582B0B4
S31520000B6000AF144B1B68DB687B60134B1B68002BA4
S31520000B701BD0124B1B68002B17D07B68002B07D08D
S31520000B800D4B1B689A687B689B68D31A002B0CDA7E
S31520000B900A48FFF7CBFE034606491846FFF7B4FE80
S31520000BA0044B1B681846FFF763FF00BF0837BD4696
S31520000BB080BD00BF38980020C09E002034980020B9
S31520000BC080B588B000AFF860B9607A603B60EFF31B
S31520000BD012833B613B691B09012B14BF01230023B0
S31520000BE0DBB2FB77FFF74EFC3A48FFF753FEB861BE
S31520000BF0BB697A68DA60BB693A681A61BB69BA6A06
S31520000C005A61354B1B68002B04D1344B1B68DB68BB
S31520000C105B6801E0324B1B68FA681A44BB695A606C
S31520000C20BB695A68BB68002B01DDBB6801E06FF029
S31520000C3000431A44BB699A602A4801F0D5FD034651
S31520000C407B61BB695A687B69D31A002B16DD26495E
S31520000C50B869FFF7CBFD244B1B685B687A699A421B
S31520000C6004DD00220221214805F049FE1E4B1B68A7
S31520000C705B6819461B4802F0F6F821E01C49B86962
S31520000C80FFF788FDFB7F002B1AD01A4B1B68002B21
S31520000C9016D0174B1B689A68174B1B68DB689B6836
S31520000CA0D31A002B0CDA1348FFF740FE03461249ED
S31520000CB01846FFF729FE104B1B681846FFF7D8FE8B
S31520000CC0FB7F002B01D0FFF7ECFBBB6918462037D2
S31520000CD0BD4680BD30980020C89E00203C9800204C
S31520000CE0D09E0020000C0040C49E0020000402403C
S31520000CF0C09E0020349800203898002080B588B007
S31520000D0000AFF860B9607A60EFF312833B613B690C
S31520000D101B09012B14BF01230023DBB2FB76FFF74F
S31520000D20B1FBFB681B68FB61FB69002B37D003E036
S31520000D30FB691B691B68FB61FB691B69002BF7D1EB
S31520000D40304B1B68FA699A4202D0FB7E002B07D1F2
S31520000D50FB7E002B01D0FFF7A4FB4FF0FF334DE0C5
S31520000D60FB685B68002B03D0FB685B6800221A6176
S31520000D70244B1A68FB685A60224B1B68FA681A6172
S31520000D80F869FFF775FE1F4B1B68DB68002B06D141
S31520000D90FB7E002B01D0FFF784FB00232EE0194BAE
S31520000DA01A68FB681A60FB7E002B05D0FB685B681F
S31520000DB0012B01D0FFF775FBBB687968F868984767
S31520000DC07861FFF75FFBFB6800221A60FB685B68AF
S31520000DD0FB61FB69002B0BD0FB69012B08D0FB685C
S31520000DE000225A60FB6900221A61F869FFF740FE6B
S31520000DF0FB7E002B01D0FFF754FB7B69184620377A
S31520000E00BD4680BD3C98002080B586B000AF786096
S31520000E10EFF31283FB60FB681B09012B14BF012330
S31520000E200023DBB2FB74FFF72DFB1F497868FFF721
S31520000E308FFD0346002B06D11C497868FFF788FDF5
S31520000E400346002B04D01A497868FFF74BFD21E0B2
S31520000E50184B1B687B611AE0174B1B687A699A420C
S31520000E6012D07B69DB687A689A420DD17B691A6950
S31520000E707B68DB689A4207D17B690022DA600C49DD
S31520000E807868FFF72FFD05E07B699B687B617B69AE
S31520000E90002BE1D1FB7C002B01D0FFF702FB00BF2A
S31520000EA01837BD4680BD00BFC49E0020C09E0020CE
S31520000EB030980020389800203C98002080B485B0D7
S31520000EC000AF7860EFF31283FB60FB681B09012BF0
S31520000ED004D0074B1B68DB685B6801E0054B1B6889
S31520000EE07A68136000BF1437BD465DF8047B7047EF
S31520000EF03C980020D09E002080B485B000AF78605A
S31520000F00EFF31283FB60FB681B09012B04D0084B0F
S31520000F101B68DB685B6801E0064B1B687A68126811
S31520000F209B1A18461437BD465DF8047B704700BFF0
S31520000F303C980020D09E002080B584B000AFEFF30F
S31520000F4012837B607B681B09012B14BF01230023BE
S31520000F50DBB2FB73FFF796FA0C4801F045FC03461B
S31520000F60BB60FB7B002B01D0FFF79BFAFB7B002BA2
S31520000F7004D0074B1B68DB685B6801E0054B1B68E8
S31520000F80BA68D31A18461037BD4680BD000C0040FB
S31520000F903C980020D09E002080B582B000AF002370
S31520000FA07B6012E07B685A1C13465B001344DB000F
S31520000FB0444A991843487A6813465B001344DB0079
S31520000FC0034419607B6801337B607B681C2BE9DD59
S31520000FD03C4B0022C3F8B82200237B6013E07B68D9
S31520000FE05A1C13469B0013449B00374A99183648CF
S31520000FF07A6813469B0013449B0003440833196008
S315200010007B6801337B607B68022BE8DD2E4B002258
S315200010105A6400237B6030E02B497A6813469B0094
S3152000102013449B000B4404337A681A607A6813468B
S315200010309B0013449B00244A1A447B685B03234984
S315200010400B4419461046FFF75DFA7A6813469B0053
S3152000105013449B001C4A13441D491846FFF786FA81
S3152000106019497A6813469B0013449B000B4410339E
S3152000107000221A607B6801337B607B68032BCBDD03
S31520001080144B4FF0FF325A60124B00229A60114BDC
S3152000109000221A610F4B0022DA600F48FFF754F93D
S315200010A00E48FFF751F90E48FFF74EF90A48FFF7A9
S315200010B04BF90948FFF748F9FFF76AFA00BF0837E6
S315200010C0BD4680BD609F0020F09E002038A20020F3
S315200010D0A50A00204C9F0020B8920020BC92002038
S315200010E0C892002080B586B000AFF860B96013467C
S315200010F0FB71FB79022B41D8EFF312833B613B69ED
S315200011001B09012B14BF01230023DBB2FB75FFF75C
S31520001110B9F9FB79022B0ED0022B10DC002B02D062
S31520001120012B04D00BE0174B174A1A6014E0174B1B
S31520001130174A1A6010E0174B174A1A600CE0174836
S31520001140FFF702F900220221154805F0D8FB1548C1
S31520001150FFF7FAF830BFFDE7FB791349FA6841F843
S315200011602320FB791149BA6841F82320FB68012224
S315200011705A60FB7D002B01D0FFF793F900BF18378B
S31520001180BD4680BDD4C001205D06002090C0012050
S31520001190C50600209CC001202D0700209492002027
S315200011A000040240E0920020E09E0020409F0020A4
S315200011B080B586B002AFF860B9607A60FFF762F951
S315200011C0FFF7EAFEBB68002B16D00F4801F00CFB98
S315200011D003461A460D4B1A600D4B01221A607B6896
S315200011E00093BB68FA6800210020FFF7E9FC084B52
S315200011F000221A60FFF7B2FCFFF7A8FC002318466E
S315200012001037BD4680BD00BF000C0040D09E002098
S31520001210C89E002080B400AF00BFBD465DF8047BA9
S31520001220704780B586B000AF454805F07FF9454840
S3152000123005F0E8FB444805F0E5FB01214FF000707E
S3152000124000F004FF01214FF0806000F0FFFE012135
S31520001250022000F09BFE09220921394805F088FB6F
S3152000126009220821364805F083FB07F110031846AA
S3152000127005F09DFA4FF400733B6102233B75002372
S31520001280BB750023FB7502237B7507F110031946F6
S315200012902B4805F0FDF94FF480733B6102233B7523
S315200012A00023BB750123FB7502237B7507F1100311
S315200012B01946234805F0ECF909220621204805F0B5
S315200012C057FB092205211E4805F052FB40233B61AE
S315200012D002233B750023BB750023FB7502237B7518
S315200012E007F110031946164805F0D2F920233B6171
S315200012F002233B750023BB750123FB7502237B75F7
S3152000130007F1100319460E4805F0C2F90023BB72F7
S315200013100023FB7201233B7300233B8000237B8049
S315200013200023BB800023FB8000233B8101237B73AA
S315200013303B46184605F05BFC00BF1837BD4680BD0E
S3152000134000040240006400400068004080B586B07A
S3152000135000AF01214FF0005000F078FE07F1100396
S31520001360184605F024FA20233B6103233B7500230E
S31520001370FB7507F1100319460F4805F089F904F0AB
S31520001380F5F93B46184604F033FA00233B60002368
S315200013907B600023FB603B461946102004F0F4F9DD
S315200013A00121102004F03AFA0021082004F0E4FA82
S315200013B000BF1837BD4680BD0000024080B584B00E
S315200013C000AF01214FF4804000F060FE072101208C
S315200013D006F020FC04F0C2F83B46184604F04AF911
S315200013E080233B6000233B710C237B710123BB715F
S315200013F03B46184604F0CCF807F10803184605F0DA
S31520001400D6F90223BB6001233B730123BB73002360
S31520001410FB7301237B7307F108031946184805F06F
S3152000142037F90123BB6001233B730123BB730023E0
S31520001430FB7301237B7307F108031946104805F057
S3152000144027F9012202210E4805F059FA012201212D
S315200014500B4805F054FA8023BB6000233B7300231E
S31520001460BB730023FB7301237B7307F10803194623
S31520001470034805F00DF900BF1037BD4680BD00BFFB
S315200014800004024080B483B000AFEFF314833B60C6
S315200014903B6823F003037B607B6883F3148800BFDB
S315200014A0094B4FF404725A61074B5B69064A43F0B5
S315200014B008035361054B4FF000425A6000BF0C37BA
S315200014C0BD465DF8047B704700ED00E030EF00E09C
S315200014D080B500AF0121082000F0B8FD01210820C9
S315200014E000F0F4FE00BF80BD80B400AF124A02E0D7
S315200014F0002342F8043B114B9A42F9D300BFBD4664
S315200015005DF8047B704780B500AFFFF7EDFFFFF76E
S3152000151081FEFFF786FEFFF719FFFFF74FFFFFF764
S31520001520B1FFFFF7D5FF00BF80BD80B400AF00BF7D
S31520001530BD465DF8047B7047C09E002048220120EE
S3152000154080B483B000AF0346FB71FB7903F01F0321
S31520001550012202FA03F1064A97F907305B0942F89D
S31520001560231000BF0C37BD465DF8047B704700BFD3
S3152000157000E100E080B483B000AF03463960FB7120
S3152000158097F90730002B0BDA3B68DAB20C49FB7966
S3152000159003F00F03043B1201D2B20B441A7609E082
S315200015A03B68DAB2074997F907301201D2B20B44E9
S315200015B083F8002300BF0C37BD465DF8047B7047D7
S315200015C000ED00E000E100E080B582B000AF786079
S315200015D039607B6800229A617B689A697B685A61C8
S315200015E07B685A697B68DA61012240F225510A48F4
S315200015F004F0AEFE002240F22771074804F0A8FE50
S3152000160002212520FFF7B6FF2520FFF799FF00BF0F
S315200016100837BD4680BD00BF0010014080B483B0AE
S3152000162000AF78600B46FB707B68DB69B3F5806F93
S3152000163017DA7B685B697A681344FA7883F8202086
S315200016407B685B6901335A42C3F30903C2F309027B
S3152000165058BF53427A6853617B68DB695A1C7B68A2
S31520001660DA6100BF0C37BD465DF8047B704780B554
S3152000167082B000AF786039607B68DB69002B18D1B7
S315200016807B689B68012240F22771184604F060FEB1
S315200016900FE03B681B780A2B03D10D217868FFF7F2
S315200016A0BDFF3B685A1C3A601B7819467868FFF7DD
S315200016B0B5FF3B681B78002BEBD100BF00BF083776
S315200016C0BD4680BD80B582B000AF786039607B684A
S315200016D0DB69002B07D17B689B68012240F22771CA
S315200016E0184604F035FE3B68DBB219467868FFF7EA
S315200016F095FF00BF0837BD4680BD80B586B002AFD6
S31520001700786039607B689B682021184604F068FE63
S315200017100346012B18D17B689B68184604F083FC8E
S315200017200346FB607B68DB68002B0DD07B68DA689C
S315200017307B681969FB6800930B4600210020FFF7A0
S315200017403FFA234B01221A607B689B68802118464A
S3152000175004F046FE0346012B35D17B68DB69002B5E
S3152000176029DD7B6898687B689B697A68134493F8BF
S3152000177020309BB2194604F044FC7B689B690133F8
S315200017805A42C3F30903C2F3090258BF53427A6887
S3152000179093617B68DB695A1E7B68DA617B68DB694B
S315200017A0002B10D17B689B68002240F227711846D7
S315200017B004F0CEFD07E07B689B68002240F227718B
S315200017C0184604F0C5FD002318461037BD4680BDD7
S315200017D0CC9E002080B400AF164B1B68154A43F000
S315200017E001031360134B00229A60124B1B68114AA7
S315200017F023F0A85323F4102313600E4B0E4A5A608D
S315200018000C4B0E4AC3F884200A4B0D4AC3F8882095
S31520001810084B1B68074A23F480231360054B0022DC
S31520001820DA60044B0022C3F88C2000BFBD465DF869
S31520001830047B70470038024010300024003000201E
S315200018400030002480B483B000AF0346FB71064B02
S3152000185000221A70044AFB79137000BF0C37BD466C
S315200018605DF8047B704700BF0238024080B582B025
S3152000187000AF00233B600023FB710023BB713120A6
S3152000188000F08AFD0346BB713B6801333B603B6831
S31520001890B3F5A04F02D0BB79002BF0D0312000F059
S315200018A07BFD0346002B02D00123FB7101E00023C0
S315200018B0FB71FB7918460837BD4680BD80B485B0DC
S315200018C000AF0346FB710023FB600A4B1B68FB60DD
S315200018D0FB6823F0F803FB60FB79DB00FA6813430F
S315200018E0FB60044AFB68136000BF1437BD465DF8F1
S315200018F0047B70470038024080B483B000AF0346B3
S31520001900FB71044AFB79136000BF0C37BD465DF8B6
S31520001910047B70470000474280B483B000AF034683
S31520001920FB710D4B00221A700B4B00221A70FB79AB
S31520001930012B02D0042B04D007E0074B01221A709A
S3152000194003E0054B05221A7000BF00BF0C37BD46C9
S315200019505DF8047B704700BF7038024080B483B0C6
S3152000196000AF0346FB71044AFB79136000BF0C37B6
S31520001970BD465DF8047B7047800E474280B485B033
S3152000198000AFF860B9607A603B607B689A01BB68FB
S315200019901A433B685B08013B1B041A43FB681A4346
S315200019A0BB691B06044913434B6000BF1437BD4671
S315200019B05DF8047B704700BF0038024080B483B0D6
S315200019C000AF0346FB71044AFB79136000BF0C3756
S315200019D0BD465DF8047B70476000474280B483B003
S315200019E000AF786039607B689A013B681B07054920
S315200019F01343C1F8843000BF0C37BD465DF8047B25
S31520001A00704700BF0038024080B483B000AF034661
S31520001A10FB71044AFB79136000BF0C37BD465DF8A5
S31520001A20047B70476800474280B485B000AFF860F9
S31520001A30B9607A60FB689A01BB681B061A437B680B
S31520001A401B0705491343C1F8883000BF1437BD462C
S31520001A505DF8047B704700BF0038024080B483B035
S31520001A6000AF0346FB71044AFB79136000BF0C37B5
S31520001A70BD465DF8047B70477000474280B483B052
S31520001A8000AF0346FB71044AFB79136000BF0C3795
S31520001A90BD465DF8047B70474C00474280B485B054
S31520001AA000AF786039600023FB600B4B9B68FB60BE
S31520001AB0FB6823F0EC63FB607A683B681343FA68A3
S31520001AC01343FB60044AFB68936000BF1437BD468E
S31520001AD05DF8047B704700BF0038024080B485B0B3
S31520001AE000AF786039600023FB600B4B9B68FB607E
S31520001AF0FB6823F07843FB607A683B681343FA68F7
S31520001B001343FB60044AFB68936000BF1437BD464D
S31520001B105DF8047B704700BF0038024080B485B072
S31520001B2000AF78600023FB60094B9B68FB60FB6875
S31520001B3023F00303FB60FA687B681343FB60044AC7
S31520001B40FB68936000BF1437BD465DF8047B704781
S31520001B500038024080B400AF054B9B68DBB203F02F
S31520001B600C03DBB21846BD465DF8047B704700BF08
S31520001B700038024080B485B000AF78600023FB6057
S31520001B80094B9B68FB60FB6823F0F003FB60FA6857
S31520001B907B681343FB60044AFB68936000BF1437DD
S31520001BA0BD465DF8047B70470038024080B485B09E
S31520001BB000AF78600023FB60094B9B68FB60FB68E5
S31520001BC023F4E053FB60FA687B681343FB60044A06
S31520001BD0FB68936000BF1437BD465DF8047B7047F1
S31520001BE00038024080B485B000AF78600023FB60E7
S31520001BF00A4B9B68FB60FB6823F46043FB607B68B1
S31520001C00DB00FA681343FB60044AFB68936000BF5D
S31520001C101437BD465DF8047B704700BF003802408C
S31520001C2080B489B000AF78600023BB6100237B615C
S31520001C300023FB6102233B610023FB600223BB6080
S31520001C404A4B9B6803F00C03BB61BB69082B11D080
S31520001C50BB69082B44D8BB69002B03D0BB69042B76
S31520001C6004D03DE07B68424A1A603DE07B68414AE9
S31520001C701A6039E03D4B5B689B0D03F00103FB6066
S31520001C803A4B5B6803F03F03BB60FB68002B0CD02C
S31520001C90384ABB68B2FBF3F3344A52689209C2F35E
S31520001CA0080202FB03F3FB610BE0314ABB68B2FB7F
S31520001CB0F3F32E4A52689209C2F3080202FB03F399
S31520001CC0FB612A4B5B681B0C03F0030301335B00AB
S31520001CD03B61FA693B69B2FBF3F27B681A6003E069
S31520001CE07B68234A1A6000BF204B9B6803F0F003F1
S31520001CF0BB61BB691B09BB611F4ABB6913441B78C7
S31520001D00DBB27B617B681A687B69DA407B685A6044
S31520001D10164B9B6803F4E053BB61BB699B0ABB610E
S31520001D20154ABB6913441B78DBB27B617B685A6812
S31520001D307B69DA407B689A600C4B9B6803F46043AE
S31520001D40BB61BB695B0BBB610B4ABB6913441B7848
S31520001D50DBB27B617B685A687B69DA407B68DA6034
S31520001D6000BF2437BD465DF8047B7047003802402B
S31520001D700024F40000127A004098002080B485B038
S31520001D8000AF78600023FB607B6803F44073B3F5F3
S31520001D90407F11D10F4B9B68FB60FB6823F4F8133F
S31520001DA0FB607B6823F0704323F44073FA68134387
S31520001DB0FB60084AFB689360064B1A6F7B68C3F387
S31520001DC00B03044913430B6700BF1437BD465DF868
S31520001DD0047B70470038024080B483B000AF0346CE
S31520001DE0FB71044AFB79136000BF0C37BD465DF8D2
S31520001DF0047B70473C0E474280B483B000AF034655
S31520001E00FB71044AFB79136000BF0C37BD465DF8B1
S31520001E10047B7047400E474280B483B000AF7860A1
S31520001E20044A7B68136000BF0C37BD465DF8047B0F
S31520001E30704700BF5C01474280B485B000AF786030
S31520001E400023FB600B4BD3F88C30FB60FB6823F040
S31520001E501F03FB607B68013BFA681343FB60054A5E
S31520001E60FB68C2F88C3000BF1437BD465DF8047B92
S31520001E70704700BF0038024080B485B000AF78605C
S31520001E800023FB600B4BD3F88C30FB60FB6823F4FC
S31520001E90F853FB607B68013B1B02FA681343FB6027
S31520001EA0044AFB68C2F88C3000BF1437BD465DF883
S31520001EB0047B70470038024080B485B000AF78605C
S31520001EC00023FB600A4BD3F88C30FB60FB6823F4BD
S31520001ED04013FB60FA687B681343FB60044AFB6887
S31520001EE0C2F88C3000BF1437BD465DF8047B7047BE
S31520001EF00038024080B485B000AF78600023FB60D4
S31520001F000A4BD3F88C30FB60FB6823F44003FB605C
S31520001F10FA687B681343FB60044AFB68C2F88C307E
S31520001F2000BF1437BD465DF8047B70470038024079
S31520001F3080B485B000AF78600023FB600A4BD3F8ED
S31520001F408C30FB60FB6823F44033FB60FA687B68C7
S31520001F501343FB60044AFB68C2F88C3000BF143779
S31520001F60BD465DF8047B70470038024080B483B0DC
S31520001F7000AF7860044A7B68136000BF0C37BD460B
S31520001F805DF8047B704700BFE011474280B483B000
S31520001F9000AF78600B46FB70FB78002B06D00A4B0F
S31520001FA01A6B09497B6813430B6306E0064B1A6BD1
S31520001FB07B68DB43044913400B6300BF0C37BD46E7
S31520001FC05DF8047B704700BF0038024080B483B0C0
S31520001FD000AF78600B46FB70FB78002B06D00A4BCF
S31520001FE05A6B09497B6813434B6306E0064B5A6BD1
S31520001FF07B68DB43044913404B6300BF0C37BD4667
S315200020005DF8047B704700BF0038024080B483B07F
S3152000201000AF78600B46FB70FB78002B06D00A4B8E
S315200020209A6B09497B6813438B6306E0064B9A6BD0
S315200020307B68DB43044913408B6300BF0C37BD46E6
S315200020405DF8047B704700BF0038024080B483B03F
S3152000205000AF78600B46FB70FB78002B06D00A4B4E
S315200020601A6C09497B6813430B6406E0064B1A6C0D
S315200020707B68DB43044913400B6400BF0C37BD4625
S315200020805DF8047B704700BF0038024080B483B0FF
S3152000209000AF78600B46FB70FB78002B06D00A4B0E
S315200020A05A6C09497B6813434B6406E0064B5A6C0D
S315200020B07B68DB43044913404B6400BF0C37BD46A5
S315200020C05DF8047B704700BF0038024080B483B0BF
S315200020D000AF78600B46FB70FB78002B06D00A4BCE
S315200020E01A6909497B6813430B6106E0064B1A6996
S315200020F07B68DB43044913400B6100BF0C37BD46A8
S315200021005DF8047B704700BF0038024080B483B07E
S3152000211000AF78600B46FB70FB78002B06D00A4B8D
S315200021205A6909497B6813434B6106E0064B5A6995
S315200021307B68DB43044913404B6100BF0C37BD4627
S315200021405DF8047B704700BF0038024080B483B03E
S3152000215000AF78600B46FB70FB78002B06D00A4B4D
S315200021609A6909497B6813438B6106E0064B9A6995
S315200021707B68DB43044913408B6100BF0C37BD46A7
S315200021805DF8047B704700BF0038024080B483B0FE
S3152000219000AF78600B46FB70FB78002B06D00A4B0D
S315200021A01A6A09497B6813430B6206E0064B1A6AD2
S315200021B07B68DB43044913400B6200BF0C37BD46E6
S315200021C05DF8047B704700BF0038024080B483B0BE
S315200021D000AF78600B46FB70FB78002B06D00A4BCD
S315200021E05A6A09497B6813434B6206E0064B5A6AD2
S315200021F07B68DB43044913404B6200BF0C37BD4666
S315200022005DF8047B704700BF0038024080B483B07D
S3152000221000AF78600B46FB70FB78002B06D00A4B8C
S315200022201A6D09497B6813430B6506E0064B1A6D48
S315200022307B68DB43044913400B6500BF0C37BD4662
S315200022405DF8047B704700BF0038024080B483B03D
S3152000225000AF78600B46FB70FB78002B06D00A4B4C
S315200022605A6D09497B6813434B6506E0064B5A6D48
S315200022707B68DB43044913404B6500BF0C37BD46E2
S315200022805DF8047B704700BF0038024080B483B0FD
S3152000229000AF78600B46FB70FB78002B06D00A4B0C
S315200022A09A6D09497B6813438B6506E0064B9A6D48
S315200022B07B68DB43044913408B6500BF0C37BD4662
S315200022C05DF8047B704700BF0038024080B483B0BD
S315200022D000AF78600B46FB70FB78002B06D00A4BCC
S315200022E01A6E09497B6813430B6606E0064B1A6E85
S315200022F07B68DB43044913400B6600BF0C37BD46A1
S315200023005DF8047B704700BF0038024080B483B07C
S3152000231000AF78600B46FB70FB78002B06D00A4B8B
S315200023205A6E09497B6813434B6606E0064B5A6E84
S315200023307B68DB43044913404B6600BF0C37BD4620
S315200023405DF8047B704700BF0038024080B483B03C
S3152000235000AF03460A46FB711346BB71BB79002BBF
S3152000236008D00C4B1B78DAB20A49FB791343DBB24F
S315200023700B7009E0074B1B78DAB2FB79DB43DBB243
S3152000238004491340DBB20B7000BF0C37BD465DF825
S31520002390047B70470D38024080B487B000AF0346F7
S315200023A0FB710023FB6000237B610023FB74FB7918
S315200023B05B09DBB2FB60FB68012B03D1124B1B6868
S315200023C07B6109E0FB68022B03D10F4B1B6F7B61FE
S315200023D002E00D4B5B6F7B61FB7903F01F03FB6013
S315200023E07A69FB6822FA03F303F00103002B02D07B
S315200023F00123FB7401E00023FB74FB7C18461C3789
S31520002400BD465DF8047B70470038024080B400AFBB
S31520002410054B5B6F044A43F08073536700BFBD468C
S315200024205DF8047B704700BF0038024080B485B059
S3152000243000AF0346FB710023FB73094BDA68FB7977
S315200024401340002B02D00123FB7301E00023FB7312
S31520002450FB7B18461437BD465DF8047B704700BFEA
S315200024600038024080B483B000AF0346FB71044AB3
S31520002470FB79137000BF0C37BD465DF8047B7047AF
S315200024800E38024080B582B000AF78607B68604A23
S31520002490934208D101210120FFF798FE0021012057
S315200024A0FFF794FEAFE07B68B3F1804F08D101219E
S315200024B00120FFF76BFE00210120FFF767FEA2E057
S315200024C07B68544A934208D101210220FFF75EFE21
S315200024D000210220FFF75AFE95E07B684E4A934280
S315200024E008D101210420FFF751FE00210420FFF727
S315200024F04DFE88E07B68494A934208D10121082095
S31520002500FFF744FE00210820FFF740FE7BE07B68B2
S31520002510434A934208D101211020FFF737FE0021BC
S315200025201020FFF733FE6EE07B683E4A934208D1C7
S3152000253001212020FFF72AFE00212020FFF726FE7A
S3152000254061E07B68384A934208D101210220FFF7D7
S315200025503DFE00210220FFF739FE54E07B68334A16
S3152000256093420AD101214FF48030FFF72FFE00213C
S315200025704FF48030FFF72AFE45E07B682C4A9342D1
S315200025800AD101214FF40030FFF720FE00214FF43D
S315200025900030FFF71BFE36E07B68264A93420AD1BD
S315200025A001214FF48020FFF711FE00214FF48020F7
S315200025B0FFF70CFE27E07B681F4A934208D10121D2
S315200025C04020FFF7E3FD00214020FFF7DFFD1AE062
S315200025D07B681A4A934208D101218020FFF7D6FD55
S315200025E000218020FFF7D2FD0DE07B68144A93423C
S315200025F009D101214FF48070FFF7C8FD00214FF467
S315200026008070FFF7C3FD00BF0837BD4680BD00BF01
S31520002610000001400004004000080040000C00407B
S31520002620001000400014004000040140004001401A
S31520002630004401400048014000180040001C0040B2
S315200026400020004080B485B000AF78603960002358
S31520002650FB817B681B88FB817B68294A934213D0C8
S315200026607B68284A93420FD07B68B3F1804F0BD00A
S315200026707B68254A934207D07B68244A934203D03D
S315200026807B68234A934208D1FB8923F07003FB81A0
S315200026903B685A88FB891343FB817B681D4A93421A
S315200026A00CD07B681C4A934208D0FB8923F44073E4
S315200026B0FB813B681A89FB891343FB817B68FA8976
S315200026C01A803B685A687B68DA623B681A887B689E
S315200026D01A857B680A4A934203D07B68094A93424B
S315200026E004D13B689B7A9AB27B681A867B68012262
S315200026F09A8200BF1437BD465DF8047B704700BF41
S315200027000000014000040140000400400008004091
S31520002710000C0040001000400014004080B483B03C
S3152000272000AF78607B684FF0FF325A607B680022EA
S315200027301A807B6800221A817B6800225A807B6877
S3152000274000229A7200BF0C37BD465DF8047B7047A5
S3152000275080B483B000AF78600B467B8013463B8005
S315200027607B687A881A857B683A889A8200BF0C37FC
S31520002770BD465DF8047B704780B485B000AF7860B5
S315200027800B467B800023FB817B681B88FB81FB89B2
S3152000279023F07003FB81FA897B881343FB817B68D6
S315200027A0FA891A8000BF1437BD465DF8047B70474E
S315200027B080B483B000AF786039607B683A685A622B
S315200027C000BF0C37BD465DF8047B704780B483B0EC
S315200027D000AF786039607B683A68DA6200BF0C37F0
S315200027E0BD465DF8047B704780B483B000AF786047
S315200027F07B685B6A18460C37BD465DF8047B7047DC
S3152000280080B483B000AF78607B681B8D9BB218467E
S315200028100C37BD465DF8047B704780B483B000AFAB
S3152000282078600B46FB70FB78002B08D07B681B88F2
S315200028309BB243F002039AB27B681A8007E07B685A
S315200028401B889BB223F002039AB27B681A8000BFD2
S315200028500C37BD465DF8047B704780B483B000AF6B
S3152000286078600B467B807B88002B08D07B681B8892
S315200028709BB243F004039AB27B681A8007E07B6818
S315200028801B889BB223F004039AB27B681A8000BF90
S315200028900C37BD465DF8047B704780B483B000AF2B
S315200028A078600B46FB70FB78002B08D07B681B8872
S315200028B09BB243F080039AB27B681A8007E07B685C
S315200028C01B889BB223F080039AB27B681A8000BFD4
S315200028D00C37BD465DF8047B704780B483B000AFEB
S315200028E078600B467B807B681B889BB223F00803AD
S315200028F09AB27B681A807B681B889AB27B881343BE
S315200029009AB27B681A8000BF0C37BD465DF8047BFF
S31520002910704780B483B000AF78600B467B807B68BD
S315200029201B889BB223F440739AB27B681A807B681B
S315200029301B889AB27B8813439AB27B681A8000BFA1
S315200029400C37BD465DF8047B704780B483B000AF7A
S3152000295078600B46FB70FB78002B08D07B681B88C1
S315200029609BB243F001039AB27B681A8007E07B682A
S315200029701B889BB223F001039AB27B681A8000BFA2
S315200029800C37BD465DF8047B704780B485B000AF38
S315200029907860396000237B810023FB810023BB8183
S315200029A07B681B8C9BB223F001039AB27B681A8446
S315200029B07B681B8CFB817B689B88BB817B681B8B20
S315200029C07B817B8923F070037B817B8923F0030342
S315200029D07B813B681A887B8913437B81FB8923F0A3
S315200029E00203FB813B689A89FB891343FB813B6881
S315200029F05A88FB891343FB817B681F4A934203D085
S31520002A007B681E4A934223D1FB8923F00803FB816E
S31520002A103B68DA89FB891343FB81FB8923F0040396
S31520002A20FB813B689A88FB891343FB81BB8923F48E
S31520002A308073BB81BB8923F40073BB813B681A8AF0
S31520002A40BB891343BB813B685A8ABB891343BB812D
S31520002A507B68BA899A807B687A891A833B689A68E8
S31520002A607B685A637B68FA891A8400BF1437BD468F
S31520002A705DF8047B704700BF000001400004014060
S31520002A8080B485B000AF7860396000237B81002355
S31520002A90FB810023BB817B681B8C9BB223F0100338
S31520002AA09AB27B681A847B681B8CFB817B689B8827
S31520002AB0BB817B681B8B7B817B8923F4E0437B81F5
S31520002AC07B8923F440737B813B681B881B029AB267
S31520002AD07B8913437B81FB8923F02003FB813B68A1
S31520002AE09B891B019AB2FB891343FB813B685B8858
S31520002AF01B019AB2FB891343FB817B68224A9342CE
S31520002B0003D07B68214A93422BD1FB8923F0800393
S31520002B10FB813B68DB891B019AB2FB891343FB814E
S31520002B20FB8923F04003FB813B689B881B019AB2FB
S31520002B30FB891343FB81BB8923F48063BB81BB895B
S31520002B4023F40063BB813B681B8A9B009AB2BB8936
S31520002B501343BB813B685B8A9B009AB2BB891343B4
S31520002B60BB817B68BA899A807B687A891A833B689D
S31520002B709A687B689A637B68FA891A8400BF14373F
S31520002B80BD465DF8047B704700000140000401400B
S31520002B9080B485B000AF7860396000237B81002344
S31520002BA0FB810023BB817B681B8C9BB223F4807343
S31520002BB09AB27B681A847B681B8CFB817B689B8816
S31520002BC0BB817B689B8B7B817B8923F070037B8118
S31520002BD07B8923F003037B813B681A887B89134317
S31520002BE07B81FB8923F40073FB813B689B891B0255
S31520002BF09AB2FB891343FB813B685B881B029AB21E
S31520002C00FB891343FB817B68224A934203D07B686E
S31520002C10214A93422BD1FB8923F40063FB813B6835
S31520002C20DB891B029AB2FB891343FB81FB8923F4C0
S31520002C308063FB813B689B881B029AB2FB89134306
S31520002C40FB81BB8923F48053BB81BB8923F40053CA
S31520002C50BB813B681B8A1B019AB2BB891343BB818C
S31520002C603B685B8A1B019AB2BB891343BB817B6895
S31520002C70BA899A807B687A899A833B689A687B6846
S31520002C80DA637B68FA891A8400BF1437BD465DF87B
S31520002C90047B7047000001400004014080B485B0E9
S31520002CA000AF786039600023BB8100237B8100233D
S31520002CB0FB817B681B8C9BB223F480539AB27B6882
S31520002CC01A847B681B8C7B817B689B88FB817B6855
S31520002CD09B8BBB81BB8923F4E043BB81BB8923F457
S31520002CE04073BB813B681B881B029AB2BB89134386
S31520002CF0BB817B8923F400537B813B689B891B0323
S31520002D009AB27B8913437B813B685B881B039AB20B
S31520002D107B8913437B817B68124A934203D07B686D
S31520002D20114A93420AD1FB8923F48043FB813B68F5
S31520002D301B8A9B019AB2FB891343FB817B68FA8924
S31520002D409A807B68BA899A833B689A687B681A64FA
S31520002D507B687A891A8400BF1437BD465DF8047BE8
S31520002D60704700BF000001400004014080B483B0DA
S31520002D7000AF78607B6800221A807B6800225A8028
S31520002D807B6800229A807B6800229A607B680022FA
S31520002D909A817B680022DA817B6800221A827B680E
S31520002DA000225A8200BF0C37BD465DF8047B70476F
S31520002DB080B485B000AF78600B467B8013463B809D
S31520002DC00023FB6000237B817B68FB60FB68183354
S31520002DD0FB607B88012202FA03F37B817B681B8CD4
S31520002DE09AB27B89DB439BB213409AB27B681A84E2
S31520002DF07B88002B02D07B88082B14D17B885B082C
S31520002E009BB21A46FB681344FB60FB681968FA6894
S31520002E104FF68F730B401360FB6819683A88FB687E
S31520002E200A431A6019E07B88043B9BB25B089BB27D
S31520002E301A46FB681344FB60FB681968FA6848F673
S31520002E40FF730B401360FB681A683B881B029BB21A
S31520002E501946FB680A431A6000BF00BF1437BD46F7
S31520002E605DF8047B704780B483B000AF786039602A
S31520002E707B683A685A6300BF0C37BD465DF8047B11
S31520002E80704780B483B000AF786039607B683A6859
S31520002E909A6300BF0C37BD465DF8047B704780B44B
S31520002EA083B000AF786039607B683A68DA6300BF28
S31520002EB00C37BD465DF8047B704780B483B000AF05
S31520002EC0786039607B683A681A6400BF0C37BD4663
S31520002ED05DF8047B704780B485B000AF78600B4600
S31520002EE07B800023FB817B681B8BFB81FB8923F086
S31520002EF07003FB81FA897B881343FB817B68FA89FF
S31520002F001A8300BF1437BD465DF8047B704780B432
S31520002F1085B000AF78600B467B800023FB817B6801
S31520002F201B8BFB81FB8923F4E043FB817B881B02FF
S31520002F309AB2FB891343FB817B68FA891A8300BF07
S31520002F401437BD465DF8047B704780B485B000AF6A
S31520002F5078600B467B800023FB817B689B8BFB8103
S31520002F60FB8923F07003FB81FA897B881343FB815D
S31520002F707B68FA899A8300BF1437BD465DF8047BC7
S31520002F80704780B485B000AF78600B467B80002305
S31520002F90FB817B689B8BFB81FB8923F4E043FB81D0
S31520002FA07B881B029AB2FB891343FB817B68FA89D3
S31520002FB09A8300BF1437BD465DF8047B704780B402
S31520002FC085B000AF78600B467B800023FB817B6851
S31520002FD01B8BFB81FB8923F00803FB81FA897B8805
S31520002FE01343FB817B68FA891A8300BF1437BD46D9
S31520002FF05DF8047B704780B485B000AF78600B46DF
S315200030007B800023FB817B681B8BFB81FB8923F460
S315200030100063FB817B881B029AB2FB891343FB81E9
S315200030207B68FA891A8300BF1437BD465DF8047B96
S31520003030704780B485B000AF78600B467B80002354
S31520003040FB817B689B8BFB81FB8923F00803FB813B
S31520003050FA897B881343FB817B68FA899A8300BFB0
S315200030601437BD465DF8047B704780B485B000AF49
S3152000307078600B467B800023FB817B689B8BFB81E2
S31520003080FB8923F40063FB817B881B029AB2FB89B0
S315200030901343FB817B68FA899A8300BF1437BD46A8
S315200030A05DF8047B704780B485B000AF78600B462E
S315200030B07B800023FB817B681B8BFB81FB8923F0B4
S315200030C00403FB81FA897B881343FB817B68FA8999
S315200030D01A8300BF1437BD465DF8047B704780B461
S315200030E085B000AF78600B467B800023FB817B6830
S315200030F01B8BFB81FB8923F48063FB817B881B026E
S315200031009AB2FB891343FB817B68FA891A8300BF35
S315200031101437BD465DF8047B704780B485B000AF98
S3152000312078600B467B800023FB817B689B8BFB8131
S31520003130FB8923F00403FB81FA897B881343FB81F7
S315200031407B68FA899A8300BF1437BD465DF8047BF5
S31520003150704780B485B000AF78600B467B80002333
S31520003160FB817B689B8BFB81FB8923F48063FB813E
S315200031707B881B029AB2FB891343FB817B68FA8901
S315200031809A8300BF1437BD465DF8047B704780B430
S3152000319085B000AF78600B467B800023FB817B687F
S315200031A01B8BFB81FB8923F08003FB81FA897B88BB
S315200031B01343FB817B68FA891A8300BF1437BD4607
S315200031C05DF8047B704780B485B000AF78600B460D
S315200031D07B800023FB817B681B8BFB81FB89C3F3F0
S315200031E00E03FB817B881B029AB2FB891343FB816A
S315200031F07B68FA891A8300BF1437BD465DF8047BC5
S31520003200704780B485B000AF78600B467B80002382
S31520003210FB817B689B8BFB81FB8923F08003FB81F1
S31520003220FA897B881343FB817B68FA899A8300BFDE
S315200032301437BD465DF8047B704780B485B000AF77
S3152000324078600B467B800023FB817B689B8BFB8110
S31520003250FB89C3F30E03FB817B881B029AB2FB8991
S315200032601343FB817B68FA899A8300BF1437BD46D6
S315200032705DF8047B704780B485B000AF78600B465C
S315200032807B800023FB817B681B8CFB81FB8923F0E1
S315200032900203FB81FA897B881343FB817B68FA89C9
S315200032A01A8400BF1437BD465DF8047B704780B48E
S315200032B085B000AF78600B467B800023FB817B685E
S315200032C01B8CFB81FB8923F00803FB81FA897B8811
S315200032D01343FB817B68FA891A8400BF1437BD46E5
S315200032E05DF8047B704780B485B000AF78600B46EC
S315200032F07B800023FB817B681B8CFB81FB8923F071
S315200033002003FB817B881B019AB2FB891343FB8137
S315200033107B68FA891A8400BF1437BD465DF8047BA2
S31520003320704780B485B000AF78600B467B80002361
S31520003330FB817B681B8CFB81FB8923F08003FB814F
S315200033407B881B019AB2FB891343FB817B68FA8930
S315200033501A8400BF1437BD465DF8047B704780B4DD
S3152000336085B000AF78600B467B800023FB817B68AD
S315200033701B8CFB81FB8923F40073FB817B881B025A
S315200033809AB2FB891343FB817B68FA891A8400BFB2
S315200033901437BD465DF8047B704780B485B000AF16
S315200033A078600B467B800023FB817B681B8CFB812E
S315200033B0FB8923F40063FB817B881B029AB2FB897D
S315200033C01343FB817B68FA891A8400BF1437BD46F4
S315200033D05DF8047B704780B485B000AF78600B46FB
S315200033E07B800023FB817B681B8CFB81FB8923F47C
S315200033F00053FB817B881B039AB2FB891343FB8115
S315200034007B68FA891A8400BF1437BD465DF8047BB1
S31520003410704780B485B000AF78600B467B8013463A
S315200034203B800023FB817B88012202FA03F3FB8188
S315200034307B681B8C9AB2FB89DB439BB213409AB202
S315200034407B681A847B681B8C9AB239887B8801FA40
S3152000345003F39BB213439AB27B681A8400BF1437D6
S31520003460BD465DF8047B704780B485B000AF7860B8
S315200034700B467B8013463B800023FB817B880422FE
S3152000348002FA03F3FB817B681B8C9AB2FB89DB4330
S315200034909BB213409AB27B681A847B681B8C9AB2C3
S315200034A039887B8801FA03F39BB213439AB27B686F
S315200034B01A8400BF1437BD465DF8047B704780B57B
S315200034C082B000AF786039603B681B88002B0FD133
S315200034D03B6859883B689A883B681B89786800F066
S315200034E0B7FC3B68DB881946786800F0E1F836E0DF
S315200034F03B681B88042B0FD13B6859883B689A8808
S315200035003B681B89786800F0E6FC3B68DB88194637
S31520003510786800F0E9F822E03B681B88082B0FD179
S315200035203B6859883B689A883B681B89786800F015
S315200035301FFD3B68DB881946786800F0F3F80EE03B
S315200035403B6859883B689A883B681B89786800F0F5
S3152000355057FD3B68DB881946786800F0FFF800BF06
S315200035600837BD4680BD80B483B000AF78607B68E5
S3152000357000221A807B6800225A807B6801229A806A
S315200035807B680022DA807B6800221A8100BF0C3714
S31520003590BD465DF8047B704780B584B000AF786087
S315200035A039600023FB810123BB813B685B88002BAC
S315200035B002D10223FB8101E00023FB813B689B882B
S315200035C0012B02D10223BB8101E00123BB813B6891
S315200035D01B88002B1CD13B6859883B689A883B681E
S315200035E01B89786800F034FC3B68DB8819467868CC
S315200035F000F05EF83B681B89BA89F989786800F083
S315200036006AFC3B68DB881946786800F06DF81BE099
S315200036103B6859883B689A883B681B89786800F024
S315200036205AFC3B68DB881946786800F05DF83B68F1
S315200036301B89BA89F989786800F00AFC3B68DB881F
S315200036401946786800F034F800BF1037BD4680BDB3
S3152000365080B483B000AF78607B685B6B18460C370C
S31520003660BD465DF8047B704780B483B000AF7860B8
S315200036707B689B6B18460C37BD465DF8047B70470C
S3152000368080B483B000AF78607B68DB6B18460C375C
S31520003690BD465DF8047B704780B483B000AF786088
S315200036A07B681B6C18460C37BD465DF8047B70475B
S315200036B080B483B000AF78600B467B807B681B8B21
S315200036C09BB223F00C039AB27B681A837B681B8B10
S315200036D09AB27B8813439AB27B681A8300BF0C3751
S315200036E0BD465DF8047B704780B483B000AF786038
S315200036F00B467B807B681B8B9BB223F440639AB27C
S315200037007B681A837B681B8B9AB27B881B029BB2D1
S3152000371013439AB27B681A8300BF0C37BD465DF807
S31520003720047B704780B483B000AF78600B467B8003
S315200037307B689B8B9BB223F00C039AB27B689A839F
S315200037407B689B8B9AB27B8813439AB27B689A8359
S3152000375000BF0C37BD465DF8047B704780B483B04C
S3152000376000AF78600B467B807B689B8B9BB223F4F3
S3152000377040639AB27B689A837B689B8B9AB27B88DC
S315200037801B029BB213439AB27B689A8300BF0C3705
S31520003790BD465DF8047B704780B483B000AF786087
S315200037A039603B681A883B685B8813439AB23B684A
S315200037B09B8813439AB23B68DB8813439AB23B68D3
S315200037C01B8913439AB23B685B8913439AB23B68C1
S315200037D09B8913439AB27B68A3F8442000BF0C3719
S315200037E0BD465DF8047B704780B483B000AF786037
S315200037F07B6800221A807B6800225A807B68002220
S315200038009A807B680022DA807B6800221A817B6896
S3152000381000225A817B6800229A8100BF0C37BD4660
S315200038205DF8047B704780B483B000AF78600B46A8
S31520003830FB70FB78002B0CD07B68B3F844309BB22E
S315200038406FEA43436FEA53439AB27B68A3F8442056
S3152000385009E07B68B3F844309BB2C3F30E039AB2F7
S315200038607B68A3F8442000BF0C37BD465DF8047B77
S31520003870704780B483B000AF78600B46FB70FB784E
S31520003880002B08D07B689B889BB243F004039AB236
S315200038907B689A8007E07B689B889BB223F00403B1
S315200038A09AB27B689A8000BF0C37BD465DF8047BD0
S315200038B0704780B483B000AF78600B46FB70FB780E
S315200038C0002B08D07B689B889BB243F001039AB2F9
S315200038D07B689A8007E07B689B889BB223F0010374
S315200038E09AB27B689A8000BF0C37BD465DF8047B90
S315200038F0704780B483B000AF78600B467B80134658
S315200039007B707B78002B08D07B689B899AB27B885A
S3152000391013439AB27B689A8109E07B689B899AB2A5
S315200039207B88DB439BB213409AB27B689A8100BFA7
S315200039300C37BD465DF8047B704780B483B000AF7A
S3152000394078600B467B807B687A889A8200BF0C372A
S31520003950BD465DF8047B704780B485B000AF7860C3
S315200039600B467B800023FB737B681B8A9AB27B887D
S3152000397013409BB2002B02D00123FB7301E00023EE
S31520003980FB73FB7B18461437BD465DF8047B7047F6
S3152000399080B483B000AF78600B467B807B88DB43A6
S315200039A09AB27B681A8200BF0C37BD465DF8047B4D
S315200039B0704780B485B000AF78600B467B800023CB
S315200039C0FB730023BB8100237B817B681B8A9AB211
S315200039D07B881340BB817B689B899AB27B88134086
S315200039E07B81BB89002B05D07B89002B02D001234C
S315200039F0FB7301E00023FB73FB7B18461437BD469F
S31520003A005DF8047B704780B483B000AF78600B46C6
S31520003A107B807B88DB439AB27B681A8200BF0C3797
S31520003A20BD465DF8047B704780B483B000AF7860F4
S31520003A300B467B8013463B807A883B8813439AB299
S31520003A407B68A3F8482000BF0C37BD465DF8047B91
S31520003A50704780B483B000AF78600B467B801346F6
S31520003A607B707B78002B08D07B689B899AB27B88F9
S31520003A7013439AB27B689A8109E07B689B899AB244
S31520003A807B88DB439BB213409AB27B689A8100BF46
S31520003A900C37BD465DF8047B704780B483B000AF19
S31520003AA078600B46FB70FB78002B08D07B689B88E0
S31520003AB09BB243F008039AB27B689A8007E07B6842
S31520003AC09B889BB223F008039AB27B689A8000BF3A
S31520003AD00C37BD465DF8047B704780B483B000AFD9
S31520003AE078607B681B899BB223F007039AB27B68B8
S31520003AF01A8100BF0C37BD465DF8047B704780B540
S31520003B0082B000AF78600B467B807B881946786848
S31520003B1000F088F87B681B899BB243F007039AB2B2
S31520003B207B681A8100BF0837BD4680BD80B584B04A
S31520003B3000AFF860084611461A4603467B810B46BD
S31520003B403B811346FB807B89602B06D1FB88398914
S31520003B500122F86800F0BFF905E0FB8839890122C7
S31520003B60F86800F075F97B891946F86800F05AF86C
S31520003B70FB681B899BB243F007039AB2FB681A8144
S31520003B8000BF1037BD4680BD80B586B000AFF86057
S31520003B90084611461A4603467B810B463B8113464F
S31520003BA0FB800023FB82FB883A897989F86800F03C
S31520003BB0A9F8FB681B89FB82FB8A23F00703FB829B
S31520003BC0FB8A43F00703FB82FB8A23F07003FB8208
S31520003BD0FB8A43F07003FB82FB68FA8A1A8100BFD6
S31520003BE01837BD4680BD80B584B000AFF860084662
S31520003BF011461A4603467B810B463B811346FB80C2
S31520003C00FB883A897989F86800F07CF8FB681B897B
S31520003C109BB243F480439AB2FB681A8100BF1037E7
S31520003C20BD4680BD80B485B000AF78600B467B80F2
S31520003C300023FB817B681B89FB81FB8923F07003B2
S31520003C40FB81FA897B881343FB817B68FA891A8179
S31520003C5000BF1437BD465DF8047B704780B483B03F
S31520003C6000AF78600B467B807B689B889BB223F0F5
S31520003C7070039AB27B689A807B689B889AB27B880D
S31520003C8013439AB27B689A8000BF0C37BD465DF815
S31520003C90047B704780B483B000AF78600B467B808E
S31520003CA07B681B899BB223F007039AB27B681A8133
S31520003CB07B681B899AB27B8813439AB27B681A81E8
S31520003CC000BF0C37BD465DF8047B704780B483B0D7
S31520003CD000AF78600B467B807B681B899BB223F004
S31520003CE080039AB27B681A817B681B899AB27B888B
S31520003CF013439AB27B681A8100BF0C37BD465DF824
S31520003D00047B704780B487B000AFF8600846114640
S31520003D101A4603467B810B463B811346FB800023D4
S31520003D20FB82FB681B89FB82FB8ADBB2FB82FB885A
S31520003D301B029AB23B8913439AB27B8913439AB2E8
S31520003D40FB8A1343FB82FB68FA8A1A8100BF1C3761
S31520003D50BD465DF8047B704780B487B000AFF8603D
S31520003D60084611461A4603467B810B463B8113467D
S31520003D70FB800023FB820023BB8200237B82FB681F
S31520003D801B89FB82FB681B8BBB82FB681B8C7B829F
S31520003D90FB8A23F00703FB82FA8A7B891343FB8283
S31520003DA0BB8A23F4407323F00303BB82BB8A43F40C
S31520003DB0807343F00103BB827B8A23F022037B823C
S31520003DC0FB881B019AB23B8913439AB27B8A134321
S31520003DD07B82FB68FA8A1A81FB68BA8A1A83FB6897
S31520003DE07A8A1A8400BF1C37BD465DF8047B70476B
S31520003DF080B483B000AF78600B46FB70FB78002B55
S31520003E0008D07B689B889BB243F080039AB27B687C
S31520003E109A8007E07B689B889BB223F080039AB246
S31520003E207B689A8000BF0C37BD465DF8047B7047DF
S31520003E3080B483B000AF78600B467B807B687A883D
S31520003E40A3F8502000BF0C37BD465DF8047B7047B1
S31520003E5080B487B000AFF860084611461A4603467C
S31520003E607B810B463B811346FB800023FB8200238C
S31520003E70BB82FB681B8C9BB223F001039AB2FB68C2
S31520003E801A84FB681B8BFB82FB681B8CBB82FB8A1C
S31520003E9023F0F303FB82FB881B019AB23B89134371
S31520003EA09AB2FB8A1343FB82BB8A23F00A03BB82A6
S31520003EB07A89BB8A13439BB243F00103BB82FB681A
S31520003EC0FA8A1A83FB68BA8A1A8400BF1C37BD4651
S31520003ED05DF8047B704780B487B000AFF860084671
S31520003EE011461A4603467B810B463B811346FB80CF
S31520003EF00023FB820023BB8200237B82FB681B8C72
S31520003F009BB223F010039AB2FB681A84FB681B8BC2
S31520003F10FB82FB681B8CBB827B891B017B82FB8A15
S31520003F2023F440731B051B0DFB82FB881B039AB2EF
S31520003F30FB8A1343FB823B891B029AB2FB8A1343FB
S31520003F40FB82BB8A23F0A003BB827A8ABB8A1343F7
S31520003F509BB243F01003BB82FB68FA8A1A83FB6884
S31520003F60BA8A1A8400BF1C37BD465DF8047B7047A9
S31520003F7080B487B000AFF860084611461A4603465B
S31520003F807B810B463B811346FB800023FB8200236B
S31520003F90BB8200237B82FB681B8C9BB223F480733D
S31520003FA09AB2FB681A84FB689B8BFB82FB681B8C8E
S31520003FB0BB827B891B027B82FB8A23F0F303FB8275
S31520003FC0FB881B019AB23B8913439AB2FB8A13439F
S31520003FD0FB82BB8A23F42063BB827A8ABB8A134383
S31520003FE09BB243F48073BB82FB68FA8A9A83FB6890
S31520003FF0BA8A1A8400BF1C37BD465DF8047B704719
S3152000400080B487B000AFF860084611461A460346CA
S315200040107B810B463B811346FB800023FB820023DA
S31520004020BB8200237B82FB681B8C9BB223F48053CC
S315200040309AB2FB681A84FB689B8BFB82FB681B8CFD
S31520004040BB827B891B037B82FB8A23F440731B057F
S315200040501B0DFB823B891B029AB2FB8A1343FB8210
S31520004060FB881B039AB2FB8A1343FB82BB8A23F489
S3152000407000535B045B0CBB827A8ABB8A13439BB2D8
S3152000408043F48053BB82FB68FA8A9A83FB68BA8A18
S315200040901A8400BF1C37BD465DF8047B704700BFFD
S315200040A080B483B000AF0346FB71FB7903F01F0396
S315200040B0012202FA03F1064A97F907305B0942F812
S315200040C0231000BF0C37BD465DF8047B704700BF48
S315200040D000E100E080B483B000AF03463960FB7195
S315200040E097F90730002B0BDA3B68DAB20C49FB79DB
S315200040F003F00F03043B1201D2B20B441A7609E0F7
S315200041003B68DAB2074997F907301201D2B20B445D
S3152000411083F8002300BF0C37BD465DF8047B70474B
S3152000412000ED00E000E100E080B586B000AF7860E9
S3152000413039607B6800229A617B689A697B685A613C
S315200041407B685A697B68DA612248FCF7FDF807F13B
S315200041500C03184602F00EFE0023BB740023FB74EA
S3152000416000233B7500237B750023BB750023FB755D
S315200041700023BB730023FB7302233B7403237B744E
S315200041800723BB8107F10C031946134802F05EFC96
S315200041900346002B02D11148FCF7D6F807F10C0391
S315200041A019460F4802F052FC0346002B02D10D4857
S315200041B0FCF7CAF802211420FFF78CFF1420FFF722
S315200041C06FFF01220221044803F012FA00BF1837BC
S315200041D0BD4680BD00930020006400402893002047
S315200041E00068004040930020B0B58AB002AF7860E6
S315200041F039607B689B685A49184603F017FA0346CC
S31520004200012B02D05748FCF79FF87B68DB69072B08
S3152000421000F39F807B689B6807F1080200211846FF
S3152000422002F0ECFFBB681B09DBB27A68526903F027
S315200042307F03D8B2796813469B0013445B0013446E
S315200042400B44203302461A70BB68DBB27A68526987
S3152000425003F00F03D8B2796813469B0013445B0022
S3152000426013440B44213302461A70BB7C7A68526988
S3152000427003F00F03D8B2796813469B0013445B0002
S3152000428013440B44223302461A700023FB7716E0B0
S31520004290FB7F7A685269F97F07F12000034413F8FF
S315200042A00D4C786813469B0013445B00134403446B
S315200042B00B44233322461A70FB7F0133FB777B683E
S315200042C05A69796813469B0013445B0013440B44D8
S315200042D022331B78FA7F9A42DAD37B68DB68002B7D
S315200042E025D07B68DC687B681D697B685A6979689C
S315200042F013469B0013445B0013440B4420331B7866
S3152000430019017B685A69786813469B0013445B0041
S315200043101344034421331B780B4400932B46224637
S3152000432000210020FCF74CFC0F4B01221A607B6811
S315200043305B6901335A4203F0070302F0070258BFB4
S3152000434053427A6853617B68DB695A1C7B68DA6161
S3152000435002E00648FBF7F8FF00BF2037BD46B0BD98
S315200043600300001258930020CC9E0020809300204A
S3152000437090B484B000AF786039607B68DB69002B2D
S3152000438055DD7B689A69796813469B0013445B0068
S3152000439013440B4420331A783B681A707B689A6959
S315200043A0796813469B0013445B0013440B44213366
S315200043B01A783B685A707B689A69796813469B001D
S315200043C013445B0013440B4422331A783B689A70DB
S315200043D00023FB7313E07B689A69F87BF97B7C6882
S315200043E013469B0013445B001344234403442333A6
S315200043F01A783B680B44DA70FB7B0133FB733B680E
S315200044009B78FA7B9A42E6D37B689B6901335A42B2
S3152000441003F0070302F0070258BF53427A689361FC
S315200044207B68DB695A1E7B68DA61002300E0012382
S3152000443018461037BD4690BC704780B58AB000AF8D
S31520004440786039607B689B683B620023FB77234B4F
S315200044503B623B681B781B013A6852781344BB6069
S3152000446000237B7400233B743B689B78082B02D97E
S315200044703B6808229A703B689B78BB74002387F8B8
S31520004480273010E097F8272097F8273039680A4414
S31520004490D27807F128010B4403F8152C97F827301A
S315200044A0013387F827303B689B7897F827209A4274
S315200044B0E8D307F108031946386A02F01FFD0346C0
S315200044C0FB77FB7F042B04D10548FBF73DFF012337
S315200044D000E0002318462837BD4680BD006800400E
S315200044E0A093002080B584B000AF786039600022A8
S315200044F00F491048FCF702FCF8607B6888331846A1
S31520004500FCF7FAFCB8607B68D3F89430BA68D31A03
S31520004510094A934208DDFB68002B05D1074B1A4652
S3152000452007490848FCF7EAFB00BF1037BD4680BDA7
S31520004530D5000020D09D00209F86010018950020E0
S315200045406F160020B0990020B0B5BAB000AF7860E1
S3152000455039600023C7F8E4307B68DB6F022B0CDC64
S315200045607B68DA6F7B681C32396843F822107B68D7
S31520004570DB6F5A1C7B68DA6715E07B683A681A6736
S315200045800023C7F8E0307B681B6FC7F8E0307B68F4
S315200045905A6F7B681A677B689A6F7B685A677B6855
S315200045A0D7F8E0209A677B68DB6F032B40F0A18069
S315200045B07B681A6F7B685B6FD31A504A9342C0F2AE
S315200045C098807B681A6F7B685B6FD31A42F20F72F2
S315200045D0934200F38E807B681A6F7B689B6FD31A99
S315200045E0464A9342C0F285807B681A6F7B689B6F30
S315200045F0D31A42F20F7293427BDC7B689A6F7B68F8
S315200046005B6FD31A3D4A934273DB7B689A6F7B6854
S315200046105B6FD31A42F20F7293426ADC7B681A6F81
S315200046207B685B6F1A447B689B6F1344344A82FB1A
S315200046300312DB17D31AC7F8DC30D7F8DC30314A3F
S3152000464082FB03125213DB17D31A184603F0B0FC71
S3152000465004460D46D7F8DC202A4B83FB0213591358
S31520004660D317CB1A284901FB03F3D31A274A82FB17
S3152000467003125211DB17D31A07EE903AF8EEE77AB7
S3152000468017EE900A03F0A6FC4FF00002204B03F031
S3152000469023FE02460B462046294603F03DFB0246F2
S315200046A00B461046194603F0FFFE0346C7F8D830DE
S315200046B0DFED186A97ED367AC6EE877AFDEEE77A51
S315200046C017EE903AC7F8D43007F10C00D7F8D4305B
S315200046D0114AC82103F0C4FF07F10C031A460F49FB
S315200046E00F48FCF70BFBD7F8D4200E490E48FCF7F1
S315200046F005FB00BFE837BD46B0BD00BFF1D8FFFFC0
S315200047005655555589B5F814A08601001F85EB51DD
S3152000471000408F4000007042349500206F16002024
S31520004720B09900206D5000209499002080B5C2B029
S3152000473002AF78603B4619607B68D3F89830002B2F
S315200047402BD17B6888331846FCF7D6FBC7F8D800F0
S315200047507B68D3F89430D7F8D820D31AC7F8D4304A
S315200047607B68D7F8D420C3F89C207B68D7F8D8205C
S31520004770C3F894207B680122C3F898200122794946
S315200047807948FCF7BBFA00230093784B7A6841F20C
S3152000479088317748FCF714FADFE07B6888331846BF
S315200047A0FCF7AAFBC7F8FC007B68D3F89430D7F84F
S315200047B0FC20D31AC7F8F830D7F8F8306D4A934260
S315200047C069DC7B68D3F89C30C7F8F830D7F8F83026
S315200047D042F20F7293420FDC674B1A4667496848CC
S315200047E0FCF78CFA7B680022C3F8982000225D49EA
S315200047F05D48FCF783FAB0E0D7F8F830614A82FBCF
S3152000480003125113DA178A1A594901FB02F29A1A2E
S3152000481013469B0013445B00C7F8E430D7F8F82012
S31520004820584B83FB02135913D317CB1A504901FB5C
S3152000483003F3D31A544A82FB03125211DB17D31AFD
S31520004840C7F8E030D7F8F8304E4A82FB03125213ED
S31520004850DB17D31AC7F8DC3007F10C00D7F8E430A1
S315200048600193D7F8E0300093D7F8DC30474AC821C7
S3152000487003F0F6FED7F8F8300093454B7A6800210E
S315200048800020FCF79DF907F10C031A463B493C48EA
S31520004890FCF734FA58E0D7F8F8303A4A82FB03128C
S315200048A05113DA178A1A324901FB02F29A1A134671
S315200048B09B0013445B00C7F8F430D7F8F820314B3F
S315200048C083FB02135913D317CB1A294901FB03F390
S315200048D0D31A2D4A82FB03125211DB17D31AC7F8BB
S315200048E0F030D7F8F830274A82FB03125213DB1731
S315200048F0D31AC7F8EC3007F10C00D7F8F43001933F
S31520004900D7F8F0300093D7F8EC30224AC82103F0CC
S31520004910A7FE07F10C031A4618491948FCF7EEF9C9
S31520004920D7F8F8301C4A93420EDD1C4B1A46134921
S315200049301348FCF7E3F97823C7F8E830D7F8E820DE
S3152000494017491848FCF7DAF97B680022C3F8982043
S31520004950002204490448FCF7D1F907F58077BD46C3
S3152000496080BD00BF35010020D09D0020E5440020F9
S31520004970A08601009F860100449500206F16002026
S31520004980B099002089B5F8141F85EB515095002069
S31520004990494500208C950020400D0300B895002045
S315200049A06D5000209499002080B588B002AF7860C1
S315200049B0396007F108031A463E493F48FCF79EF93D
S315200049C03E4B1A463E493F48FCF798F907F1080343
S315200049D003331A463A493B48FCF790F93A4B1A46B4
S315200049E037493848FCF78AF900237B617B68D3F87E
S315200049F08030002B58D03B7A013B052B55D801A29D
S31520004A0052F823F01D4A00202F4A0020414A002058
S31520004A10534A0020694A00208F4A00200123009330
S31520004A202A4B2B4A00210020FCF7CAF83DE0002340
S31520004A300093264B264A00210020FCF7C1F834E0DB
S31520004A4000230093234B224A00210020FCF7B8F8CC
S31520004A502BE0002220491E48FCF750F900221F496E
S31520004A601F48FCF74BF920E007F1080303331846EB
S31520004A7003F0BEFD78617B7A012B02D17B695B4214
S31520004A807B617A6917491648FCF738F90DE007F17A
S31520004A9008030333184603F0ABFD78617A6912499F
S31520004AA00F48FCF72BF900E000BF00BF1837BD46C2
S31520004AB080BD00BF71430020E49D0020CC950020DE
S31520004AC06F160020B0990020E0950020ED4A0020C6
S31520004AD070990020614B0020454F0020D14F0020C7
S31520004AE094990020295000206D50002080B483B076
S31520004AF000AF786039603B68012B09D17B681B6960
S31520004B00132B05DC7B681B695A1C7B681A610BE03A
S31520004B103B68002B08D17B681B69012B04DD7B6871
S31520004B201B695A1E7B681A6100BF0C37BD465DF8AB
S31520004B30047B704780B483B000AF786039607B68AF
S31520004B409B69002B03D17B6801229A6102E07B6876
S31520004B5000229A6100BF0C37BD465DF8047B704782
S31520004B6080B483B000AF78607B681B69002B04D1CA
S31520004B707B685A697B681A6106E07B681A697B68DC
S31520004B805A617B6800221A6100BF0C37BD465DF86A
S31520004B90047B704780B483B000AF786039607B684F
S31520004BA00122DA6100BF0C37BD465DF8047B7047F1
S31520004BB080B584B002AF786039607B68DB68002BF3
S31520004BC00CBF01230023DBB21A467B68DA607B68C0
S31520004BD0DB69002B03D0224B00221A700CE07B6885
S31520004BE0DB68002B05D07B681A691D4BD2B21A7080
S31520004BF002E01B4B00221A707B689B68002B2AD090
S31520004C007B689B69002B16D07B681B6A154A82FB42
S31520004C1003129210DB17D01A7B681B6A114A82FB9B
S31520004C2003129210DB17D11A002300930E4B7A68D9
S31520004C30FBF7C6FF10E07B681B6A0A4A82FB031259
S31520004C409210DB17D01A00230093074B7A680021B5
S31520004C50FBF7B6FF00E000BF0837BD4680BD00BFAA
S31520004C601C74004067666666B14B002080B483B032
S31520004C7000AF786039607B683A681A6200BF0C37EB
S31520004C80BD465DF8047B704780B483B000AF786082
S31520004C9039607B680022DA6100BF0C37BD465DF8BB
S31520004CA0047B704780B586B002AF786039607B6838
S31520004CB09B68002B39D07B685B693A689A4234D16D
S31520004CC000221C491C48FCF719F87B685B6907EE33
S31520004CD0903AB8EEE77ADFED196AC6EE877AC7ED25
S31520004CE0037AD7ED037A9FED167A67EE877A9FEDE2
S31520004CF0157A67EE877AFDEEE76AD7ED037A9FEDA0
S31520004D00127A67EE877A9FED0F7A67EE877AFDEE45
S31520004D10E77A7B685B6900930C4B7A6817EE901AEA
S31520004D2016EE900AFBF74CFF00E000BF1037BD4699
S31520004D3080BD00BF17010020D09D002000007042DA
S31520004D400000FA430000C84200007A43A54C002028
S31520004D5080B588B002AF786039607B689B68002B8D
S31520004D6000F0C980002266496648FBF7C7FF7B68CA
S31520004D70DB680A337B617B681B69634A52F8232010
S31520004D807B691344614A9B001344D3ED007A9FED5F
S31520004D90607A67EE877AFDEEE77A17EE903A3B6106
S31520004DA03A695C495748FBF7A9FF7B681B695A4A51
S31520004DB052F82330FB607B685B6907EE903AB8EEC9
S31520004DC0E77ADFED566AC6EE877AC7ED027A7B6808
S31520004DD05B693A689A4230D07B681B690F2B0BD0EF
S31520004DE07B681B69112B07D07B681B69152B03D0A9
S31520004DF07B681B69172B05D1012249494948FBF7D6
S31520004E007DFF04E0002246494648FBF777FFD7EDB1
S31520004E10027A9FED457A67EE877A9FED447A67EEB0
S31520004E20877AFDEEE77A7B685B690093404B414ABF
S31520004E30002117EE900AFBF7C3FE7B681B6901333E
S31520004E405A4203F01F0302F01F0258BF53427A68EA
S31520004E501361FB684FF4FA7202FB03F307EE903AF4
S31520004E60B8EEE77AD7ED027A67EE277A9FED327AA7
S31520004E7077EEC77A9FED2D7A67EE877AFDEEE77A91
S31520004E80002300932D4B1F4A41F2883117EE900ADA
S31520004E90FBF796FEFB684FF4FA7202FB03F307EE6C
S31520004EA0903AB8EEE77AD7ED027A67EE277A9FED49
S31520004EB01F7A67EE877AFDEEE76AFB68FA2202FB25
S31520004EC003F307EE903AB8EEE77AD7ED027A67EE6B
S31520004ED0277A9FED167A67EE877AFDEEE77A7B686A
S31520004EE05B690093164B7A6817EE901A16EE900AB5
S31520004EF0FBF766FE00E000BF1837BD4680BD00BF49
S31520004F00894C002070990020B4930020349400200E
S31520004F10002474496D4C00209894002000007042B3
S31520004F20F5000020D09D00200000FA430000C84272
S31520004F30A54C00209499002000004842954B002063
S31520004F40514D002080B584B002AF786039607B680F
S31520004F509B68002B0CBF01230023DBB21A467B681B
S31520004F609A607B689B68002B13D0114B1A46114917
S31520004F701148FBF7C3FE00230093104B104A002173
S31520004F800020FBF71DFE01220E490F48FBF7B6FE57
S31520004F900AE00E4B1A4607490748FBF7AFFE0022E8
S31520004FA008490948FBF7AAFE00BF0837BD4680BD61
S31520004FB0E49500206F160020B0990020B14B002008
S31520004FC070990020F5000020D09D0020F09500204B
S31520004FD080B584B002AF786039607B689B68002B0F
S31520004FE00CBF01230023DBB21A467B689A607B68DC
S31520004FF05B690093094B0A4A00210020FBF7E0FD7C
S315200050007B685B690093074B054A00210020FBF76C
S31520005010D7FD00BF0837BD4680BD00BFA54C002088
S3152000502094990020514D002080B582B000AF786061
S3152000503039603B6813F1050F06DB3B68052B03DC63
S315200050407B683A68DA6006E0054B1A460549064849
S31520005050FBF754FE00BF00BF0837BD4680BD00BF2A
S31520005060FC9500206F160020B099002080B582B0F4
S3152000507000AF786039603B681D2B07DD3B68B3F5D0
S31520005080967F03DC7B683A685A6106E0054B1A4630
S3152000509005490648FBF732FE00BF00BF0837BD466C
S315200050A080BD00BF0C9600206F160020B09900200E
S315200050B080B586B000AF7860396005233B733B68C6
S315200050C0002B02DA01237B7301E002237B733B680A
S315200050D083EAE372A2EBE37207F108030949184653
S315200050E003F00EFB0123BB733B7AFB7307F10C0322
S315200050F01A4605490548FBF701FE00BF1837BD468D
S3152000510080BD00BF1C9600203B440020E49D00206B
S3152000511080B586B000AF7860396007F108033A6839
S315200051200E49184603F0ECFA06233B7301237B73E2
S315200051300323BB733B7AFB737B7A3B743B68632BFD
S3152000514001DDBB7A7B7407F10C031A460449054836
S31520005150FBF7D4FD00BF1837BD4680BD1C96002046
S315200051603B440020E49D002080B588B002AF7860E3
S3152000517039609A4B1A469A499A48FBF7BFFD3A6816
S3152000518099499848FBF7BAFD984B1A469449954891
S31520005190FBF7B4FD3B686F2B1DD17B68D3F88030BD
S315200051A0002B0CBF01230023DBB21A467B68C3F811
S315200051B080207B68D3F88030002B06D08C4B1A4693
S315200051C087498848FBF79AFD05E08A4B1A468449A9
S315200051D08448FBF793FD3B68613B102B00F2E1808E
S315200051E001A252F823F000BFEB520020715200209A
S315200051F0A353002057530020A3530020A35300207D
S31520005200A3530020A3530020A3530020A353002020
S315200052102D520020A353002021530020A353002009
S31520005220A353002069530020B55200207B689B6859
S315200052307A68134400221A737B680C33184603F0ED
S31520005240D7F978617B6800229A607B68D3F8803032
S31520005250002B04D17A6968496848FBF74FFD7B69C2
S315200052600093674B7A6800210020FBF7A9FC98E0A1
S315200052707B689B687A68134400221A737B680C3318
S31520005280184603F0B5F978617B6800229A607B683E
S31520005290D3F88030002B04D17A695A495748FBF756
S315200052A02DFD7B690093584B7A6800210020FBF77F
S315200052B087FC76E07B68D3F88030002B07D101236A
S315200052C00093524B524A00210020FBF779FC012320
S315200052D03B7200237B720023BB7207F108031A4638
S315200052E04C494D48FBF70AFD5BE07B68D3F88030DC
S315200052F0002B07D100230093444B454A0021002070
S31520005300FBF75EFC02233B7200237B720023BB72F9
S3152000531007F108031A463F493F48FBF7EFFC40E0F8
S315200053207B68D3F88030002B07D1002300933B4BBA
S31520005330374A00210020FBF743FC03233B7200235E
S315200053407B720023BB7207F108031A4631493248A3
S31520005350FBF7D4FC25E000230093314B2C4A002197
S315200053600020FBF72DFC1CE07B68D3F88030002B57
S3152000537009D100222B492648FBF7C0FC00222A49E6
S315200053801E48FBF7BBFC04233B7200237B720023E1
S31520005390BB7207F108031A461E491F48FBF7AEFCED
S315200053A000BF3B682F2B02DD3B68392B06DD7B686F
S315200053B09B68002B0DD13B682D2B0AD17B689B68FF
S315200053C0591C7A6891603A68D1B27A6813440A46C1
S315200053D01A7300BF1837BD4680BD00BF2096002037
S315200053E06F160020B0990020C516002028960020B0
S315200053F02C9600203C9600202950002094990020CD
S31520005400B15000206D50002011510020ED4A00209F
S31520005410709900203B440020E49D0020614B002031
S31520005420354B0020454F0020D14F002080B588B055
S3152000543002AF78603960002225492648FBF75EFCDA
S31520005440002225492548FBF759FC002224492548F6
S31520005450FBF754FC7B6888331846FBF72FFD0022A8
S3152000546021492048FBF74AFC204B1A4620491B4875
S31520005470FBF744FC01233B7301237B730623BB7399
S315200054804823FB7365233B746C237B746C23BB74AA
S315200054906F23FB7400233B7507F10C031A4615494D
S315200054A00C48FBF72BFC00230093134B134A0021D7
S315200054B00020FBF785FB00230093114B114A0021A6
S315200054C00020FBF77DFB00BF1837BD4680BD00BF1F
S315200054D029410020E49D0020C9150020B099002014
S315200054E0A5000020D09D0020F50000204C9600202D
S315200054F06F1600203B440020514D00209499002037
