S01600002E2F44656275672F5254532D4C61622E73313936
S3152000000000BFDFF814D002F06CFE02F027FC02F0ED
S315200000107ABEFEE700BF000000C0012080B483B096
S3152000002000AF0346FB71FB7903F01F03012202FA9E
S3152000003003F1064A97F907305B0942F8231000BFFF
S315200000400C37BD465DF8047B704700BF00E100E039
S3152000005080B483B000AF03463960FB7197F907304F
S31520000060002B0BDA3B68DAB20C49FB7903F00F035D
S31520000070043B1201D2B20B441A7609E03B68DAB28D
S31520000080074997F907301201D2B20B4483F80023AF
S3152000009000BF0C37BD465DF8047B704700ED00E0DD
S315200000A000E100E080B586B000AF786039607B68FB
S315200000B000229A617B689A697B685A617B685A69D3
S315200000C07B68DA61224800F041FF07F10C031846ED
S315200000D006F0D6F80023BB740023FB7400233B757F
S315200000E000237B750023BB750023FB750023BB73A0
S315200000F00023FB7302233B7403237B740723BB81FA
S3152000010007F10C031946134805F026FF0346002B7A
S3152000011002D1114800F01AFF07F10C0319460F48C7
S3152000012005F01AFF0346002B02D10D4800F00EFF02
S3152000013002211420FFF78CFF1420FFF76FFF012206
S315200001400221044806F0DAFC00BF1837BD4680BD00
S3152000015004740020006400402C74002000680040D5
S3152000016044740020B0B58AB002AF786039607B68ED
S315200001709B685A49184606F0DFFC0346012B02D03D
S31520000180574800F0E3FE7B68DB69072B00F39F806E
S315200001907B689B6807F108020021184606F0B4FA2E
S315200001A0BB681B09DBB27A68526903F07F03D8B2B9
S315200001B0796813469B0013445B0013440B44203399
S315200001C002461A70BB68DBB27A68526903F00F03E5
S315200001D0D8B2796813469B0013445B0013440B4442
S315200001E0213302461A70BB7C7A68526903F00F03EA
S315200001F0D8B2796813469B0013445B0013440B4422
S31520000200223302461A700023FB7716E0FB7F7A68BA
S315200002105269F97F07F12000034413F80D4C7868E2
S3152000022013469B0013445B00134403440B442333BF
S3152000023022461A70FB7F0133FB777B685A697968FF
S3152000024013469B0013445B0013440B4422331B7854
S31520000250FA7F9A42DAD37B68DB68002B25D07B684D
S31520000260DC687B681D697B685A69796813469B0040
S3152000027013445B0013440B4420331B7819017B681D
S315200002805A69786813469B0013445B001344034461
S3152000029021331B780B4400932B4622460021002055
S315200002A001F090FA0F4B01221A607B685B690133DB
S315200002B05A4203F0070302F0070258BF53427A68F6
S315200002C053617B68DB695A1C7B68DA6102E0064869
S315200002D000F03CFE00BF2037BD46B0BD0300001233
S315200002E05C740020347F00208474002090B484B095
S315200002F000AF786039607B68DB69002B55DD7B6851
S315200003009A69796813469B0013445B0013440B4497
S3152000031020331A783B681A707B689A697968134685
S315200003209B0013445B0013440B4421331A783B682B
S315200003305A707B689A69796813469B0013445B0060
S3152000034013440B4422331A783B689A700023FB73BC
S3152000035013E07B689A69F87BF97B7C6813469B00DF
S3152000036013445B0013442344034423331A783B6825
S315200003700B44DA70FB7B0133FB733B689B78FA7B7B
S315200003809A42E6D37B689B6901335A4203F00703FE
S3152000039002F0070258BF53427A6893617B68DB6993
S315200003A05A1E7B68DA61002300E0012318461037C5
S315200003B0BD4690BC704780B58AB000AF7860396082
S315200003C07B689B683B620023FB77234B3B623B6841
S315200003D01B781B013A6852781344BB6000237B7458
S315200003E000233B743B689B78082B02D93B68082284
S315200003F09A703B689B78BB74002387F8273010E0FF
S3152000040097F8272097F8273039680A44D27807F1D9
S3152000041028010B4403F8152C97F82730013387F869
S3152000042027303B689B7897F827209A42E8D307F134
S3152000043008031946386A05F0E7FF0346FB77FB7F7A
S31520000440042B04D1054800F081FD012300E00023A0
S3152000045018462837BD4680BD00680040A474002099
S3152000046080B582B000AF78607B683B4A934208D162
S315200004700121102003F0E2FD0021102003F0DEFD13
S3152000048065E07B68354A93420AD101214FF400305A
S3152000049003F0B4FD00214FF4003003F0AFFD56E029
S315200004A07B682F4A93420AD101214FF4802003F022
S315200004B0A5FD00214FF4802003F0A0FD47E07B68D6
S315200004C0284A93420AD101214FF4002003F096FDD9
S315200004D000214FF4002003F091FD38E07B68224A8A
S315200004E093420AD101214FF4801003F087FD0021A9
S315200004F04FF4801003F082FD29E07B681B4A93426B
S3152000050008D10121202003F099FD0021202003F0AD
S3152000051095FD1CE07B68164A93420AD101214FF0D3
S31520000520804003F06BFD00214FF0804003F066FD14
S315200005300DE07B680F4A934209D101214FF000401C
S3152000054003F05CFD00214FF0004003F057FD00BF93
S315200005500837BD4680BD00BF001001400044004062
S3152000056000480040004C004000500040001401406C
S3152000057000780040007C004080B58AB000AF7860EB
S31520000580396000237B6200233B620023FB6100234A
S31520000590BB617B681B8A9BB27B627B6A23F44053D8
S315200005A07B623B68DB881A467B6A13437B627B6AE5
S315200005B09AB27B681A827B689B899BB27B627B6A34
S315200005C023F4B05323F00C037B623B689A883B6884
S315200005D01B8913439AB23B685B8913439BB21A4625
S315200005E07B6A13437B627B6A9AB27B689A817B68BB
S315200005F09B8A9BB27B627B6A23F440737B623B6857
S315200006009B891A467B6A13437B627B6A9AB27B6814
S315200006109A8207F10803184603F03AFA7B68304AB3
S31520000620934203D07B682F4A934202D17B693B6277
S3152000063001E03B693B627B689B899BB21BB2002B26
S315200006400CDA3A6A13469B0013449A001A443B6814
S315200006501B685B00B2FBF3F3FB610BE03A6A1346BF
S315200006609B0013449A001A443B681B689B00B2FB0C
S31520000670F3F3FB61FB691C4AA2FB03235B091B0105
S315200006807B627B6A1B09642202FB03F3FA69D31A95
S31520000690BB617B689B899BB21BB2002B0CDABB69C2
S315200006A0DB003233104AA2FB03235B0903F0070366
S315200006B07A6A13437B620BE0BB691B0132330A4A19
S315200006C0A2FB03235B0903F00F037A6A13437B62C1
S315200006D07B6A9AB27B681A8100BF2837BD4680BDE7
S315200006E000100140001401401F85EB5180B483B0F7
S315200006F000AF78607B684FF416521A607B68002240
S315200007009A807B680022DA807B6800221A817B68C7
S315200007100C225A817B6800229A8100BF0C37BD4685
S315200007205DF8047B704780B485B000AF786039608F
S315200007300023FB607B681B8A9BB2FB60FB6823F46B
S315200007407063FB603B681A883B685B8813439AB2E8
S315200007503B689B8813439AB23B68DB8813439BB262
S315200007601A46FB681343FB60FB689AB27B681A82C1
S3152000077000BF1437BD465DF8047B704780B483B054
S3152000078000AF78607B6800221A807B6800225A803E
S315200007907B6800229A807B680022DA8000BF0C37B3
S315200007A0BD465DF8047B704780B483B000AF7860A7
S315200007B00B46FB70FB78002B08D07B689B899BB28D
S315200007C043F400539AB27B689A8107E07B689B8941
S315200007D09BB223F400539AB27B689A8100BF0C37F0
S315200007E0BD465DF8047B704780B483B000AF786067
S315200007F00B46FB707B681B8B9BB223F0FF039AB2E0
S315200008007B681A837B681B8B9AB2FB789BB2134357
S315200008109AB27B681A8300BF0C37BD465DF8047B0D
S31520000820704780B483B000AF78600B46FB70FB78CE
S31520000830002B0AD07B689B899BB26FEA43436FEA01
S3152000084053439AB27B689A8107E07B689B899BB267
S31520000850C3F30E039AB27B689A8100BF0C37BD465C
S315200008605DF8047B704780B483B000AF78600B4698
S31520000870FB70FB78002B08D07B689B8A9BB243F4E5
S3152000088000639AB27B689A8207E07B689B8A9BB258
S3152000089023F400639AB27B689A8200BF0C37BD4668
S315200008A05DF8047B704780B483B000AF78600B4658
S315200008B07B807B88C3F308039AB27B689A8000BF4B
S315200008C00C37BD465DF8047B704780B483B000AF1B
S315200008D078607B689B889BB2C3F308039BB218465B
S315200008E00C37BD465DF8047B704780B483B000AFFB
S315200008F078600B46FB707B681B8A9BB223F00F0344
S315200009009AB27B681A827B681B8A9AB2FB789BB262
S3152000091013439AB27B681A8200BF0C37BD465DF836
S31520000920047B704780B483B000AF78600B46FB70C1
S31520000930FB78002B08D07B689B899BB243F002038F
S315200009409AB27B689A8107E07B689B899BB223F0E9
S3152000095002039AB27B689A8100BF0C37BD465DF8C8
S31520000960047B704780B483B000AF78600B467B80F1
S315200009707B689B899BB223F400639AB27B689A8139
S315200009807B689B899AB27B8813439AB27B689A814B
S3152000099000BF0C37BD465DF8047B704780B483B03A
S315200009A000AF78600B467B807B681B8A9BB223F066
S315200009B020039AB27B681A827B681B8A9AB27B884C
S315200009C013439AB27B681A8200BF0C37BD465DF886
S315200009D0047B704780B483B000AF78600B46FB7011
S315200009E0FB78002B08D07B681B8A9BB243F480439C
S315200009F09AB27B681A8207E07B681B8A9BB223F433
S31520000A0080439AB27B681A8200BF0C37BD465DF8D8
S31520000A10047B704780B483B000AF78607B689B8985
S31520000A209BB243F001039AB27B689A8100BF0C37D0
S31520000A30BD465DF8047B704780B483B000AF786014
S31520000A400B46FB70FB78002B08D07B689B8A9BB2F9
S31520000A5043F008039AB27B689A8207E07B689B8AF8
S31520000A609BB223F008039AB27B689A8200BF0C37A8
S31520000A70BD465DF8047B704780B483B000AF7860D4
S31520000A800B46FB707B681B8B9BB2DBB29AB27B68F2
S31520000A901A837B681B8B9AB2FB789BB21B029BB294
S31520000AA013439AB27B681A8300BF0C37BD465DF8A4
S31520000AB0047B704780B483B000AF78600B46FB7030
S31520000AC0FB78002B08D07B689B8A9BB243F02003DF
S31520000AD09AB27B689A8207E07B689B8A9BB223F056
S31520000AE020039AB27B689A8200BF0C37BD465DF818
S31520000AF0047B704780B483B000AF78600B46FB70F0
S31520000B00FB78002B08D07B689B8A9BB243F01003AE
S31520000B109AB27B689A8207E07B689B8A9BB223F015
S31520000B2010039AB27B689A8200BF0C37BD465DF8E7
S31520000B30047B704780B483B000AF78600B467B801F
S31520000B407B689B8A9BB223F004039AB27B689A82C5
S31520000B507B689B8A9AB27B8813439AB27B689A8277
S31520000B6000BF0C37BD465DF8047B704780B483B068
S31520000B7000AF78600B46FB70FB78002B08D07B68B3
S31520000B809B8A9BB243F002039AB27B689A8207E063
S31520000B907B689B8A9BB223F002039AB27B689A8277
S31520000BA000BF0C37BD465DF8047B704780B483B028
S31520000BB000AF78600B467B8013467B707B78002BDA
S31520000BC008D07B689B8A9AB27B8813439AB27B684B
S31520000BD09A8209E07B689B8A9AB27B88DB439BB228
S31520000BE013409AB27B689A8200BF0C37BD465DF8E7
S31520000BF0047B704780B487B000AF78600B467B805B
S31520000C0013467B7000233B610023FB600023BB60FF
S31520000C1000237B617B687B617B88DBB25B09DBB26F
S31520000C203B617B8803F01F03FB600122FB6802FA0D
S31520000C3003F3BB603B69012B03D17B690C337B61DA
S31520000C4009E03B69022B03D17B6910337B6102E00B
S31520000C507B6914337B617B78002B06D07B6919680E
S31520000C607B69BA680A431A6006E07B691968BB6823
S31520000C70DA437B690A401A6000BF1C37BD465DF81F
S31520000C80047B704780B485B000AF78600B467B80CC
S31520000C900023FB737B681B889AB27B8813409BB228
S31520000CA0002B02D00123FB7301E00023FB73FB7BA7
S31520000CB018461437BD465DF8047B704780B483B070
S31520000CC000AF78600B467B807B88DB439AB27B68DB
S31520000CD01A8000BF0C37BD465DF8047B704780B490
S31520000CE087B000AF78600B467B800023FB60002333
S31520000CF07B610023BB600023FB747B88DBB25B092E
S31520000D00DBB2BB607B8803F01F037B6101227B691A
S31520000D1002FA03F37B61BB68012B07D17B689B89B1
S31520000D209BB21A467B6913407B6111E0BB68022B9C
S31520000D3007D17B681B8A9BB21A467B6913407B616D
S31520000D4006E07B689B8A9BB21A467B6913407B61CF
S31520000D507B881B0A9BB2FB600122FB6802FA03F325
S31520000D60FB607B681B889BB21A46FB681340FB60BE
S31520000D707B69002B05D0FB68002B02D00123FB7476
S31520000D8001E00023FB74FB7C18461C37BD465DF84A
S31520000D90047B704780B485B000AF78600B467B80BB
S31520000DA00023FB810023BB817B881B0AFB81FB89F7
S31520000DB0012202FA03F3BB81BB89DB439AB27B682B
S31520000DC01A8000BF1437BD465DF8047B704700BF0C
S31520000DD0314900E03149EFF3088020ED108A724650
S31520000DE0EFF3118320E9FC0F2D4FD7F80080C8F8C8
S31520000DF000001EE0084600F0A9F82A4800F0A6F8F0
S31520000E00294800F0A3F8D8F8040000F0EBF82748AA
S31520000E1000F09CF8D8F8000000F0B5F8244800F05F
S31520000E2095F8D8F80000006800F0ADF81D4800F0ED
S31520000E308DF8DFF88080D8F80080C7F8008018E0A9
S31520000E401D4800F083F8D8F8040000F0CBF81B48C2
S31520000E5000F07CF8D8F8000000F095F8144800F06F
S31520000E6075F8D8F80000006800F08DF80D4800F0FD
S31520000E706DF8134A536843F00063536000BFD8F8F7
S31520000E800000B0E8FC0F83F311889646B0EC108A78
S31520000E9080F30888704700003478002045780020C9
S31520000EA0D8780020B5780020667800207E7800204B
S31520000EB0867800204C7F00208F780020A4780020A0
S31520000EC000ED00E080B483B000AF0346FB71FB79F0
S31520000ED003F01F03012202FA03F1064A97F90730AD
S31520000EE05B0942F8231000BF0C37BD465DF8047B32
S31520000EF0704700BF00E100E080B483B000AF034636
S31520000F003960FB7197F90730002B0BDA3B68DAB2B0
S31520000F100C49FB7903F00F03043B1201D2B20B44B8
S31520000F201A7609E03B68DAB2074997F907301201C9
S31520000F30D2B20B4483F8002300BF0C37BD465DF8C0
S31520000F40047B704700ED00E000E100E080B582B050
S31520000F5000AF78600EE07B681B780D2B07D07B688E
S31520000F605A1C7A601B78184600F060F902E07B680C
S31520000F7001337B607B681B78002BECD100BF00BF60
S31520000F800837BD4680BD80B586B000AF78600023A7
S31520000F907B617B6803F00F027B69591C79611049DC
S31520000FA08A5C07F118010B4403F80C2C7B681B099B
S31520000FB07B607B68002BECD10AE07B69013B7B617F
S31520000FC007F10C027B6913441B78184600F02EF9B2
S31520000FD07B69002BF1D100BF00BF1837BD4680BD0D
S31520000FE0B878002080B59EB000AF78607B68002B73
S31520000FF002DA4FF0FF3300E001233B677B683A6F4C
S3152000100002FB03F37B6000237B6779681C4B83FB21
S3152000101001239A10CB17D21A13469B0013445B0068
S31520001020CA1A7B6F591C796716498A5C07F17801C1
S315200010300B4403F86C2C7B68114A82FB0312921036
S31520001040DB17D31A7B607B68002BDED13B6F002B2E
S315200010500EDA2D2000F0EAF80AE07B6F013B7B6771
S3152000106007F10C027B6F13441B78184600F0DEF85C
S315200010707B6F002BF1D100BF00BF7837BD4680BD06
S3152000108067666666B878002080B483B000AF102308
S315200010907B607B6883F3118800BF00BF0C37BD4699
S315200010A05DF8047B704780B483B000AF30237B604B
S315200010B07B6883F3118800BF00BF0C37BD465DF8FF
S315200010C0047B704780B584B000AF78600B48FFF78B
S315200010D03DFF0B4B1B68002B02D1094B094A1A60B6
S315200010E0074B1B68FB60064B1A687B681344044A4F
S315200010F01360FB6818461037BD4680BDB8740020C3
S31520001100908200209802012080B485B000AF7860DC
S3152000111039603B6803F5F95310337A6813607B68AE
S315200011201B68BB600023FB600AE0FB689B001A4635
S31520001130BB6813441A4600231360FB680133FB6027
S31520001140FB68332BF1DDBB686FF016021A60BB68B3
S3152000115004331A4603231360BB6884331A464FF0C0
S315200011608073136000BF1437BD465DF8047B70475B
S3152000117080B485B000AF786039607B681B688033A7
S31520001180FB60FB683A681A6000BF1437BD465DF8FD
S31520001190047B704780B584B000AF1D4803F0AAF8E1
S315200011A03B1D184603F0F2F940F24733BB803B1D46
S315200011B01946174803F07EF9164B174A1A60022182
S315200011C06FF00100FFF798FE144B154A1A600021B4
S315200011D06FF00400FFF790FE124B134A1A600221AB
S315200011E03220FFF789FE3220FFF76CFE00210848E7
S315200011F003F016FA0121064803F0DFFA0122022144
S31520001200034804F0AEFA00BF1037BD4680BD00BFCC
S31520001210000C004038C00120D50D00202CC0012034
S31520001220D10D002008C10120B315002080B582B061
S3152000123000AF0346FB71FB799BB219460748FFF7BF
S3152000124032FB00BF80210548FFF71CFD0346002B1B
S31520001250F8D000BF00BF0837BD4680BD0010014052
S3152000126080B500AF124803F0F7F903461A46114B32
S315200012701A60114B01221A60104B00221A60104B83
S315200012801B68002B06D00E4B1B680E4A12680021E5
S3152000129010469847084B00221A60084B1B68002B03
S315200012A001D000F05DFA054B00221A6000BF80BD18
S315200012B0000C0040387F0020307F0020347F002043
S315200012C0A07F0020407F002080B500AF124803F0A9
S315200012D0C3F903461A46114B1A60114B01221A60B4
S315200012E0104B00221A60104B5B68002B06D00E4B69
S315200012F05B680E4A5268012110469847084B002227
S315200013001A60084B1B68002B01D000F029FA054B08
S3152000131000221A6000BF80BD000C0040387F0020EC
S31520001320307F0020347F0020A07F0020407F0020D7
S3152000133080B500AF124803F08FF903461A46114BC9
S315200013401A60114B01221A60104B00221A60104BB2
S315200013509B68002B06D00E4B9B680E4A9268022192
S3152000136010469847084B00221A60084B1B68002B32
S3152000137001D000F0F5F9054B00221A6000BF80BDB0
S31520001380000C0040387F0020307F0020347F002072
S31520001390A07F0020407F002080B485B000AF786019
S315200013A039600023FB603B681B68BB6004E0BB68B8
S315200013B0FB60BB681B68BB60BB68002B05D0BB68A5
S315200013C09A687B689B689A42F1DD7B68BA681A60E6
S315200013D0FB68002B03D13B687A681A6002E0FB6841
S315200013E07A681A6000BF1437BD465DF8047B7047E3
S315200013F080B485B000AF786039600023FB603B681D
S315200014001B68BB6004E0BB68FB60BB681B68BB60F5
S31520001410BB68002B05D0BB685A687B685B689A421C
S31520001420F1DD7B68BA681A60FB68002B03D13B6844
S315200014307A681A6002E0FB687A681A6000BF14377F
S31520001440BD465DF8047B704780B584B000AF7860F8
S315200014507B681B68FB60FB68002B04D0FB681A685E
S315200014607B681A600CE00948FFF770FD0022022114
S31520001470074801F03CFE0748FFF768FD30BFFDE74F
S31520001480FB6818461037BD4680BD00BFD0740020CB
S3152000149000040240DC74002080B584B000AF786080
S315200014A07B681B68FB60FB68002B04D0FB681A680E
S315200014B07B681A600CE00948FFF748FD00220221EC
S315200014C0074801F014FE0748FFF740FD30BFFDE74F
S315200014D0FB6818461037BD4680BD00BFD07400207B
S315200014E000040240E874002080B483B000AF786026
S315200014F039603B681A687B681A603B687A681A60AC
S3152000150000BF0C37BD465DF8047B704780B483B0BE
S3152000151000AF786039603B681A687B689A603B68E0
S315200015207A681A6000BF0C37BD465DF8047B7047A9
S3152000153080B485B000AF78607B681B68FB60FB6871
S315200015409A687B681A60FB6818461437BD465DF8B2
S31520001550047B704780B485B000AF78603960002383
S31520001560FB603B681B68BB6004E0BB68FB60BB6834
S315200015701B68BB60BB68002B03D0BA687B689A42A5
S31520001580F3D1BB68002B0DD0FB68002B04D0BB68C1
S315200015901A68FB681A6003E0BB681A683B681A6021
S315200015A0012300E0002318461437BD465DF8047B6E
S315200015B0704780B582B000AF02211E4804F05BF967
S315200015C01C4803F049F803467B6007E01A48FFF7FA
S315200015D03BFF034619491846FFF7DEFE164B1B68EC
S315200015E0002B06D0144B1B685A687B68D31A002B35
S315200015F0ECDD114B1B68002B16D00E4803F02CF89F
S3152000160003463B600C4B1B685B683A689A4204DDD4
S31520001610002202210A4801F06AFD074B1B685B681D
S315200016201946044803F057FB00F09AF800BF083724
S31520001630BD4680BD000C00402C7F0020287F002066
S31520001640000402400346024A136010DFF74600BF3B
S315200016504C7F00200346054A1360054B5B68044A0D
S3152000166043F080535360F74600BF00BF4C7F0020F5
S3152000167000ED00E080B582B000AF7860094B5B6872
S31520001680C3F30803002B03D17868FFF7DBFF02E0E2
S315200016907868FFF7DFFFFFF706FD00BF0837BD4676
S315200016A080BD00BF00ED00E090B585B000AF234BB4
S315200016B01C682348FFF7C8FE0346E360E368BB6067
S315200016C0FFF7F1FCBB68D868BB681969BB685B6922
S315200016D01A4600F015F9FFF7D7FC1A49B868FFF744
S315200016E003FF194B1B689B68DB687B60144B1B68E8
S315200016F0002B0AD07B68002BD9D0114B1B689A6827
S315200017007B689B68D31A002BD1DD0F48FFF710FFAB
S3152000171003460E491846FFF7F9FE0B4B1B68FB6084
S3152000172003E0FB681B691B68FB60FB681B69002BD9
S31520001730F7D1F868FFF79EFFB9E700BFD8780020F9
S31520001740287F0020CC780020D4780020D078002074
S3152000175080B500AF00F004F8FFF7A5FC30BFFBE72B
S3152000176080B582B000AF144B1B68DB687B60134BDF
S315200017701B68002B1BD0124B1B68002B17D07B68D5
S31520001780002B07D00D4B1B689A687B689B68D31A81
S31520001790002B0CDA0A48FFF7CBFE0346064918460B
S315200017A0FFF7B4FE044B1B681846FFF763FF00BF24
S315200017B00837BD4680BD00BFD4780020287F002092
S315200017C0D078002080B588B000AFF860B9607A6024
S315200017D03B60EFF312833B613B691B09012B14BF6E
S315200017E001230023DBB2FB77FFF74EFC3A48FFF7D5
S315200017F053FEB861BB697A68DA60BB693A681A61D8
S31520001800BB69BA6A5A61354B1B68002B04D1344B2D
S315200018101B68DB685B6801E0324B1B68FA681A4478
S31520001820BB695A60BB695A68BB68002B01DDBB687F
S3152000183001E06FF000431A44BB699A602A4802F01F
S315200018400BFF03467B61BB695A687B69D31A002B61
S3152000185016DD2649B869FFF7CBFD244B1B685B686C
S315200018607A699A4204DD00220221214801F03FFCD8
S315200018701E4B1B685B6819461B4803F02CFA21E0B7
S315200018801C49B869FFF788FDFB7F002B1AD01A4B3D
S315200018901B68002B16D0174B1B689A68174B1B68C2
S315200018A0DB689B68D31A002B0CDA1348FFF740FE3F
S315200018B0034612491846FFF729FE104B1B681846A7
S315200018C0FFF7D8FEFB7F002B01D0FFF7ECFBBB69AF
S315200018D018462037BD4680BDCC780020307F0020BA
S315200018E0D8780020387F0020000C00402C7F002074
S315200018F000040240287F0020D0780020D4780020E1
S3152000190080B588B000AFF860B9607A60EFF31283D3
S315200019103B613B691B09012B14BF01230023DBB26A
S31520001920FB76FFF7B1FBFB681B68FB61FB69002BAD
S3152000193037D003E0FB691B691B68FB61FB691B69E8
S31520001940002BF7D1304B1B68FA699A4202D0FB7EF6
S31520001950002B07D1FB7E002B01D0FFF7A4FB4FF015
S31520001960FF334DE0FB685B68002B03D0FB685B68A8
S3152000197000221A61244B1A68FB685A60224B1B68A6
S31520001980FA681A61F869FFF775FE1F4B1B68DB685A
S31520001990002B06D1FB7E002B01D0FFF784FB002312
S315200019A02EE0194B1A68FB681A60FB7E002B05D0C7
S315200019B0FB685B68012B01D0FFF775FBBB68796874
S315200019C0F86898477861FFF75FFBFB6800221A608A
S315200019D0FB685B68FB61FB69002B0BD0FB69012B65
S315200019E008D0FB6800225A60FB6900221A61F86958
S315200019F0FFF740FEFB7E002B01D0FFF754FB7B69EF
S31520001A0018462037BD4680BDD878002080B586B0E0
S31520001A1000AF7860EFF31283FB60FB681B09012B94
S31520001A2014BF01230023DBB2FB74FFF72DFB1F49F4
S31520001A307868FFF78FFD0346002B06D11C4978688E
S31520001A40FFF788FD0346002B04D01A497868FFF774
S31520001A504BFD21E0184B1B687B611AE0174B1B6876
S31520001A607A699A4212D07B69DB687A689A420DD1EC
S31520001A707B691A697B68DB689A4207D17B690022F9
S31520001A80DA600C497868FFF72FFD05E07B699B68D3
S31520001A907B617B69002BE1D1FB7C002B01D0FFF71A
S31520001AA002FB00BF1837BD4680BD00BF2C7F00203B
S31520001AB0287F0020CC780020D4780020D8780020F9
S31520001AC080B485B000AF7860EFF31283FB60FB68CB
S31520001AD01B09012B04D0074B1B68DB685B6801E000
S31520001AE0054B1B687A68136000BF1437BD465DF846
S31520001AF0047B7047D8780020387F002080B485B0DA
S31520001B0000AF7860EFF31283FB60FB681B09012BA3
S31520001B1004D0084B1B68DB685B6801E0064B1B683A
S31520001B207A6812689B1A18461437BD465DF8047BFE
S31520001B30704700BFD8780020387F002080B584B059
S31520001B4000AFEFF312837B607B681B09012B14BF68
S31520001B5001230023DBB2FB73FFF796FA0C4802F051
S31520001B607BFD0346BB60FB7B002B01D0FFF79BFA76
S31520001B70FB7B002B04D0074B1B68DB685B6801E00E
S31520001B80054B1B68BA68D31A18461037BD4680BD68
S31520001B90000C0040D8780020387F002080B582B025
S31520001BA000AF00237B6012E07B685A1C13465B0063
S31520001BB01344DB00444A991843487A6813465B006D
S31520001BC01344DB00034419607B6801337B607B6828
S31520001BD01C2BE9DD3C4B0022C3F8B82200237B6096
S31520001BE013E07B685A1C13469B0013449B00374A1C
S31520001BF0991836487A6813469B0013449B00034481
S31520001C00083319607B6801337B607B68022BE8DD33
S31520001C102E4B00225A6400237B6030E02B497A68E1
S31520001C2013469B0013449B000B4404337A681A60C6
S31520001C307A6813469B0013449B00244A1A447B6807
S31520001C405B0323490B4419461046FFF75DFA7A6871
S31520001C5013469B0013449B001C4A13441D491846F7
S31520001C60FFF786FA19497A6813469B0013449B00AE
S31520001C700B44103300221A607B6801337B607B683B
S31520001C80032BCBDD144B4FF0FF325A60124B002250
S31520001C909A60114B00221A610F4B0022DA600F481E
S31520001CA0FFF754F90E48FFF751F90E48FFF74EF9A2
S31520001CB00A48FFF74BF90948FFF748F9FFF76AFA90
S31520001CC000BF0837BD4680BDC07F0020507F002062
S31520001CD098820020A9160020AC7F0020F4740020F2
S31520001CE0F87400200475002080B586B000AFF86037
S31520001CF0B9601346FB71FB79022B41D8EFF31283AF
S31520001D003B613B691B09012B14BF01230023DBB276
S31520001D10FB75FFF7B9F9FB79022B0ED0022B10DCED
S31520001D20002B02D0012B04D00BE0174B174A1A6068
S31520001D3014E0174B174A1A6010E0174B174A1A601F
S31520001D400CE01748FFF702F900220221154801F09E
S31520001D50CEF91548FFF7FAF830BFFDE7FB791349AE
S31520001D60FA6841F82320FB791149BA6841F8232003
S31520001D70FB6801225A60FB7D002B01D0FFF793F907
S31520001D8000BF1837BD4680BDD4C001206112002097
S31520001D9090C00120C91200209CC0012031130020D0
S31520001DA0D0740020000402401C750020407F0020D3
S31520001DB0A07F002080B586B002AFF860B9607A6057
S31520001DC0FFF762F9FFF7EAFEBB68002B16D00F4833
S31520001DD002F042FC03461A460D4B1A600D4B0122B7
S31520001DE01A607B680093BB68FA6800210020FFF721
S31520001DF0E9FC084B00221A60FFF7B2FCFFF7A8FCAB
S31520001E00002318461037BD4680BD00BF000C004099
S31520001E10387F0020307F002080B483B000AF034697
S31520001E20FB71FB7903F01F03012202FA03F1064A34
S31520001E3097F907305B0942F8231000BF0C37BD46DF
S31520001E405DF8047B704700BF00E100E080B483B0FA
S31520001E5000AF03463960FB7197F90730002B0BDA88
S31520001E603B68DAB20C49FB7903F00F03043B1201FD
S31520001E70D2B20B441A7609E03B68DAB2074997F9E1
S31520001E8007301201D2B20B4483F8002300BF0C376F
S31520001E90BD465DF8047B704700ED00E000E100E000
S31520001EA080B582B000AF786039607B6800229A6185
S31520001EB07B689A697B685A617B685A697B68DA61B4
S31520001EC0012240F225510A48FEF794FE002240F2F4
S31520001ED027710748FEF78EFE02212520FFF7B6FF61
S31520001EE02520FFF799FF00BF0837BD4680BD00BFFC
S31520001EF00010014080B483B000AF78600B46FB70C1
S31520001F007B68DB69B3F5806F17DA7B685B697A6873
S31520001F101344FA7883F820207B685B6901335A42A0
S31520001F20C3F30903C2F3090258BF53427A685361C7
S31520001F307B68DB695A1C7B68DA6100BF0C37BD46BB
S31520001F405DF8047B704780B582B000AF7860396059
S31520001F507B68DB69002B18D17B689B68012240F2E5
S31520001F6027711846FEF746FE0FE03B681B780A2BC2
S31520001F7003D10D217868FFF7BDFF3B685A1C3A60F4
S31520001F801B7819467868FFF7B5FF3B681B78002B4E
S31520001F90EBD100BF00BF0837BD4680BD80B582B0FB
S31520001FA000AF786039607B68DB69002B07D17B68DE
S31520001FB09B68012240F227711846FEF71BFE3B68FC
S31520001FC0DBB219467868FFF795FF00BF0837BD4694
S31520001FD080BD80B586B002AF786039607B689B682B
S31520001FE020211846FEF74EFE0346012B18D17B68AA
S31520001FF09B681846FEF769FC0346FB607B68DB6836
S31520002000002B0DD07B68DA687B681969FB68009322
S315200020100B4600210020FFF7D5FB234B01221A6037
S315200020207B689B6880211846FEF72CFE0346012B11
S3152000203035D17B68DB69002B29DD7B6898687B6856
S315200020409B697A68134493F820309BB21946FEF7B1
S315200020502AFC7B689B6901335A42C3F30903C2F306
S31520002060090258BF53427A6893617B68DB695A1E1E
S315200020707B68DA617B68DB69002B10D17B689B6803
S31520002080002240F227711846FEF7B4FD07E07B6870
S315200020909B68002240F227711846FEF7ABFD00230D
S315200020A018461037BD4680BD347F002080B586B0E7
S315200020B000AF7860396007F10C031A460D490E48C7
S315200020C0FFF71EFC0D4B1A460D490E48FFF718FC6C
S315200020D007F10C0303331A4609490A48FFF710FC97
S315200020E0094B1A4606490748FFF70AFC00BF18376E
S315200020F0BD4680BDED0200203C7E0020A07600205B
S31520002100471F00201C7A0020B476002080B483B0BC
S3152000211000AF786039603B68012B09D17B681B6969
S31520002120132B05DC7B681B695A1C7B681A610BE044
S315200021303B68002B08D17B681B69012B04DD7B687B
S315200021401B695A1E7B681A6100BF0C37BD465DF8B5
S31520002150047B704780B483B000AF786039607B68B9
S315200021609B69002B03D17B6801229A6102E07B6880
S3152000217000229A6100BF0C37BD465DF8047B70478C
S3152000218080B483B000AF78607B681B69002B04D1D4
S315200021907B685A697B681A6106E07B681A697B68E6
S315200021A05A617B6800221A6100BF0C37BD465DF874
S315200021B0047B704780B483B000AF786039607B6859
S315200021C00122DA6100BF0C37BD465DF8047B7047FB
S315200021D080B584B002AF786039607B68DB68002BFD
S315200021E00CBF01230023DBB21A467B68DA607B68CA
S315200021F0DB69002B03D0224B00221A700CE07B688F
S31520002200DB68002B05D07B681A691D4BD2B21A7089
S3152000221002E01B4B00221A707B689B68002B2AD099
S315200022207B689B69002B16D07B681B6A154A82FB4C
S3152000223003129210DB17D01A7B681B6A114A82FBA5
S3152000224003129210DB17D11A002300930E4B7A68E3
S31520002250FFF7B8FA10E07B681B6A0A4A82FB031272
S315200022609210DB17D01A00230093074B7A680021BF
S31520002270FFF7A8FA00E000BF0837BD4680BD00BFC3
S315200022801C74004067666666D121002080B483B046
S3152000229000AF786039607B683A681A6200BF0C37F5
S315200022A0BD465DF8047B704780B483B000AF78608C
S315200022B039607B680022DA6100BF0C37BD465DF8C5
S315200022C0047B704780B483B000AF786039607B6848
S315200022D001229A6000BF0C37BD465DF8047B70472B
S315200022E080B588B002AF786039607B689B68002B28
S315200022F000F08C8000230093464B474A00210020A3
S31520002300FFF760FA7B68DB680A337B617B681B69B1
S31520002310424A52F823207B691344414A9B001344C6
S31520002320D3ED007A9FED3F7A67EE877AFDEEE77A66
S3152000233017EE903A3B613B6900933B4B364A0021AE
S315200023400020FFF73FFA7B681B69384A52F8233092
S31520002350FB607B681B6901335A4203F01F0302F0BE
S315200023601F0258BF53427A6813617B685B6907EE88
S31520002370903AB8EEE77ADFED2E6AC6EE877AC7ED99
S31520002380027AFB684FF4FA7202FB03F307EE903AE7
S31520002390B8EEE77AD7ED027A67EE277A9FED257AAF
S315200023A077EEC77A9FED247A67EE877AFDEEE77A95
S315200023B000230093214B184A41F2883117EE900AE8
S315200023C0FFF700FAFB684FF4FA7202FB03F307EEFD
S315200023D0903AB8EEE77AD7ED027A67EE277A9FED44
S315200023E0167A67EE877AFDEEE77A7B685B69FA688C
S315200023F002FB03F3642202FB03F100230093104B3C
S315200024007A6817EE900AFFF7DDF900E000BF18376B
S31520002410BD4680BDA9220020E07900203C75002021
S31520002420BC750020002474498D22002020760020CF
S3152000243000007042000048420000C842B52100203A
S31520002440E122002080B584B002AF786039607B68D5
S315200024509B68002B0CBF01230023DBB21A467B6846
S315200024609A607B689B68002B16D0104B1A46104941
S315200024701048FFF745FA002300930F4B0F4A00211F
S315200024800020FFF79FF9002300930D4B0D4A0021F2
S315200024900020FFF797F905E00B4B1A46044905483B
S315200024A0FFF72EFA00BF0837BD4680BDB87600205C
S315200024B0471F00201C7A0020E1220020047A0020F9
S315200024C0D1210020E0790020C476002080B483B09A
S315200024D000AF786039607B689B68002B0CBF0123B6
S315200024E00023DBB21A467B689A6000BF0C37BD46D4
S315200024F05DF8047B704780B582B000AF78603960A4
S315200025003B6813F1050F06DB3B68052B03DC7B6874
S315200025103A68DA6006E0054B1A4605490548FFF792
S31520002520EFF900BF00BF0837BD4680BDD07600203A
S31520002530471F00201C7A002080B582B000AF78604B
S3152000254039603B68002B03DD7B683A685A6105E0F9
S31520002550044B1A4604490548FFF7D2F900BF08374D
S31520002560BD4680BDE0760020471F00201C7A002053
S3152000257080B588B002AF786039607A4B1A467A49BE
S315200025807A48FFF7BDF93A6879497848FFF7B8F9EC
S31520002590784B1A4674497548FFF7B2F93B686F2B9A
S315200025A01DD17B68D3F88030002B0CBF012300237C
S315200025B0DBB21A467B68C3F880207B68D3F880306C
S315200025C0002B06D06C4B1A4667496848FFF798F9E6
S315200025D005E06A4B1A4664496448FFF791F97B681F
S315200025E0D3F88030002B10D001233B7201237B725D
S315200025F00623BB723B68DBB2FB7207F108031A465F
S315200026005F496048FFF77CF9A7E03B68613B162BE2
S3152000261000F28B8001A252F823F000BFDF260020B3
S31520002620A32600202B270020032700202B2700206D
S315200026302B2700202B2700202B2700202B270020AC
S315200026402B270020792600202B270020F12600208A
S315200026502B2700202B27002015270020CD26002001
S315200026602B2700202B2700202B2700202B2700207C
S315200026702B2700202B2700207B689B687A68134431
S3152000268000221A737B680C33184604F023FE786107
S315200026907B6800229A607A693B493C48FFF730F90B
S315200026A043E07B689B687A68134400221A737B6830
S315200026B00C33184604F00EFE78617B6800229A607F
S315200026C07A6933493148FFF71BF92EE0012300933D
S315200026D0304B314A00210020FFF774F825E0002313
S315200026E000932C4B2C4A00210020FFF76BF81CE0AE
S315200026F000230093294B284A00210020FFF762F887
S3152000270013E000230093264B234A00210020FFF7E5
S3152000271059F80AE0002223491F48FFF7F1F8002262
S3152000272021491A48FFF7ECF800BF3B682F2B02DD42
S315200027303B68392B06DD7B689B68002B0DD13B68F7
S315200027402D2B0AD17B689B68591C7A6891603A6860
S31520002750D1B27A6813440A461A7300BF1837BD46A9
S3152000276080BD00BFF0760020471F00201C7A002085
S315200027709D1F0020F8760020FC7600200C77002094
S31520002780B70300203C7E0020F7240020047A002096
S31520002790392500200D210020E0790020812100200C
S315200027A05521002045240020CD24002080B588B066
S315200027B002AF7860396000221D491E48FFF7A0F855
S315200027C000221D491D48FFF79BF81D4B1A461D493F
S315200027D01A48FFF795F801233B7301237B730623E1
S315200027E0BB734823FB7365233B746C237B746C2378
S315200027F0BB746F23FB7400233B7507F10C031A4649
S3152000280011490C48FFF77CF8002300930F4B104A20
S3152000281000210020FEF7D6FF002300930D4B0E4A21
S3152000282000210020FEF7CEFF00BF1837BD4680BD31
S31520002830A50000203C7E0020A11E00201C7A00203E
S315200028401C770020471F0020B7030020E12200202C
S31520002850047A0020D1210020E079002080B500AF45
S31520002860002208490848FFF73FFA0122074908488D
S31520002870FFF73AFA002207490748FFF79BFA002399
S31520002880184680BDD31F00201C7A00206501002039
S315200028903C7E0020AD2700205C79002080B500AF6B
S315200028A001214FF4804001F0C9FB00214FF4804004
S315200028B001F0C4FB00BF80BD80B483B000AF0346E7
S315200028C0FB71044AFB79136000BF0C37BD465DF8E7
S315200028D0047B70470038014080B483B000AF0346C4
S315200028E0FB71044AFB79136000BF0C37BD465DF8C7
S315200028F0047B70472000274280B485B000AF034692
S315200029000A46FB711346BB710023FB60BB7903F0BB
S3152000291003039B000F2202FA03F3FB60164ABB79DE
S315200029209B08DBB2023352F82320FB68DB431248B4
S31520002930B9798908C9B21A408B1C40F823200E4A5F
S31520002940BB799B08DBB2023352F82320F979BB7995
S3152000295003F003039B0001FA03F30748B9798908BA
S31520002960C9B21A438B1C40F8232000BF1437BD463A
S315200029705DF8047B704700BF0038014080B483B007
S3152000298000AF7860044A7B68136000BF0C37BD46F1
S315200029905DF8047B704700BFDC00274280B483B01B
S315200029A000AF0346FB71044AFB79136000BF0C3766
S315200029B0BD465DF8047B70470004274280B483B08F
S315200029C000AF0023FB71094B1B6A03F48073002BB5
S315200029D002D00123FB7101E00023FB71FB7918462D
S315200029E00C37BD465DF8047B704700BF00380140B8
S315200029F080B400AF00BFBD465DF8047B704780B54C
S31520002A0086B000AF454800F089F9454803F080FAC2
S31520002A10444803F07DFA01214FF0007001F04EFA90
S31520002A2001214FF0806001F049FA0121022001F0D6
S31520002A30E5F909220921394800F092FB09220821EB
S31520002A40364800F08DFB07F11003184600F0A7FA70
S31520002A504FF400733B6102233B750023BB750023B3
S31520002A60FB7502237B7507F1100319462B4800F0EE
S31520002A7007FA4FF480733B6102233B750023BB7535
S31520002A800123FB7502237B7507F1100319462348A2
S31520002A9000F0F6F909220621204800F061FB092200
S31520002AA005211E4800F05CFB40233B6102233B7559
S31520002AB00023BB750023FB7502237B7507F11003EA
S31520002AC01946164800F0DCF920233B6102233B75AA
S31520002AD00023BB750123FB7502237B7507F11003C9
S31520002AE019460E4800F0CCF90023BB720023FB7276
S31520002AF001233B7300233B8000237B800023BB8084
S31520002B000023FB8000233B8101237B733B46184631
S31520002B1003F0F3FA00BF1837BD4680BD000402401B
S31520002B20006400400068004080B586B000AF0121F7
S31520002B304FF0005001F0C2F907F11003184600F0DB
S31520002B402EFA20233B6103233B750023FB7507F1F7
S31520002B50100319460F4800F093F900F04BFB3B4653
S31520002B60184600F089FB00233B6000237B6000238E
S31520002B70FB603B461946102000F04AFB012110203D
S31520002B8000F090FB0021082000F03AFC00BF183727
S31520002B90BD4680BD0000024080B584B000AF012153
S31520002BA04FF4804001F0AAF907210120FFF7A4FE87
S31520002BB004F088FA3B46184604F010FB80233B605D
S31520002BC000233B710C237B710123BB713B461846C6
S31520002BD004F092FA07F10803184600F0E0F9022300
S31520002BE0BB6001233B730123BB730023FB730123CB
S31520002BF07B7307F108031946184800F041F90123B1
S31520002C00BB6001233B730123BB730023FB730123AA
S31520002C107B7307F108031946104800F031F90122A9
S31520002C2002210E4800F063FA012201210B4800F030
S31520002C305EFA8023BB6000233B730023BB73002313
S31520002C40FB7301237B7307F108031946034800F041
S31520002C5017F900BF1037BD4680BD00BF00040240F3
S31520002C6080B483B000AFEFF314833B603B6823F05E
S31520002C7003037B607B6883F3148800BF094B4FF402
S31520002C8004725A61074B5B69064A43F00803536195
S31520002C90054B4FF000425A6000BF0C37BD465DF829
S31520002CA0047B704700ED00E030EF00E080B500AF18
S31520002CB00121082001F002F90121082001F03EFA45
S31520002CC000BF80BD80B400AF124A02E0002342F864
S31520002CD0043B114B9A42F9D300BFBD465DF8047BF5
S31520002CE0704780B500AFFFF7EDFFFFF781FEFFF7D6
S31520002CF086FEFFF719FFFFF74FFFFFF7B1FFFFF73C
S31520002D00D5FF00BF80BD80B400AF00BFBD465DF8D3
S31520002D10047B7047287F00209802012080B582B06E
S31520002D2000AF78607B684B4A934208D1012101208D
S31520002D3001F004F90021012001F000F986E07B680A
S31520002D40454A934208D10121022001F0F7F80021DB
S31520002D50022001F0F3F879E07B68404A934208D1DB
S31520002D600121042001F0EAF80021042001F0E6F810
S31520002D706CE07B683A4A934208D10121082001F091
S31520002D80DDF80021082001F0D9F85FE07B68354A9C
S31520002D90934208D10121102001F0D0F80021102003
S31520002DA001F0CCF852E07B682F4A934208D10121EA
S31520002DB0202001F0C3F80021202001F0BFF845E0D3
S31520002DC07B682A4A934208D10121402001F0B6F8B7
S31520002DD00021402001F0B2F838E07B68244A934273
S31520002DE008D10121802001F0A9F80021802001F0DE
S31520002DF0A5F82BE07B681F4A93420AD101214FF4A4
S31520002E00807001F09BF800214FF4807001F096F855
S31520002E101CE07B68184A93420AD101214FF40070C6
S31520002E2001F08CF800214FF4007001F087F80DE0D6
S31520002E307B68124A934209D101214FF4806001F048
S31520002E407DF800214FF4806001F078F800BF083744
S31520002E50BD4680BD0000024000040240000802403A
S31520002E60000C0240001002400014024000180240EC
S31520002E70001C02400020024000240240002802409C
S31520002E8080B487B000AF7860396000237B6100236F
S31520002E903B610023FB6000237B6176E001227B6996
S31520002EA002FA03F33B613B681B683A691340FB60F7
S31520002EB0FA683B699A4265D17B681A687B695B0030
S31520002EC0032101FA03F3DB431A407B681A607B680F
S31520002ED01A683B681B7919467B695B0001FA03F384
S31520002EE01A437B681A603B681B79012B03D03B6829
S31520002EF01B79022B2ED17B689A687B695B000321A4
S31520002F0001FA03F3DB431A407B689A607B689A6870
S31520002F103B685B7919467B695B0001FA03F31A4328
S31520002F207B689A607B685A687B699BB21946012345
S31520002F308B40DB431A407B685A607B685B683A6843
S31520002F40927911467A6992B201FA02F292B21A4342
S31520002F507B685A607B68DA687B699BB25B000321D9
S31520002F6001FA03F3DB431A407B68DA607B68DA6890
S31520002F703B68DB7919467B695B0001FA03F31A4348
S31520002F807B68DA607B6901337B617B690F2B85D98E
S31520002F9000BF00BF1C37BD465DF8047B704780B478
S31520002FA083B000AF78607B684FF6FF721A607B684B
S31520002FB000221A717B6800225A717B6800229A715E
S31520002FC07B680022DA7100BF0C37BD465DF8047BB2
S31520002FD0704780B485B000AF78600B467B804FF495
S31520002FE08033FB607A88FB681343FB60FA687B6852
S31520002FF0DA617A887B68DA61FA687B68DA617B68ED
S31520003000DB69FB607B68DB69FB6000BF1437BD466C
S315200030105DF8047B704780B485B000AF78600B46BE
S315200030207B800023FB737B681A697B881340002B07
S3152000303002D00123FB7301E00023FB73FB7B1846C0
S315200030401437BD465DF8047B704780B483B000AF6B
S3152000305078607B681B699BB218460C37BD465DF8C5
S31520003060047B704780B485B000AF78600B467B80C8
S315200030700023FB737B685A697B881340002B02D0A0
S315200030800123FB7301E00023FB73FB7B18461437F7
S31520003090BD465DF8047B704780B483B000AF78608E
S315200030A07B685B699BB218460C37BD465DF8047B8E
S315200030B0704780B483B000AF78600B467B807B6816
S315200030C07A881A8300BF0C37BD465DF8047B7047AB
S315200030D080B483B000AF78600B467B807B687A88AB
S315200030E05A8300BF0C37BD465DF8047B704780B419
S315200030F083B000AF78600B467B8013467B707B786D
S31520003100002B03D07B687A881A8302E07B687A8852
S315200031105A8300BF0C37BD465DF8047B704780B4E8
S3152000312083B000AF78600B467B807A887B685A61D3
S3152000313000BF0C37BD465DF8047B704780B483B072
S3152000314000AF78600B467B807B685A697B885A4043
S315200031507B685A6100BF0C37BD465DF8047B70471B
S3152000316080B485B000AF78600B467B8013467B70B9
S315200031700023FB600023BB607A787B8803F007037B
S315200031809B0002FA03F3FB607B88DB089BB21A469E
S315200031907B68083253F822207B8803F007039B00C4
S315200031A00F2101FA03F3DB437988C90889B208465F
S315200031B002EA03017B6800F1080243F822107B88AB
S315200031C0DB089BB21A467B68083253F82230FA682D
S315200031D01343BB607B88DB089BB21A467B680832A8
S315200031E0B96843F8221000BF1437BD465DF8047B4A
S315200031F0704700BF80B500AF01214FF0005000F0AE
S31520003200FDFE00214FF0005000F0F8FE00BF80BD0B
S3152000321080B485B000AF786039600023FB6000235E
S31520003220BB60144B1B68FB6040F6FE727B6802FA9B
S3152000323003F3DB43FA681340FB603B681A683B687C
S315200032405B681A433B689B681A433B68DB681343F9
S31520003250BB60BA687B6802FA03F3FA681343FB6023
S31520003260044AFB68136000BF1437BD465DF8047B33
S31520003270704700BF0074004080B483B000AF786010
S315200032807B6800221A607B6800225A607B680022D5
S315200032909A607B680022DA6000BF0C37BD465DF875
S315200032A0047B704780B483B000AF78600B46FB7018
S315200032B0FB78002B09D00D4B1A6801217B6801FA97
S315200032C003F30A4913430B6009E0084B1A680121EE
S315200032D07B6801FA03F3DB43044913400B6000BF0C
S315200032E00C37BD465DF8047B704700BF0074004074
S315200032F080B483B000AF78600B46FB70FB78002B60
S315200033000AD00E4B5A687B681B09012101FA03F388
S315200033100A4913434B600AE0084B5A687B681B092D
S31520003320012101FA03F3DB43044913404B6000BF3C
S315200033300C37BD465DF8047B704700BF0074004023
S3152000334080B483B000AF0346FB71FB79002B06D017
S31520003350094B5B68084A43F00303536005E0064BBC
S315200033605B68054A23F00303536000BF0C37BD4654
S315200033705DF8047B704700BF0074004080B485B0C0
S3152000338000AFF860B9601346FB71FB79002B09D0BA
S315200033900C4B1A68B968FB6801FA03F30949134311
S315200033A00B6009E0074B1A68B968FB6801FA03F35A
S315200033B0DB43044913400B6000BF1437BD465DF85C
S315200033C0047B70470074004080B485B000AF7860FD
S315200033D00B467B800023FB60084BFB60FA687B680A
S315200033E013440833FB60FB681A467B88136000BFD2
S315200033F01437BD465DF8047B704700BF007400405B
S3152000340080B485B000AF78600B467B800023FB60DC
S31520003410084BFB60FA687B6813441433FB60FB6837
S315200034201A467B88136000BF1437BD465DF8047BBF
S31520003430704700BF0074004080B485B000AF78604C
S315200034400B467B8013463B800023FB600023BB603A
S315200034507B68082B05D17B881A023B881343FB60C7
S3152000346004E07B881A043B881343FB60074BBB6050
S315200034707A68BB6813442033BB60BB68FA681A605D
S3152000348000BF1437BD465DF8047B704700740040CA
S3152000349080B485B000AF78600023FB60084BFB60EA
S315200034A07B689A08FB6813442C33FB60FB681B6817
S315200034B09BB218461437BD465DF8047B704700BFA3
S315200034C00074004080B483B000AF78600B46FB7078
S315200034D0FB78002B0AD00E4B1A684FF480517B687C
S315200034E001FA03F30A4913430B600AE0084B1A68F2
S315200034F04FF480517B6801FA03F3DB430449134000
S315200035000B6000BF0C37BD465DF8047B704700BFDB
S315200035100074004080B485B000AFF860B9601346EF
S31520003520FB71FB79002B09D00C4B1A68B968FB6834
S3152000353001FA03F3094913430B6009E0074B1A68A4
S31520003540B968FB6801FA03F3DB43044913400B60B7
S3152000355000BF1437BD465DF8047B704700740040F9
S3152000356080B485B000AF786039600023FB730A4BC6
S315200035705A6B39687B6801FA03F31340002B02D09B
S315200035800123FB7301E00023FB73FB7B18461437F2
S31520003590BD465DF8047B70470074004080B483B05C
S315200035A000AF7860396006493A687B6802FA03F30F
S315200035B04B6300BF0C37BD465DF8047B704700BFE8
S315200035C00074004080B485B000AF78603960002375
S315200035D0FB730023BB60104B1A6839687B6801FABD
S315200035E003F31340BB600C4B5A6B39687B6801FAB6
S315200035F003F31340002B05D0BB68002B02D0012318
S31520003600FB7301E00023FB73FB7B18461437BD4692
S315200036105DF8047B704700BF0074004080B483B01F
S3152000362000AF7860396006493A687B6802FA03F38E
S315200036304B6300BF0C37BD465DF8047B704700BF67
S315200036400074004080B400AF164B1B68154A43F047
S3152000365001031360134B00229A60124B1B68114A18
S3152000366023F0A85323F4102313600E4B0E4A5A60FE
S315200036700C4B0E4AC3F884200A4B0D4AC3F8882007
S31520003680084B1B68074A23F480231360054B00224E
S31520003690DA60044B0022C3F88C2000BFBD465DF8DB
S315200036A0047B704700380240103000240030002090
S315200036B00030002480B483B000AF0346FB71064B74
S315200036C000221A70044AFB79137000BF0C37BD46DE
S315200036D05DF8047B704700BF0238024080B582B097
S315200036E000AF00233B600023FB710023BB71312018
S315200036F000F08AFD0346BB713B6801333B603B68A3
S31520003700B3F5A04F02D0BB79002BF0D0312000F0CA
S315200037107BFD0346002B02D00123FB7101E0002331
S31520003720FB71FB7918460837BD4680BD80B485B04D
S3152000373000AF0346FB710023FB600A4B1B68FB604E
S31520003740FB6823F0F803FB60FB79DB00FA68134380
S31520003750FB60044AFB68136000BF1437BD465DF862
S31520003760047B70470038024080B483B000AF034624
S31520003770FB71044AFB79136000BF0C37BD465DF828
S31520003780047B70470000474280B483B000AF0346F5
S31520003790FB710D4B00221A700B4B00221A70FB791D
S315200037A0012B02D0042B04D007E0074B01221A700C
S315200037B003E0054B05221A7000BF00BF0C37BD463B
S315200037C05DF8047B704700BF7038024080B483B038
S315200037D000AF0346FB71044AFB79136000BF0C3728
S315200037E0BD465DF8047B7047800E474280B485B0A5
S315200037F000AFF860B9607A603B607B689A01BB686D
S315200038001A433B685B08013B1B041A43FB681A43B7
S31520003810BB691B06044913434B6000BF1437BD46E2
S315200038205DF8047B704700BF0038024080B483B047
S3152000383000AF0346FB71044AFB79136000BF0C37C7
S31520003840BD465DF8047B70476000474280B483B074
S3152000385000AF786039607B689A013B681B07054991
S315200038601343C1F8843000BF0C37BD465DF8047B96
S31520003870704700BF0038024080B483B000AF0346D3
S31520003880FB71044AFB79136000BF0C37BD465DF817
S31520003890047B70476800474280B485B000AFF8606B
S315200038A0B9607A60FB689A01BB681B061A437B687D
S315200038B01B0705491343C1F8883000BF1437BD469E
S315200038C05DF8047B704700BF0038024080B483B0A7
S315200038D000AF0346FB71044AFB79136000BF0C3727
S315200038E0BD465DF8047B70477000474280B483B0C4
S315200038F000AF0346FB71044AFB79136000BF0C3707
S31520003900BD465DF8047B70474C00474280B485B0C5
S3152000391000AF786039600023FB600B4B9B68FB602F
S31520003920FB6823F0EC63FB607A683B681343FA6814
S315200039301343FB60044AFB68936000BF1437BD46FF
S315200039405DF8047B704700BF0038024080B485B024
S3152000395000AF786039600023FB600B4B9B68FB60EF
S31520003960FB6823F07843FB607A683B681343FA6868
S315200039701343FB60044AFB68936000BF1437BD46BF
S315200039805DF8047B704700BF0038024080B485B0E4
S3152000399000AF78600023FB60094B9B68FB60FB68E7
S315200039A023F00303FB60FA687B681343FB60044A39
S315200039B0FB68936000BF1437BD465DF8047B7047F3
S315200039C00038024080B400AF054B9B68DBB203F0A1
S315200039D00C03DBB21846BD465DF8047B704700BF7A
S315200039E00038024080B485B000AF78600023FB60C9
S315200039F0094B9B68FB60FB6823F0F003FB60FA68C9
S31520003A007B681343FB60044AFB68936000BF14374E
S31520003A10BD465DF8047B70470038024080B485B00F
S31520003A2000AF78600023FB60094B9B68FB60FB6856
S31520003A3023F4E053FB60FA687B681343FB60044A77
S31520003A40FB68936000BF1437BD465DF8047B704762
S31520003A500038024080B485B000AF78600023FB6058
S31520003A600A4B9B68FB60FB6823F46043FB607B6822
S31520003A70DB00FA681343FB60044AFB68936000BFCF
S31520003A801437BD465DF8047B704700BF00380240FE
S31520003A9080B489B000AF78600023BB6100237B61CE
S31520003AA00023FB6102233B610023FB600223BB60F2
S31520003AB04A4B9B6803F00C03BB61BB69082B11D0F2
S31520003AC0BB69082B44D8BB69002B03D0BB69042BE8
S31520003AD004D03DE07B68424A1A603DE07B68414A5B
S31520003AE01A6039E03D4B5B689B0D03F00103FB60D8
S31520003AF03A4B5B6803F03F03BB60FB68002B0CD09E
S31520003B00384ABB68B2FBF3F3344A52689209C2F3CF
S31520003B10080202FB03F3FB610BE0314ABB68B2FBF0
S31520003B20F3F32E4A52689209C2F3080202FB03F30A
S31520003B30FB612A4B5B681B0C03F0030301335B001C
S31520003B403B61FA693B69B2FBF3F27B681A6003E0DA
S31520003B507B68234A1A6000BF204B9B6803F0F00362
S31520003B60BB61BB691B09BB611F4ABB6913441B7838
S31520003B70DBB27B617B681A687B69DA407B685A60B6
S31520003B80164B9B6803F4E053BB61BB699B0ABB6180
S31520003B90154ABB6913441B78DBB27B617B685A6884
S31520003BA07B69DA407B689A600C4B9B6803F4604320
S31520003BB0BB61BB695B0BBB610B4ABB6913441B78BA
S31520003BC0DBB27B617B685A687B69DA407B68DA60A6
S31520003BD000BF2437BD465DF8047B7047003802409D
S31520003BE00024F40000127A00B47E002080B485B050
S31520003BF000AF78600023FB607B6803F44073B3F565
S31520003C00407F11D10F4B9B68FB60FB6823F4F813B0
S31520003C10FB607B6823F0704323F44073FA681343F8
S31520003C20FB60084AFB689360064B1A6F7B68C3F3F8
S31520003C300B03044913430B6700BF1437BD465DF8D9
S31520003C40047B70470038024080B483B000AF03463F
S31520003C50FB71044AFB79136000BF0C37BD465DF843
S31520003C60047B70473C0E474280B483B000AF0346C6
S31520003C70FB71044AFB79136000BF0C37BD465DF823
S31520003C80047B7047400E474280B483B000AF786013
S31520003C90044A7B68136000BF0C37BD465DF8047B81
S31520003CA0704700BF5C01474280B485B000AF7860A2
S31520003CB00023FB600B4BD3F88C30FB60FB6823F0B2
S31520003CC01F03FB607B68013BFA681343FB60054AD0
S31520003CD0FB68C2F88C3000BF1437BD465DF8047B04
S31520003CE0704700BF0038024080B485B000AF7860CE
S31520003CF00023FB600B4BD3F88C30FB60FB6823F46E
S31520003D00F853FB607B68013B1B02FA681343FB6098
S31520003D10044AFB68C2F88C3000BF1437BD465DF8F4
S31520003D20047B70470038024080B485B000AF7860CD
S31520003D300023FB600A4BD3F88C30FB60FB6823F42E
S31520003D404013FB60FA687B681343FB60044AFB68F8
S31520003D50C2F88C3000BF1437BD465DF8047B70472F
S31520003D600038024080B485B000AF78600023FB6045
S31520003D700A4BD3F88C30FB60FB6823F44003FB60CE
S31520003D80FA687B681343FB60044AFB68C2F88C30F0
S31520003D9000BF1437BD465DF8047B704700380240EB
S31520003DA080B485B000AF78600023FB600A4BD3F85F
S31520003DB08C30FB60FB6823F44033FB60FA687B6839
S31520003DC01343FB60044AFB68C2F88C3000BF1437EB
S31520003DD0BD465DF8047B70470038024080B483B04E
S31520003DE000AF7860044A7B68136000BF0C37BD467D
S31520003DF05DF8047B704700BFE011474280B483B072
S31520003E0000AF78600B46FB70FB78002B06D00A4B80
S31520003E101A6B09497B6813430B6306E0064B1A6B42
S31520003E207B68DB43044913400B6300BF0C37BD4658
S31520003E305DF8047B704700BF0038024080B483B031
S31520003E4000AF78600B46FB70FB78002B06D00A4B40
S31520003E505A6B09497B6813434B6306E0064B5A6B42
S31520003E607B68DB43044913404B6300BF0C37BD46D8
S31520003E705DF8047B704700BF0038024080B483B0F1
S31520003E8000AF78600B46FB70FB78002B06D00A4B00
S31520003E909A6B09497B6813438B6306E0064B9A6B42
S31520003EA07B68DB43044913408B6300BF0C37BD4658
S31520003EB05DF8047B704700BF0038024080B483B0B1
S31520003EC000AF78600B46FB70FB78002B06D00A4BC0
S31520003ED01A6C09497B6813430B6406E0064B1A6C7F
S31520003EE07B68DB43044913400B6400BF0C37BD4697
S31520003EF05DF8047B704700BF0038024080B483B071
S31520003F0000AF78600B46FB70FB78002B06D00A4B7F
S31520003F105A6C09497B6813434B6406E0064B5A6C7E
S31520003F207B68DB43044913404B6400BF0C37BD4616
S31520003F305DF8047B704700BF0038024080B483B030
S31520003F4000AF78600B46FB70FB78002B06D00A4B3F
S31520003F501A6909497B6813430B6106E0064B1A6907
S31520003F607B68DB43044913400B6100BF0C37BD4619
S31520003F705DF8047B704700BF0038024080B483B0F0
S31520003F8000AF78600B46FB70FB78002B06D00A4BFF
S31520003F905A6909497B6813434B6106E0064B5A6907
S31520003FA07B68DB43044913404B6100BF0C37BD4699
S31520003FB05DF8047B704700BF0038024080B483B0B0
S31520003FC000AF78600B46FB70FB78002B06D00A4BBF
S31520003FD09A6909497B6813438B6106E0064B9A6907
S31520003FE07B68DB43044913408B6100BF0C37BD4619
S31520003FF05DF8047B704700BF0038024080B483B070
S3152000400000AF78600B46FB70FB78002B06D00A4B7E
S315200040101A6A09497B6813430B6206E0064B1A6A43
S315200040207B68DB43044913400B6200BF0C37BD4657
S315200040305DF8047B704700BF0038024080B483B02F
S3152000404000AF78600B46FB70FB78002B06D00A4B3E
S315200040505A6A09497B6813434B6206E0064B5A6A43
S315200040607B68DB43044913404B6200BF0C37BD46D7
S315200040705DF8047B704700BF0038024080B483B0EF
S3152000408000AF78600B46FB70FB78002B06D00A4BFE
S315200040901A6D09497B6813430B6506E0064B1A6DBA
S315200040A07B68DB43044913400B6500BF0C37BD46D4
S315200040B05DF8047B704700BF0038024080B483B0AF
S315200040C000AF78600B46FB70FB78002B06D00A4BBE
S315200040D05A6D09497B6813434B6506E0064B5A6DBA
S315200040E07B68DB43044913404B6500BF0C37BD4654
S315200040F05DF8047B704700BF0038024080B483B06F
S3152000410000AF78600B46FB70FB78002B06D00A4B7D
S315200041109A6D09497B6813438B6506E0064B9A6DB9
S315200041207B68DB43044913408B6500BF0C37BD46D3
S315200041305DF8047B704700BF0038024080B483B02E
S3152000414000AF78600B46FB70FB78002B06D00A4B3D
S315200041501A6E09497B6813430B6606E0064B1A6EF6
S315200041607B68DB43044913400B6600BF0C37BD4612
S315200041705DF8047B704700BF0038024080B483B0EE
S3152000418000AF78600B46FB70FB78002B06D00A4BFD
S315200041905A6E09497B6813434B6606E0064B5A6EF6
S315200041A07B68DB43044913404B6600BF0C37BD4692
S315200041B05DF8047B704700BF0038024080B483B0AE
S315200041C000AF03460A46FB711346BB71BB79002B31
S315200041D008D00C4B1B78DAB20A49FB791343DBB2C1
S315200041E00B7009E0074B1B78DAB2FB79DB43DBB2B5
S315200041F004491340DBB20B7000BF0C37BD465DF897
S31520004200047B70470D38024080B487B000AF034668
S31520004210FB710023FB6000237B610023FB74FB7989
S315200042205B09DBB2FB60FB68012B03D1124B1B68D9
S315200042307B6109E0FB68022B03D10F4B1B6F7B616F
S3152000424002E00D4B5B6F7B61FB7903F01F03FB6084
S315200042507A69FB6822FA03F303F00103002B02D0EC
S315200042600123FB7401E00023FB74FB7C18461C37FA
S31520004270BD465DF8047B70470038024080B400AF2D
S31520004280054B5B6F044A43F08073536700BFBD46FE
S315200042905DF8047B704700BF0038024080B485B0CB
S315200042A000AF0346FB710023FB73094BDA68FB79E9
S315200042B01340002B02D00123FB7301E00023FB7384
S315200042C0FB7B18461437BD465DF8047B704700BF5C
S315200042D00038024080B483B000AF0346FB71044A25
S315200042E0FB79137000BF0C37BD465DF8047B704721
S315200042F00E38024080B582B000AF78607B68604A95
S31520004300934208D101210120FFF798FE00210120C8
S31520004310FFF794FEAFE07B68B3F1804F08D101210F
S315200043200120FFF76BFE00210120FFF767FEA2E0C8
S315200043307B68544A934208D101210220FFF75EFE92
S3152000434000210220FFF75AFE95E07B684E4A9342F1
S3152000435008D101210420FFF751FE00210420FFF798
S315200043604DFE88E07B68494A934208D10121082006
S31520004370FFF744FE00210820FFF740FE7BE07B6824
S31520004380434A934208D101211020FFF737FE00212E
S315200043901020FFF733FE6EE07B683E4A934208D139
S315200043A001212020FFF72AFE00212020FFF726FEEC
S315200043B061E07B68384A934208D101210220FFF749
S315200043C03DFE00210220FFF739FE54E07B68334A88
S315200043D093420AD101214FF48030FFF72FFE0021AE
S315200043E04FF48030FFF72AFE45E07B682C4A934243
S315200043F00AD101214FF40030FFF720FE00214FF4AF
S315200044000030FFF71BFE36E07B68264A93420AD12E
S3152000441001214FF48020FFF711FE00214FF4802068
S31520004420FFF70CFE27E07B681F4A934208D1012143
S315200044304020FFF7E3FD00214020FFF7DFFD1AE0D3
S315200044407B681A4A934208D101218020FFF7D6FDC6
S3152000445000218020FFF7D2FD0DE07B68144A9342AD
S3152000446009D101214FF48070FFF7C8FD00214FF4D8
S315200044708070FFF7C3FD00BF0837BD4680BD00BF73
S31520004480000001400004004000080040000C0040ED
S31520004490001000400014004000040140004001408C
S315200044A0004401400048014000180040001C004024
S315200044B00020004080B485B000AF786039600023CA
S315200044C0FB817B681B88FB817B68294A934213D03A
S315200044D07B68284A93420FD07B68B3F1804F0BD07C
S315200044E07B68254A934207D07B68244A934203D0AF
S315200044F07B68234A934208D1FB8923F07003FB8112
S315200045003B685A88FB891343FB817B681D4A93428B
S315200045100CD07B681C4A934208D0FB8923F4407355
S31520004520FB813B681A89FB891343FB817B68FA89E7
S315200045301A803B685A687B68DA623B681A887B680F
S315200045401A857B680A4A934203D07B68094A9342BC
S3152000455004D13B689B7A9AB27B681A867B680122D3
S315200045609A8200BF1437BD465DF8047B704700BFB2
S315200045700000014000040140000400400008004003
S31520004580000C0040001000400014004080B483B0AE
S3152000459000AF78607B684FF0FF325A607B6800225C
S315200045A01A807B6800221A817B6800225A807B68E9
S315200045B000229A7200BF0C37BD465DF8047B704717
S315200045C080B483B000AF78600B467B8013463B8077
S315200045D07B687A881A857B683A889A8200BF0C376E
S315200045E0BD465DF8047B704780B485B000AF786027
S315200045F00B467B800023FB817B681B88FB81FB8924
S3152000460023F07003FB81FA897B881343FB817B6847
S31520004610FA891A8000BF1437BD465DF8047B7047BF
S3152000462080B483B000AF786039607B683A685A629C
S3152000463000BF0C37BD465DF8047B704780B483B05D
S3152000464000AF786039607B683A68DA6200BF0C3761
S31520004650BD465DF8047B704780B483B000AF7860B8
S315200046607B685B6A18460C37BD465DF8047B70474D
S3152000467080B483B000AF78607B681B8D9BB21846F0
S315200046800C37BD465DF8047B704780B483B000AF1D
S3152000469078600B46FB70FB78002B08D07B681B8864
S315200046A09BB243F002039AB27B681A8007E07B68CC
S315200046B01B889BB223F002039AB27B681A8000BF44
S315200046C00C37BD465DF8047B704780B483B000AFDD
S315200046D078600B467B807B88002B08D07B681B8804
S315200046E09BB243F004039AB27B681A8007E07B688A
S315200046F01B889BB223F004039AB27B681A8000BF02
S315200047000C37BD465DF8047B704780B483B000AF9C
S3152000471078600B46FB70FB78002B08D07B681B88E3
S315200047209BB243F080039AB27B681A8007E07B68CD
S315200047301B889BB223F080039AB27B681A8000BF45
S315200047400C37BD465DF8047B704780B483B000AF5C
S3152000475078600B467B807B681B889BB223F008031E
S315200047609AB27B681A807B681B889AB27B8813432F
S315200047709AB27B681A8000BF0C37BD465DF8047B71
S31520004780704780B483B000AF78600B467B807B682F
S315200047901B889BB223F440739AB27B681A807B688D
S315200047A01B889AB27B8813439AB27B681A8000BF13
S315200047B00C37BD465DF8047B704780B483B000AFEC
S315200047C078600B46FB70FB78002B08D07B681B8833
S315200047D09BB243F001039AB27B681A8007E07B689C
S315200047E01B889BB223F001039AB27B681A8000BF14
S315200047F00C37BD465DF8047B704780B485B000AFAA
S315200048007860396000237B810023FB810023BB81F4
S315200048107B681B8C9BB223F001039AB27B681A84B7
S315200048207B681B8CFB817B689B88BB817B681B8B91
S315200048307B817B8923F070037B817B8923F00303B3
S315200048407B813B681A887B8913437B81FB8923F014
S315200048500203FB813B689A89FB891343FB813B68F2
S315200048605A88FB891343FB817B681F4A934203D0F6
S315200048707B681E4A934223D1FB8923F00803FB81E0
S315200048803B68DA89FB891343FB81FB8923F0040308
S31520004890FB813B689A88FB891343FB81BB8923F400
S315200048A08073BB81BB8923F40073BB813B681A8A62
S315200048B0BB891343BB813B685A8ABB891343BB819F
S315200048C07B68BA899A807B687A891A833B689A685A
S315200048D07B685A637B68FA891A8400BF1437BD4601
S315200048E05DF8047B704700BF0000014000040140D2
S315200048F080B485B000AF7860396000237B810023C7
S31520004900FB810023BB817B681B8C9BB223F01003A9
S315200049109AB27B681A847B681B8CFB817B689B8898
S31520004920BB817B681B8B7B817B8923F4E0437B8166
S315200049307B8923F440737B813B681B881B029AB2D8
S315200049407B8913437B81FB8923F02003FB813B6812
S315200049509B891B019AB2FB891343FB813B685B88C9
S315200049601B019AB2FB891343FB817B68224A93423F
S3152000497003D07B68214A93422BD1FB8923F0800305
S31520004980FB813B68DB891B019AB2FB891343FB81C0
S31520004990FB8923F04003FB813B689B881B019AB26D
S315200049A0FB891343FB81BB8923F48063BB81BB89CD
S315200049B023F40063BB813B681B8A9B009AB2BB89A8
S315200049C01343BB813B685B8A9B009AB2BB89134326
S315200049D0BB817B68BA899A807B687A891A833B680F
S315200049E09A687B689A637B68FA891A8400BF1437B1
S315200049F0BD465DF8047B704700000140000401407D
S31520004A0080B485B000AF7860396000237B810023B5
S31520004A10FB810023BB817B681B8C9BB223F48073B4
S31520004A209AB27B681A847B681B8CFB817B689B8887
S31520004A30BB817B689B8B7B817B8923F070037B8189
S31520004A407B8923F003037B813B681A887B89134388
S31520004A507B81FB8923F40073FB813B689B891B02C6
S31520004A609AB2FB891343FB813B685B881B029AB28F
S31520004A70FB891343FB817B68224A934203D07B68E0
S31520004A80214A93422BD1FB8923F40063FB813B68A7
S31520004A90DB891B029AB2FB891343FB81FB8923F432
S31520004AA08063FB813B689B881B029AB2FB89134378
S31520004AB0FB81BB8923F48053BB81BB8923F400533C
S31520004AC0BB813B681B8A1B019AB2BB891343BB81FE
S31520004AD03B685B8A1B019AB2BB891343BB817B6807
S31520004AE0BA899A807B687A899A833B689A687B68B8
S31520004AF0DA637B68FA891A8400BF1437BD465DF8ED
S31520004B00047B7047000001400004014080B485B05A
S31520004B1000AF786039600023BB8100237B810023AE
S31520004B20FB817B681B8C9BB223F480539AB27B68F3
S31520004B301A847B681B8C7B817B689B88FB817B68C6
S31520004B409B8BBB81BB8923F4E043BB81BB8923F4C8
S31520004B504073BB813B681B881B029AB2BB891343F7
S31520004B60BB817B8923F400537B813B689B891B0394
S31520004B709AB27B8913437B813B685B881B039AB27D
S31520004B807B8913437B817B68124A934203D07B68DF
S31520004B90114A93420AD1FB8923F48043FB813B6867
S31520004BA01B8A9B019AB2FB891343FB817B68FA8996
S31520004BB09A807B68BA899A833B689A687B681A646C
S31520004BC07B687A891A8400BF1437BD465DF8047B5A
S31520004BD0704700BF000001400004014080B483B04C
S31520004BE000AF78607B6800221A807B6800225A809A
S31520004BF07B6800229A807B6800229A607B6800226C
S31520004C009A817B680022DA817B6800221A827B687F
S31520004C1000225A8200BF0C37BD465DF8047B7047E0
S31520004C2080B485B000AF78600B467B8013463B800E
S31520004C300023FB6000237B817B68FB60FB681833C5
S31520004C40FB607B88012202FA03F37B817B681B8C45
S31520004C509AB27B89DB439BB213409AB27B681A8453
S31520004C607B88002B02D07B88082B14D17B885B089D
S31520004C709BB21A46FB681344FB60FB681968FA6806
S31520004C804FF68F730B401360FB6819683A88FB68F0
S31520004C900A431A6019E07B88043B9BB25B089BB2EF
S31520004CA01A46FB681344FB60FB681968FA6848F6E5
S31520004CB0FF730B401360FB681A683B881B029BB28C
S31520004CC01946FB680A431A6000BF00BF1437BD4669
S31520004CD05DF8047B704780B483B000AF786039609C
S31520004CE07B683A685A6300BF0C37BD465DF8047B83
S31520004CF0704780B483B000AF786039607B683A68CB
S31520004D009A6300BF0C37BD465DF8047B704780B4BC
S31520004D1083B000AF786039607B683A68DA6300BF99
S31520004D200C37BD465DF8047B704780B483B000AF76
S31520004D30786039607B683A681A6400BF0C37BD46D4
S31520004D405DF8047B704780B485B000AF78600B4671
S31520004D507B800023FB817B681B8BFB81FB8923F0F7
S31520004D607003FB81FA897B881343FB817B68FA8970
S31520004D701A8300BF1437BD465DF8047B704780B4A4
S31520004D8085B000AF78600B467B800023FB817B6873
S31520004D901B8BFB81FB8923F4E043FB817B881B0271
S31520004DA09AB2FB891343FB817B68FA891A8300BF79
S31520004DB01437BD465DF8047B704780B485B000AFDC
S31520004DC078600B467B800023FB817B689B8BFB8175
S31520004DD0FB8923F07003FB81FA897B881343FB81CF
S31520004DE07B68FA899A8300BF1437BD465DF8047B39
S31520004DF0704780B485B000AF78600B467B80002377
S31520004E00FB817B689B8BFB81FB8923F4E043FB8141
S31520004E107B881B029AB2FB891343FB817B68FA8944
S31520004E209A8300BF1437BD465DF8047B704780B473
S31520004E3085B000AF78600B467B800023FB817B68C2
S31520004E401B8BFB81FB8923F00803FB81FA897B8876
S31520004E501343FB817B68FA891A8300BF1437BD464A
S31520004E605DF8047B704780B485B000AF78600B4650
S31520004E707B800023FB817B681B8BFB81FB8923F4D2
S31520004E800063FB817B881B029AB2FB891343FB815B
S31520004E907B68FA891A8300BF1437BD465DF8047B08
S31520004EA0704780B485B000AF78600B467B800023C6
S31520004EB0FB817B689B8BFB81FB8923F00803FB81AD
S31520004EC0FA897B881343FB817B68FA899A8300BF22
S31520004ED01437BD465DF8047B704780B485B000AFBB
S31520004EE078600B467B800023FB817B689B8BFB8154
S31520004EF0FB8923F40063FB817B881B029AB2FB8922
S31520004F001343FB817B68FA899A8300BF1437BD4619
S31520004F105DF8047B704780B485B000AF78600B469F
S31520004F207B800023FB817B681B8BFB81FB8923F025
S31520004F300403FB81FA897B881343FB817B68FA890A
S31520004F401A8300BF1437BD465DF8047B704780B4D2
S31520004F5085B000AF78600B467B800023FB817B68A1
S31520004F601B8BFB81FB8923F48063FB817B881B02DF
S31520004F709AB2FB891343FB817B68FA891A8300BFA7
S31520004F801437BD465DF8047B704780B485B000AF0A
S31520004F9078600B467B800023FB817B689B8BFB81A3
S31520004FA0FB8923F00403FB81FA897B881343FB8169
S31520004FB07B68FA899A8300BF1437BD465DF8047B67
S31520004FC0704780B485B000AF78600B467B800023A5
S31520004FD0FB817B689B8BFB81FB8923F48063FB81B0
S31520004FE07B881B029AB2FB891343FB817B68FA8973
S31520004FF09A8300BF1437BD465DF8047B704780B4A2
S3152000500085B000AF78600B467B800023FB817B68F0
S315200050101B8BFB81FB8923F08003FB81FA897B882C
S315200050201343FB817B68FA891A8300BF1437BD4678
S315200050305DF8047B704780B485B000AF78600B467E
S315200050407B800023FB817B681B8BFB81FB89C3F361
S315200050500E03FB817B881B029AB2FB891343FB81DB
S315200050607B68FA891A8300BF1437BD465DF8047B36
S31520005070704780B485B000AF78600B467B800023F4
S31520005080FB817B689B8BFB81FB8923F08003FB8163
S31520005090FA897B881343FB817B68FA899A8300BF50
S315200050A01437BD465DF8047B704780B485B000AFE9
S315200050B078600B467B800023FB817B689B8BFB8182
S315200050C0FB89C3F30E03FB817B881B029AB2FB8903
S315200050D01343FB817B68FA899A8300BF1437BD4648
S315200050E05DF8047B704780B485B000AF78600B46CE
S315200050F07B800023FB817B681B8CFB81FB8923F053
S315200051000203FB81FA897B881343FB817B68FA893A
S315200051101A8400BF1437BD465DF8047B704780B4FF
S3152000512085B000AF78600B467B800023FB817B68CF
S315200051301B8CFB81FB8923F00803FB81FA897B8882
S315200051401343FB817B68FA891A8400BF1437BD4656
S315200051505DF8047B704780B485B000AF78600B465D
S315200051607B800023FB817B681B8CFB81FB8923F0E2
S315200051702003FB817B881B019AB2FB891343FB81A9
S315200051807B68FA891A8400BF1437BD465DF8047B14
S31520005190704780B485B000AF78600B467B800023D3
S315200051A0FB817B681B8CFB81FB8923F08003FB81C1
S315200051B07B881B019AB2FB891343FB817B68FA89A2
S315200051C01A8400BF1437BD465DF8047B704780B44F
S315200051D085B000AF78600B467B800023FB817B681F
S315200051E01B8CFB81FB8923F40073FB817B881B02CC
S315200051F09AB2FB891343FB817B68FA891A8400BF24
S315200052001437BD465DF8047B704780B485B000AF87
S3152000521078600B467B800023FB817B681B8CFB819F
S31520005220FB8923F40063FB817B881B029AB2FB89EE
S315200052301343FB817B68FA891A8400BF1437BD4665
S315200052405DF8047B704780B485B000AF78600B466C
S315200052507B800023FB817B681B8CFB81FB8923F4ED
S315200052600053FB817B881B039AB2FB891343FB8186
S315200052707B68FA891A8400BF1437BD465DF8047B23
S31520005280704780B485B000AF78600B467B801346AC
S315200052903B800023FB817B88012202FA03F3FB81FA
S315200052A07B681B8C9AB2FB89DB439BB213409AB274
S315200052B07B681A847B681B8C9AB239887B8801FAB2
S315200052C003F39BB213439AB27B681A8400BF143748
S315200052D0BD465DF8047B704780B485B000AF78602A
S315200052E00B467B8013463B800023FB817B88042270
S315200052F002FA03F3FB817B681B8C9AB2FB89DB43A2
S315200053009BB213409AB27B681A847B681B8C9AB234
S3152000531039887B8801FA03F39BB213439AB27B68E0
S315200053201A8400BF1437BD465DF8047B704780B5EC
S3152000533082B000AF786039603B681B88002B0FD1A4
S315200053403B6859883B689A883B681B89786800F0D7
S31520005350B7FC3B68DB881946786800F0E1F836E050
S315200053603B681B88042B0FD13B6859883B689A8879
S315200053703B681B89786800F0E6FC3B68DB881946A9
S31520005380786800F0E9F822E03B681B88082B0FD1EB
S315200053903B6859883B689A883B681B89786800F087
S315200053A01FFD3B68DB881946786800F0F3F80EE0AD
S315200053B03B6859883B689A883B681B89786800F067
S315200053C057FD3B68DB881946786800F0FFF800BF78
S315200053D00837BD4680BD80B483B000AF78607B6857
S315200053E000221A807B6800225A807B6801229A80DC
S315200053F07B680022DA807B6800221A8100BF0C3786
S31520005400BD465DF8047B704780B584B000AF7860F8
S3152000541039600023FB810123BB813B685B88002B1D
S3152000542002D10223FB8101E00023FB813B689B889C
S31520005430012B02D10223BB8101E00123BB813B6802
S315200054401B88002B1CD13B6859883B689A883B688F
S315200054501B89786800F034FC3B68DB88194678683D
S3152000546000F05EF83B681B89BA89F989786800F0F4
S315200054706AFC3B68DB881946786800F06DF81BE00B
S315200054803B6859883B689A883B681B89786800F096
S315200054905AFC3B68DB881946786800F05DF83B6863
S315200054A01B89BA89F989786800F00AFC3B68DB8891
S315200054B01946786800F034F800BF1037BD4680BD25
S315200054C080B483B000AF78607B685B6B18460C377E
S315200054D0BD465DF8047B704780B483B000AF78602A
S315200054E07B689B6B18460C37BD465DF8047B70477E
S315200054F080B483B000AF78607B68DB6B18460C37CE
