S01600002E2F44656275672F5254532D4C61622E73313936
S3152000000000BFDFF814D003F04AFB02F0CBFA03F06E
S3152000001058BBFEE700BF000000C00120314900E0C8
S315200000203149EFF3088020ED108A7246EFF31183F1
S3152000003020E9FC0F2D4FD7F80080C8F800001EE0FD
S31520000040084600F0A9F82A4800F0A6F8294800F04A
S31520000050A3F8D8F8040000F0EBF8274800F09CF845
S31520000060D8F8000000F0B5F8244800F095F8D8F844
S315200000700000006800F0ADF81D4800F08DF8DFF8AC
S315200000808080D8F80080C7F8008018E01D4800F06E
S3152000009083F8D8F8040000F0CBF81B4800F07CF871
S315200000A0D8F8000000F095F8144800F075F8D8F854
S315200000B00000006800F08DF80D4800F06DF8134A36
S315200000C0536843F00063536000BFD8F80000B0E8DF
S315200000D0FC0F83F311889646B0EC108A80F30888CB
S315200000E0704700001897002029970020BC97002011
S315200000F0999700204A970020629700206A9700204F
S315200001006C9E0020739700208897002000ED00E069
S3152000011080B483B000AF0346FB71FB7903F01F0365
S31520000120012202FA03F1064A97F907305B0942F8E1
S31520000130231000BF0C37BD465DF8047B704700BF17
S3152000014000E100E080B483B000AF03463960FB7164
S3152000015097F90730002B0BDA3B68DAB20C49FB79AA
S3152000016003F00F03043B1201D2B20B441A7609E0C6
S315200001703B68DAB2074997F907301201D2B20B442D
S3152000018083F8002300BF0C37BD465DF8047B70471B
S3152000019000ED00E000E100E080B582B000AF7860BD
S315200001A00EE07B681B780D2B07D07B685A1C7A6083
S315200001B01B78184600F060F902E07B6801337B600B
S315200001C07B681B78002BECD100BF00BF0837BD46EB
S315200001D080BD80B586B000AF786000237B617B68E8
S315200001E003F00F027B69591C796110498A5C07F17B
S315200001F018010B4403F80C2C7B681B097B607B6879
S31520000200002BECD10AE07B69013B7B6107F10C02F4
S315200002107B6913441B78184600F02EF97B69002B66
S31520000220F1D100BF00BF1837BD4680BD9C97002086
S3152000023080B59EB000AF78607B68002B02DA4FF065
S31520000240FF3300E001233B677B683A6F02FB03F331
S315200002507B6000237B6779681C4B83FB01239A1004
S31520000260CB17D21A13469B0013445B00CA1A7B6F26
S31520000270591C796716498A5C07F178010B4403F803
S315200002806C2C7B68114A82FB03129210DB17D31A5F
S315200002907B607B68002BDED13B6F002B0EDA2D2096
S315200002A000F0EAF80AE07B6F013B7B6707F10C025E
S315200002B07B6F13441B78184600F0DEF87B6F002B0B
S315200002C0F1D100BF00BF7837BD4680BD6766666640
S315200002D09C97002080B483B000AF10237B607B689E
S315200002E083F3118800BF00BF0C37BD465DF8047B41
S315200002F0704780B483B000AF30237B607B6883F384
S31520000300118800BF00BF0C37BD465DF8047B7047DF
S3152000031080B584B000AF78600B48FFF73DFF0B4BEC
S315200003201B68002B02D1094B094A1A60074B1B6830
S31520000330FB60064B1A687B681344044A1360FB680B
S3152000034018461037BD4680BDD8910020B0A10020A8
S31520000350C821012080B485B000AF786039603B6841
S3152000036003F5F95310337A6813607B681B68BB600A
S315200003700023FB600AE0FB689B001A46BB68134417
S315200003801A4600231360FB680133FB60FB68332B9E
S31520000390F1DDBB686FF016021A60BB6804331A469B
S315200003A003231360BB6884331A464FF080731360AF
S315200003B000BF1437BD465DF8047B704780B485B016
S315200003C000AF786039607B681B688033FB60FB6810
S315200003D03A681A6000BF1437BD465DF8047B704743
S315200003E080B584B000AF1D4804F062FC3B1D184662
S315200003F004F0AAFD40F24733BB803B1D194617483F
S3152000040004F036FD164B174A1A6002216FF00100E0
S31520000410FFF798FE144B154A1A6000216FF004006E
S31520000420FFF790FE124B134A1A6002213220FFF783
S3152000043089FE3220FFF76CFE0021084804F0CEFD2D
S315200004400121064804F097FE01220221034805F007
S3152000045066FE00BF1037BD4680BD00BF000C0040C1
S3152000046038C00120210000202CC001201D000020C2
S3152000047008C10120FF07002080B582B000AF0346E7
S31520000480FB71FB799BB21946074802F0FAFC00BFC4
S315200004908021054802F0E4FE0346002BF8D000BF79
S315200004A000BF0837BD4680BD0010014080B500AFB3
S315200004B0124804F0AFFD03461A46114B1A60114B41
S315200004C001221A60104B00221A60104B1B68002B69
S315200004D006D00E4B1B680E4A12680021104698471C
S315200004E0084B00221A60084B1B68002B01D000F035
S315200004F05DFA054B00221A6000BF80BD000C00404B
S31520000500509E0020489E00204C9E0020C09E002029
S31520000510609E002080B500AF124804F07BFD0346A4
S315200005201A46114B1A60114B01221A60104B0022F9
S315200005301A60104B5B68002B06D00E4B5B680E4A88
S315200005405268012110469847084B00221A60084B32
S315200005501B68002B01D000F029FA054B00221A60F7
S3152000056000BF80BD000C0040509E0020489E002009
S315200005704C9E0020C09E0020609E002080B500AFCB
S31520000580124804F047FD03461A46114B1A60114BD8
S3152000059001221A60104B00221A60104B9B68002B18
S315200005A006D00E4B9B680E4A926802211046984749
S315200005B0084B00221A60084B1B68002B01D000F064
S315200005C0F5F9054B00221A6000BF80BD000C0040E3
S315200005D0509E0020489E00204C9E0020C09E002059
S315200005E0609E002080B485B000AF7860396000231B
S315200005F0FB603B681B68BB6004E0BB68FB60BB68B4
S315200006001B68BB60BB68002B05D0BB689A687B68FB
S315200006109B689A42F1DD7B68BA681A60FB68002BFA
S3152000062003D13B687A681A6002E0FB687A681A6030
S3152000063000BF1437BD465DF8047B704780B485B093
S3152000064000AF786039600023FB603B681B68BB60A5
S3152000065004E0BB68FB60BB681B68BB60BB68002B03
S3152000066005D0BB685A687B685B689A42F1DD7B6877
S31520000670BA681A60FB68002B03D13B687A681A6057
S3152000068002E0FB687A681A6000BF1437BD465DF841
S31520000690047B704780B584B000AF78607B681B68A8
S315200006A0FB60FB68002B04D0FB681A687B681A6025
S315200006B00CE00948FFF770FD00220221074803F0ED
S315200006C0F4F90748FFF768FD30BFFDE7FB681846D9
S315200006D01037BD4680BD00BFF091002000040240C7
S315200006E0FC91002080B584B000AF78607B681B68E1
S315200006F0FB60FB68002B04D0FB681A687B681A60D5
S315200007000CE00948FFF748FD00220221074803F0C4
S31520000710CCF90748FFF740FD30BFFDE7FB681846D8
S315200007201037BD4680BD00BFF09100200004024076
S315200007300892002080B483B000AF786039603B68AF
S315200007401A687B681A603B687A681A6000BF0C37A3
S31520000750BD465DF8047B704780B483B000AF7860F7
S3152000076039603B681A687B689A603B687A681A60C9
S3152000077000BF0C37BD465DF8047B704780B485B05A
S3152000078000AF78607B681B68FB60FB689A687B68B3
S315200007901A60FB6818461437BD465DF8047B70471F
S315200007A080B485B000AF786039600023FB603B6879
S315200007B01B68BB6004E0BB68FB60BB681B68BB6052
S315200007C0BB68002B03D0BA687B689A42F3D1BB681A
S315200007D0002B0DD0FB68002B04D0BB681A68FB6881
S315200007E01A6003E0BB681A683B681A60012300E0C0
S315200007F0002318461437BD465DF8047B704780B544
S3152000080082B000AF02211E4805F013FD1C4804F0FB
S3152000081001FC03467B6007E01A48FFF73BFF0346CF
S3152000082019491846FFF7DEFE164B1B68002B06D02B
S31520000830144B1B685A687B68D31A002BECDD114BCE
S315200008401B68002B16D00E4804F0E4FB03463B60E1
S315200008500C4B1B685B683A689A4204DD0022022131
S315200008600A4803F022F9074B1B685B6819460448BF
S3152000087004F00FFF00F09AF800BF0837BD4680BD90
S31520000880000C0040449E0020409E002000040240B0
S315200008900346024A136010DFF74600BF6C9E002015
S315200008A00346054A1360054B5B68044A43F08053B0
S315200008B05360F74600BF00BF6C9E002000ED00E0AD
S315200008C080B582B000AF7860094B5B68C3F308033C
S315200008D0002B03D17868FFF7DBFF02E07868FFF78B
S315200008E0DFFFFFF706FD00BF0837BD4680BD00BF0E
S315200008F000ED00E090B585B000AF234B1C6823487F
S31520000900FFF7C8FE0346E360E368BB60FFF7F1FC30
S31520000910BB68D868BB681969BB685B691A4600F072
S3152000092015F9FFF7D7FC1A49B868FFF703FF194BEB
S315200009301B689B68DB687B60144B1B68002B0AD006
S315200009407B68002BD9D0114B1B689A687B689B6803
S31520000950D31A002BD1DD0F48FFF710FF03460E49AF
S315200009601846FFF7F9FE0B4B1B68FB6003E0FB689C
S315200009701B691B68FB60FB681B69002BF7D1F868B5
S31520000980FFF79EFFB9E700BFBC970020409E0020DE
S31520000990B0970020B8970020B497002080B500AF0C
S315200009A000F004F8FFF7A5FC30BFFBE780B582B066
S315200009B000AF144B1B68DB687B60134B1B68002B56
S315200009C01BD0124B1B68002B17D07B68002B07D03F
S315200009D00D4B1B689A687B689B68D31A002B0CDA30
S315200009E00A48FFF7CBFE034606491846FFF7B4FE32
S315200009F0044B1B681846FFF763FF00BF0837BD4648
S31520000A0080BD00BFB8970020409E0020B4970020EC
S31520000A1080B588B000AFF860B9607A603B60EFF3CC
S31520000A2012833B613B691B09012B14BF0123002361
S31520000A30DBB2FB77FFF74EFC3A48FFF753FEB8616F
S31520000A40BB697A68DA60BB693A681A61BB69BA6AB7
S31520000A505A61354B1B68002B04D1344B1B68DB686D
S31520000A605B6801E0324B1B68FA681A44BB695A601E
S31520000A70BB695A68BB68002B01DDBB6801E06FF0DB
S31520000A8000431A44BB699A602A4804F0C3FA034615
S31520000A907B61BB695A687B69D31A002B16DD264910
S31520000AA0B869FFF7CBFD244B1B685B687A699A42CD
S31520000AB004DD00220221214802F0F7FF1E4B1B68AD
S31520000AC05B6819461B4804F0E4FD21E01C49B8691F
S31520000AD0FFF788FDFB7F002B1AD01A4B1B68002BD3
S31520000AE016D0174B1B689A68174B1B68DB689B68E8
S31520000AF0D31A002B0CDA1348FFF740FE034612499F
S31520000B001846FFF729FE104B1B681846FFF7D8FE3C
S31520000B10FB7F002B01D0FFF7ECFBBB691846203783
S31520000B20BD4680BDB0970020489E0020BC9700207F
S31520000B30509E0020000C0040449E002000040240ED
S31520000B40409E0020B4970020B897002080B588B03A
S31520000B5000AFF860B9607A60EFF312833B613B69BE
S31520000B601B09012B14BF01230023DBB2FB76FFF701
S31520000B70B1FBFB681B68FB61FB69002B37D003E0E8
S31520000B80FB691B691B68FB61FB691B69002BF7D19D
S31520000B90304B1B68FA699A4202D0FB7E002B07D1A4
S31520000BA0FB7E002B01D0FFF7A4FB4FF0FF334DE077
S31520000BB0FB685B68002B03D0FB685B6800221A6128
S31520000BC0244B1A68FB685A60224B1B68FA681A6124
S31520000BD0F869FFF775FE1F4B1B68DB68002B06D1F3
S31520000BE0FB7E002B01D0FFF784FB00232EE0194B60
S31520000BF01A68FB681A60FB7E002B05D0FB685B68D1
S31520000C00012B01D0FFF775FBBB687968F868984718
S31520000C107861FFF75FFBFB6800221A60FB685B6860
S31520000C20FB61FB69002B0BD0FB69012B08D0FB680D
S31520000C3000225A60FB6900221A61F869FFF740FE1C
S31520000C40FB7E002B01D0FFF754FB7B69184620372B
S31520000C50BD4680BDBC97002080B586B000AF7860C9
S31520000C60EFF31283FB60FB681B09012B14BF0123E2
S31520000C700023DBB2FB74FFF72DFB1F497868FFF7D3
S31520000C808FFD0346002B06D11C497868FFF788FDA7
S31520000C900346002B04D01A497868FFF74BFD21E064
S31520000CA0184B1B687B611AE0174B1B687A699A42BE
S31520000CB012D07B69DB687A689A420DD17B691A6902
S31520000CC07B68DB689A4207D17B690022DA600C498F
S31520000CD07868FFF72FFD05E07B699B687B617B6960
S31520000CE0002BE1D1FB7C002B01D0FFF702FB00BFDC
S31520000CF01837BD4680BD00BF449E0020409E002080
S31520000D00B0970020B8970020BC97002080B485B00B
S31520000D1000AF7860EFF31283FB60FB681B09012BA1
S31520000D2004D0074B1B68DB685B6801E0054B1B683A
S31520000D307A68136000BF1437BD465DF8047B7047A0
S31520000D40BC970020509E002080B485B000AF78600C
S31520000D50EFF31283FB60FB681B09012B04D0084BC1
S31520000D601B68DB685B6801E0064B1B687A681268C3
S31520000D709B1A18461437BD465DF8047B704700BFA2
S31520000D80BC970020509E002080B584B000AFEFF3C2
S31520000D9012837B607B681B09012B14BF0123002370
S31520000DA0DBB2FB73FFF796FA0C4804F033F90346DF
S31520000DB0BB60FB7B002B01D0FFF79BFAFB7B002B54
S31520000DC004D0074B1B68DB685B6801E0054B1B689A
S31520000DD0BA68D31A18461037BD4680BD000C0040AD
S31520000DE0BC970020509E002080B582B000AF002323
S31520000DF07B6012E07B685A1C13465B001344DB00C1
S31520000E00444A991843487A6813465B001344DB002A
S31520000E10034419607B6801337B607B681C2BE9DD0A
S31520000E203C4B0022C3F8B82200237B6013E07B688A
S31520000E305A1C13469B0013449B00374A9918364880
S31520000E407A6813469B0013449B00034408331960B9
S31520000E507B6801337B607B68022BE8DD2E4B00220A
S31520000E605A6400237B6030E02B497A6813469B0046
S31520000E7013449B000B4404337A681A607A6813463D
S31520000E809B0013449B00244A1A447B685B03234936
S31520000E900B4419461046FFF75DFA7A6813469B0005
S31520000EA013449B001C4A13441D491846FFF786FA33
S31520000EB019497A6813469B0013449B000B44103350
S31520000EC000221A607B6801337B607B68032BCBDDB5
S31520000ED0144B4FF0FF325A60124B00229A60114B8E
S31520000EE000221A610F4B0022DA600F48FFF754F9EF
S31520000EF00E48FFF751F90E48FFF74EF90A48FFF75B
S31520000F004BF90948FFF748F9FFF76AFA00BF083797
S31520000F10BD4680BDE09E0020709E0020B8A1002026
S31520000F20F5080020CC9E0020149200201892002064
S31520000F302492002080B586B000AFF860B9601346D1
S31520000F40FB71FB79022B41D8EFF312833B613B699E
S31520000F501B09012B14BF01230023DBB2FB75FFF70E
S31520000F60B9F9FB79022B0ED0022B10DC002B02D014
S31520000F70012B04D00BE0174B174A1A6014E0174BCD
S31520000F80174A1A6010E0174B174A1A600CE01748E8
S31520000F90FFF702F900220221154802F086FD1548C6
S31520000FA0FFF7FAF830BFFDE7FB791349FA6841F8F5
S31520000FB02320FB791149BA6841F82320FB680122D6
S31520000FC05A60FB7D002B01D0FFF793F900BF18373D
S31520000FD0BD4680BDD4C00120AD04002090C00120B4
S31520000FE0150500209CC001207D050020F0910020E1
S31520000FF0000402403C920020609E0020C09E0020FB
S3152000100080B586B002AFF860B9607A60FFF762F902
S31520001010FFF7EAFEBB68002B16D00F4803F0FAFF55
S3152000102003461A460D4B1A600D4B01221A607B6847
S315200010300093BB68FA6800210020FFF7E9FC084B03
S3152000104000221A60FFF7B2FCFFF7A8FC002318461F
S315200010501037BD4680BD00BF000C0040509E0020CA
S31520001060489E002080B483B000AF0346FB71FB7915
S3152000107003F01F03012202FA03F1064A97F907300B
S315200010805B0942F8231000BF0C37BD465DF8047B90
S31520001090704700BF00E100E080B483B000AF034694
S315200010A03960FB7197F90730002B0BDA3B68DAB20F
S315200010B00C49FB7903F00F03043B1201D2B20B4417
S315200010C01A7609E03B68DAB2074997F90730120128
S315200010D0D2B20B4483F8002300BF0C37BD465DF81F
S315200010E0047B704700ED00E000E100E080B582B0AF
S315200010F000AF786039607B6800229A617B689A69C4
S315200011007B685A617B685A697B68DA61012240F202
S3152000111025510A4802F05CF8002240F22771074860
S3152000112002F056F802212520FFF7B6FF2520FFF70B
S3152000113099FF00BF0837BD4680BD00BF00100140A3
S3152000114080B483B000AF78600B46FB707B68DB69A8
S31520001150B3F5806F17DA7B685B697A681344FA788F
S3152000116083F820207B685B6901335A42C3F3090365
S31520001170C2F3090258BF53427A6853617B68DB6920
S315200011805A1C7B68DA6100BF0C37BD465DF8047BCC
S31520001190704780B582B000AF786039607B68DB69C4
S315200011A0002B18D17B689B68012240F227711846D4
S315200011B002F00EF80FE03B681B780A2B03D10D21B5
S315200011C07868FFF7BDFF3B685A1C3A601B781946C2
S315200011D07868FFF7B5FF3B681B78002BEBD100BF83
S315200011E000BF0837BD4680BD80B582B000AF7860AD
S315200011F039607B68DB69002B07D17B689B680122FD
S3152000120040F22771184601F0E3FF3B68DBB219462E
S315200012107868FFF795FF00BF0837BD4680BD80B5CB
S3152000122086B002AF786039607B689B6820211846BB
S3152000123002F016F80346012B18D17B689B681846E6
S3152000124001F031FE0346FB607B68DB68002B0DD086
S315200012507B68DA687B681969FB6800930B46002176
S315200012600020FFF7D5FB234B01221A607B689B6881
S315200012708021184601F0F4FF0346012B35D17B6807
S31520001280DB69002B29DD7B6898687B689B697A6817
S31520001290134493F820309BB2194601F0F2FD7B6887
S315200012A09B6901335A42C3F30903C2F3090258BFAB
S315200012B053427A6893617B68DB695A1E7B68DA61E0
S315200012C07B68DB69002B10D17B689B68002240F28B
S315200012D02771184601F07CFF07E07B689B68002297
S315200012E040F22771184601F073FF00231846103785
S315200012F0BD4680BD4C9E002080B500AF01214FF435
S31520001300804003F079FB00214FF4804003F074FB0A
S3152000131000BF80BD80B483B000AF0346FB71044A92
S31520001320FB79136000BF0C37BD465DF8047B704720
S315200013300038014080B483B000AF0346FB71044AF5
S31520001340FB79136000BF0C37BD465DF8047B704700
S315200013502000274280B485B000AF03460A46FB71C1
S315200013601346BB710023FB60BB7903F003039B008C
S315200013700F2202FA03F3FB60164ABB799B08DBB205
S31520001380023352F82320FB68DB431248B9798908D7
S31520001390C9B21A408B1C40F823200E4ABB799B0801
S315200013A0DBB2023352F82320F979BB7903F0030329
S315200013B09B0001FA03F30748B9798908C9B21A4391
S315200013C08B1C40F8232000BF1437BD465DF8047BF4
S315200013D0704700BF0038014080B483B000AF78600A
S315200013E0044A7B68136000BF0C37BD465DF8047B5A
S315200013F0704700BFDC00274280B483B000AF0346AD
S31520001400FB71044AFB79136000BF0C37BD465DF8BB
S31520001410047B70470004274280B483B000AF0023CA
S31520001420FB71094B1B6A03F48073002B02D0012346
S31520001430FB7101E00023FB71FB7918460C37BD4692
S315200014405DF8047B704700BF0038014080B483B04C
S3152000145000AF0346FB71FB7903F01F03012202FA5A
S3152000146003F1064A97F907305B0942F8231000BFBB
S315200014700C37BD465DF8047B704700BF00E100E0F5
S3152000148080B483B000AF03463960FB7197F907300B
S31520001490002B0BDA3B68DAB20C49FB7903F00F0319
S315200014A0043B1201D2B20B441A7609E03B68DAB249
S315200014B0074997F907301201D2B20B4483F800236B
S315200014C000BF0C37BD465DF8047B704700ED00E099
S315200014D000E100E080B582B000AF7860396000227C
S315200014E00121074802F0E1FA02211720FFF7C8FF81
S315200014F01720FFF7ABFF00BF0837BD4680BD00BFF2
S315200015000004024080B582B000AF786039607B6805
S315200015109B688021184602F05CFA03461846083775
S31520001520BD4680BD80B582B000AF786039607B68EB
S315200015309B683A68D2B20121184602F0B6FA00BF7B
S315200015400837BD4680BD80B582B000AF786039606F
S315200015507B689B680121184602F0CEFA00BF083747
S31520001560BD4680BD80B584B000AF7860396007F194
S315200015700803184606F010FB8023BB6000233B734C
S315200015803B68002B01D0082300E00C237B7301234A
S31520001590BB7307F10803184606F08CFA00BF103714
S315200015A0BD4680BD80B584B002AF786039608020AA
S315200015B006F044FB0346012B14D1802006F058FB8D
S315200015C07B68DB68002B10D07B68DA687B681B6938
S315200015D00021009100210020FFF71AFA054B012275
S315200015E01A6002E00448FEF7D7FD002318460837A4
S315200015F0BD4680BD4C9E00205C92002080B584B004
S3152000160000AF7860396000220F491048FFF79EFA34
S31520001610F8607B6888331846FFF796FBB8607B68CE
S31520001620D3F89430BA68D31A094A934208DDFB6886
S31520001630002B05D1074B1A4607490848FFF786FABB
S3152000164000BF1037BD4680BD05150020409D0020F7
S315200016509F860100E493002093110020209900200A
S31520001660B0B5BAB000AF786039600023C7F8E4306F
S315200016707B68DB6F022B0CDC7B68DA6F7B681C32A5
S31520001680396843F822107B68DB6F5A1C7B68DA675F
S3152000169015E07B683A681A670023C7F8E0307B6854
S315200016A01B6FC7F8E0307B685A6F7B681A677B68C8
S315200016B09A6F7B685A677B68D7F8E0209A677B68C1
S315200016C0DB6F032B40F0A1807B681A6F7B685B6F12
S315200016D0D31A504A9342C0F298807B681A6F7B686F
S315200016E05B6FD31A42F20F72934200F38E807B68AF
S315200016F01A6F7B689B6FD31A464A9342C0F2858045
S315200017007B681A6F7B689B6FD31A42F20F729342E3
S315200017107BDC7B689A6F7B685B6FD31A3D4A93426A
S3152000172073DB7B689A6F7B685B6FD31A42F20F720A
S3152000173093426ADC7B681A6F7B685B6F1A447B680E
S315200017409B6F1344344A82FB0312DB17D31AC7F864
S31520001750DC30D7F8DC30314A82FB03125213DB1718
S31520001760D31A184606F0E6FB04460D46D7F8DC20C9
S315200017702A4B83FB02135913D317CB1A284901FB93
S3152000178003F3D31A274A82FB03125211DB17D31A0B
S3152000179007EE903AF8EEE77A17EE900A06F0DCFBB1
S315200017A04FF00002204B06F059FD02460B4620461C
S315200017B0294606F073FA02460B461046194606F0ED
S315200017C035FE0346C7F8D830DFED186A97ED367A2E
S315200017D0C6EE877AFDEEE77A17EE903AC7F8D43050
S315200017E007F10C00D7F8D430114AC82106F0F8FECC
S315200017F007F10C031A460F490F48FFF7A7F9D7F848
S31520001800D4200E490E48FFF7A1F900BFE837BD46A0
S31520001810B0BD00BFF1D8FFFF5655555589B5F81410
S31520001820A08601001F85EB5100408F4000007042CA
S31520001830009400209311002020990020F5200020FC
S315200018400499002080B5C2B002AF78603B4619608B
S315200018507B68D3F89830002B2BD17B6888331846C9
S31520001860FFF772FAC7F8D8007B68D3F89430D7F818
S31520001870D820D31AC7F8D4307B68D7F8D420C3F839
S315200018809C207B68D7F8D820C3F894207B68012257
S31520001890C3F89820012279497948FFF757F90023A0
S315200018A00093784B7A6841F288317748FFF7B0F891
S315200018B0DFE07B6888331846FFF746FAC7F8FC0056
S315200018C07B68D3F89430D7F8FC20D31AC7F8F830C1
S315200018D0D7F8F8306D4A934269DC7B68D3F89C30A0
S315200018E0C7F8F830D7F8F83042F20F7293420FDC7F
S315200018F0674B1A4667496848FFF728F97B68002234
S31520001900C3F8982000225D495D48FFF71FF9B0E033
S31520001910D7F8F830614A82FB03125113DA178A1A74
S31520001920594901FB02F29A1A13469B0013445B00A5
S31520001930C7F8E430D7F8F820584B83FB0213591325
S31520001940D317CB1A504901FB03F3D31A544A82FB0F
S3152000195003125211DB17D31AC7F8E030D7F8F83044
S315200019604E4A82FB03125213DB17D31AC7F8DC3018
S3152000197007F10C00D7F8E4300193D7F8E030009354
S31520001980D7F8DC30474AC82106F02AFED7F8F830C7
S315200019900093454B7A6800210020FFF739F807F1BC
S315200019A00C031A463B493C48FFF7D0F858E0D7F8D5
S315200019B0F8303A4A82FB03125113DA178A1A32494F
S315200019C001FB02F29A1A13469B0013445B00C7F8E8
S315200019D0F430D7F8F820314B83FB02135913D31771
S315200019E0CB1A294901FB03F3D31A2D4A82FB031292
S315200019F05211DB17D31AC7F8F030D7F8F830274A38
S31520001A0082FB03125213DB17D31AC7F8EC3007F107
S31520001A100C00D7F8F4300193D7F8F0300093D7F8BC
S31520001A20EC30224AC82106F0DBFD07F10C031A46EA
S31520001A3018491948FFF78AF8D7F8F8301C4A934214
S31520001A400EDD1C4B1A4613491348FFF77FF87823FF
S31520001A50C7F8E830D7F8E82017491848FFF776F88E
S31520001A607B680022C3F89820002204490448FFF727
S31520001A706DF807F58077BD4680BD00BF651500204F
S31520001A80409D0020FD150020A08601009F860100B4
S31520001A9010940020931100202099002089B5F81475
S31520001AA01F85EB511C9400206116002058940020BD
S31520001AB0400D030084940020F52000200499002086
S31520001AC080B588B002AF7860396007F108031A46FE
S31520001AD03E493F48FFF73AF83E4B1A463E493F48B3
S31520001AE0FFF734F807F1080303331A463A493B480F
S31520001AF0FFF72CF83A4B1A4637493848FFF726F8AD
S31520001B0000237B617B68D3F88030002B58D03B7A4A
S31520001B10013B052B55D801A252F823F0351B002096
S31520001B20471B0020591B00206B1B0020811B002017
S31520001B30A71B0020012300932A4B2B4A00210020BB
S31520001B40FEF766FF3DE000230093264B264A002140
S31520001B500020FEF75DFF34E000230093234B224A4A
S31520001B6000210020FEF754FF2BE0002220491E48CA
S31520001B70FEF7ECFF00221F491F48FEF7E7FF20E093
S31520001B8007F108030333184606F0F2FC78617B7AE6
S31520001B90012B02D17B695B427B617A691749164822
S31520001BA0FEF7D4FF0DE007F108030333184606F0CD
S31520001BB0DFFC78617A6912490F48FEF7C7FF00E01B
S31520001BC000BF00BF1837BD4680BD00BFC928002012
S31520001BD0549D0020989400209311002020990020E5
S31520001BE0AC940020051C0020E0980020791C0020E1
S31520001BF0E51F00208920002004990020B320002022
S31520001C00F520002080B483B000AF786039603B684F
S31520001C10012B09D17B681B69132B05DC7B681B69AB
S31520001C205A1C7B681A610BE03B68002B08D17B6845
S31520001C301B69012B04DD7B681B695A1E7B681A61B0
S31520001C4000BF0C37BD465DF8047B704780B483B077
S31520001C5000AF786039607B689B69002B03D17B6875
S31520001C6001229A6102E07B6800229A6100BF0C374C
S31520001C70BD465DF8047B704780B483B000AF7860C2
S31520001C807B681B69002B04D17B685A697B681A61C3
S31520001C9006E07B681A697B685A617B6800221A61B4
S31520001CA000BF0C37BD465DF8047B704780B483B017
S31520001CB000AF786039607B680122DA6100BF0C379B
S31520001CC0BD465DF8047B704780B584B002AF78606E
S31520001CD039607B68DB68002B0CBF01230023DBB255
S31520001CE01A467B68DA607B68DB69002B03D0224BBF
S31520001CF000221A700CE07B68DB68002B05D07B681D
S31520001D001A691D4BD2B21A7002E01B4B00221A70C0
S31520001D107B689B68002B2AD07B689B69002B16D09A
S31520001D207B681B6A154A82FB03129210DB17D01AB6
S31520001D307B681B6A114A82FB03129210DB17D11AA9
S31520001D40002300930E4B7A68FEF762FE10E07B6854
S31520001D501B6A0A4A82FB03129210DB17D01A002351
S31520001D600093074B7A680021FEF752FE00E000BF81
S31520001D700837BD4680BD00BF1C7400406766666696
S31520001D80C91C002080B483B000AF786039607B68BE
S31520001D903A681A6200BF0C37BD465DF8047B70476F
S31520001DA080B483B000AF786039607B680022DA6146
S31520001DB000BF0C37BD465DF8047B704780B588B000
S31520001DC002AF786039607B689B68002B00F09A80B0
S31520001DD000224E494E48FEF7B9FE7B68DB680A337F
S31520001DE07B617B681B694B4A52F823207B6913442D
S31520001DF0494A9B001344D3ED007A9FED487A67EE5B
S31520001E00877AFDEEE77A17EE903A3B613A694449C4
S31520001E103F48FEF79BFE7B681B69424A52F82330F7
S31520001E20FB60FB68022B04DD00223F493F48FEF79A
S31520001E308DFE7B681B6901335A4203F01F0302F0B3
S31520001E401F0258BF53427A6813617B685B6907EEAD
S31520001E50903AB8EEE77ADFED366AC6EE877AC7EDB6
S31520001E60027AFB684FF4FA7202FB03F307EE903A0C
S31520001E70B8EEE77AD7ED027A67EE277A9FED2D7ACC
S31520001E8077EEC77A9FED2C7A67EE877AFDEEE77AB2
S31520001E9000230093294B1E4A41F2883117EE900AFF
S31520001EA0FEF7B6FDFB684FF4FA7202FB03F307EE6A
S31520001EB0903AB8EEE77AD7ED027A67EE277A9FED69
S31520001EC01E7A67EE877AFDEEE76AFB68FA2202FB46
S31520001ED003F307EE903AB8EEE77AD7ED027A67EE8B
S31520001EE0277A9FED157A67EE877AFDEEE77A00234B
S31520001EF00093134B7A6817EE901A16EE900AFEF7A7
S31520001F0087FD00E000BF1837BD4680BDA11D00201B
S31520001F10E09800208092002000930020002474493D
S31520001F20851D00206493002025150020409D00205B
S31520001F3000007042000048420000C842AD1C00204C
S31520001F40BD1D002080B586B002AF786039607B6801
S31520001F509B68002B33D000221B491C48FEF7F6FD58
S31520001F607B685B6907EE903AB8EEE77ADFED186A90
S31520001F70C6EE877AC7ED037AD7ED037A9FED157AF9
S31520001F8067EE877A9FED147A67EE877AFDEEE76A29
S31520001F90D7ED037A9FED117A67EE877A9FED0E7A59
S31520001FA067EE877AFDEEE77A002300930C4B7A687A
S31520001FB017EE901A16EE900AFEF72AFD00E000BFF3
S31520001FC01037BD4680BD00BF47150020409D00202C
S31520001FD0000070420000FA430000C84200007A4325
S31520001FE0451F002080B584B002AF786039607B68D9
S31520001FF09B68002B0CBF01230023DBB21A467B68AB
S315200020009A607B689B68002B1BD0154B1A46154996
S315200020101548FEF79BFD00230093144B144A00211C
S315200020200020FEF7F5FC00230093124B124A0021F4
S315200020300020FEF7EDFC012210491148FEF786FD2F
S315200020400AE0104B1A4607490748FEF77FFD002293
S315200020500A490B48FEF77AFD00BF0837BD4680BD0A
S31520002060B09400209311002020990020BD1D00204F
S3152000207004990020C91C0020E09800202515002086
S31520002080409D0020BC94002080B483B000AF7860CF
S3152000209039607B689B68002B0CBF01230023DBB2D1
S315200020A01A467B689A6000BF0C37BD465DF8047BF4
S315200020B0704780B582B000AF786039603B6813F115
S315200020C0050F06DB3B68052B03DC7B683A68DA6084
S315200020D006E0054B1A4605490548FEF737FD00BFC1
S315200020E000BF0837BD4680BDC8940020931100204C
S315200020F02099002080B584B002AF786039603B68B3
S315200021001D2B07DD3B68B3F5967F03DC7B683A68B9
S315200021105A6105E0084B1A4608490948FEF716FD9C
S3152000212000230093074B084A00210020FEF770FC8D
S3152000213000BF0837BD4680BDD894002093110020EB
S3152000214020990020451F00200499002080B586B0E4
S3152000215000AF7860396005233B733B68002B02DAB9
S3152000216001237B7301E002237B733B6883EAE372DE
S31520002170A2EBE37207F108030949184606F080FA34
S315200021800123BB733B7AFB7307F10C031A460549FF
S315200021900548FEF7DBFC00BF1837BD4680BD00BFF3
S315200021A0E894002093290020549D002080B586B015
S315200021B000AF7860396007F108033A680E4918467F
S315200021C006F05EFA06233B7301237B730323BB735E
S315200021D03B7AFB737B7A3B743B68632B01DDBB7ACE
S315200021E07B7407F10C031A4604490548FEF7AEFC3A
S315200021F000BF1837BD4680BDE894002093290020F3
S31520002200549D002080B588B002AF786039609A4B23
S315200022101A469A499A48FEF799FC3A689949984885
S31520002220FEF794FC984B1A4694499548FEF78EFC87
S315200022303B686F2B1DD17B68D3F88030002B0CBFF9
S3152000224001230023DBB21A467B68C3F880207B6813
S31520002250D3F88030002B06D08C4B1A468749884805
S31520002260FEF774FC05E08A4B1A4684498448FEF73B
S315200022706DFC3B68613B102B00F2E18001A252F815
S3152000228023F000BF872300200D2300203F240020B9
S31520002290F32300203F2400203F2400203F24002059
S315200022A03F2400203F2400203F240020C922002074
S315200022B03F240020BD2300203F2400203F2400206F
S315200022C005240020512300207B689B687A681344EC
S315200022D000221A737B680C33184606F049F9786198
S315200022E07B6800229A607B68D3F88030002B04D16B
S315200022F07A6968496848FEF729FC7B690093674B31
S315200023007A6800210020FEF783FB98E07B689B68B3
S315200023107A68134400221A737B680C33184606F039
S3152000232027F978617B6800229A607B68D3F8803031
S31520002330002B04D17A695A495748FEF707FC7B6976
S315200023400093584B7A6800210020FEF761FB76E067
S315200023507B68D3F88030002B07D101230093524BA2
S31520002360524A00210020FEF753FB01233B72002333
S315200023707B720023BB7207F108031A464C494D486D
S31520002380FEF7E4FB5BE07B68D3F88030002B07D1B7
S3152000239000230093444B454A00210020FEF738FBDA
S315200023A002233B7200237B720023BB7207F10803D2
S315200023B01A463F493F48FEF7C9FB40E07B68D3F801
S315200023C08030002B07D1002300933B4B374A002156
S315200023D00020FEF71DFB03233B7200237B720023A4
S315200023E0BB7207F108031A4631493248FEF7AEFBA5
S315200023F025E000230093314B2C4A00210020FEF7D4
S3152000240007FB1CE07B68D3F88030002B09D1002223
S315200024102B492648FEF79AFB00222A491E48FEF73A
S3152000242095FB04233B7200237B720023BB7207F1CA
S3152000243008031A461E491F48FEF788FB00BF3B6863
S315200024402F2B02DD3B68392B06DD7B689B68002B32
S315200024500DD13B682D2B0AD17B689B68591C7A6865
S3152000246091603A68D1B27A6813440A461A7300BF5B
S315200024701837BD4680BD00BFEC9400209311002084
S3152000248020990020E9110020F4940020F8940020DF
S3152000249008950020B3200020049900204D2100201B
S315200024A0F5200020AD210020051C0020E09800200A
S315200024B093290020549D0020791C00204D1C0020CB
S315200024C0E51F00208920002080B588B002AF786003
S315200024D03960002225492648FEF738FB0022254987
S315200024E02548FEF733FB002224492548FEF72EFB1C
S315200024F07B6888331846FEF709FC002221492048CC
S31520002500FEF724FB204B1A4620491B48FEF71EFBEC
S3152000251001233B7301237B730623BB734823FB7381
S3152000252065233B746C237B746C23BB746F23FB7411
S3152000253000233B7507F10C031A4615490C48FEF794
S3152000254005FB00230093134B134A00210020FEF7BE
S315200025505FFA00230093114B114A00210020FEF759
S3152000256057FA00BF1837BD4680BD00BF8126002020
S31520002570549D0020ED10002020990020D514002025
S31520002580409D00202515002018950020931100203D
S3152000259093290020BD1D002004990020C91C00207D
S315200025A0E098002080B500AF00220B490B48FEF7CB
S315200025B0C1FC01220A490B48FEF7BCFC02220A494B
S315200025C00A48FEF7B7FC002209490A48FEF718FD1B
S315200025D00023184680BD00BF1F120020209900202E
S315200025E041270020549D0020A5150020409D002055
S315200025F0C92400204098002080B483B000AF034651
S31520002600FB71FB7903F01F03012202FA03F1064A4C
S3152000261097F907305B0942F8231000BF0C37BD46F7
S315200026205DF8047B704700BF00E100E080B483B012
S3152000263000AF03463960FB7197F90730002B0BDAA0
S315200026403B68DAB20C49FB7903F00F03043B120115
S31520002650D2B20B441A7609E03B68DAB2074997F9F9
S3152000266007301201D2B20B4483F8002300BF0C3787
S31520002670BD465DF8047B704700ED00E000E100E018
S3152000268080B586B000AF786039607B6800229A6199
S315200026907B689A697B685A617B685A697B68DA61CC
S315200026A02248FDF779FD07F10C03184604F0C6FA17
S315200026B00023BB740023FB7400233B7500237B752A
S315200026C00023BB750023FB750023BB730023FB731C
S315200026D002233B7403237B740723BB8107F10C037E
S315200026E01946134804F016F90346002B02D1114867
S315200026F0FDF752FD07F10C0319460F4804F00AF9BD
S315200027000346002B02D10D48FDF746FD0221142079
S31520002710FFF78CFF1420FFF76FFF012202210448E8
S3152000272004F0CAFE00BF1837BD4680BD2C95002098
S315200027300064004054950020006800406C950020FD
S31520002740B0B58AB002AF786039607B689B685A4919
S31520002750184604F0CFFE0346012B02D05748FDF75A
S315200027601BFD7B68DB69072B00F39F807B689B68DA
S3152000277007F108020021184604F0A4FCBB681B09D7
S31520002780DBB27A68526903F07F03D8B279681346C0
S315200027909B0013445B0013440B44203302461A70FB
S315200027A0BB68DBB27A68526903F00F03D8B2796846
S315200027B013469B0013445B0013440B44213302460B
S315200027C01A70BB7C7A68526903F00F03D8B2796815
S315200027D013469B0013445B0013440B4422330246EA
S315200027E01A700023FB7716E0FB7F7A685269F97F1F
S315200027F007F12000034413F80D4C786813469B001C
S3152000280013445B00134403440B44233322461A70BB
S31520002810FB7F0133FB777B685A69796813469B00F7
S3152000282013445B0013440B4422331B78FA7F9A42ED
S31520002830DAD37B68DB68002B25D07B68DC687B6875
S315200028401D697B685A69796813469B0013445B00AF
S3152000285013440B4420331B7819017B685A69786826
S3152000286013469B0013445B001344034421331B7817
S315200028700B4400932B46224600210020FEF7C8F881
S315200028800F4B01221A607B685B6901335A4203F0C1
S31520002890070302F0070258BF53427A6853617B68E8
S315200028A0DB695A1C7B68DA6102E00648FDF774FC96
S315200028B000BF2037BD46B0BD03000012849500201E
S315200028C04C9E0020AC95002090B484B000AF786078
S315200028D039607B68DB69002B55DD7B689A697968EE
S315200028E013469B0013445B0013440B4420331A7891
S315200028F03B681A707B689A69796813469B00134473
S315200029005B0013440B4421331A783B685A707B686A
S315200029109A69796813469B0013445B0013440B4461
S3152000292022331A783B689A700023FB7313E07B6886
S315200029309A69F87BF97B7C6813469B0013445B00FD
S3152000294013442344034423331A783B680B44DA7038
S31520002950FB7B0133FB733B689B78FA7B9A42E6D379
S315200029607B689B6901335A4203F0070302F0070292
S3152000297058BF53427A6893617B68DB695A1E7B682D
S31520002980DA61002300E0012318461037BD4690BCCB
S31520002990704780B58AB000AF786039607B689B68E5
S315200029A03B620023FB77234B3B623B681B781B0172
S315200029B03A6852781344BB6000237B7400233B742F
S315200029C03B689B78082B02D93B6808229A703B68A3
S315200029D09B78BB74002387F8273010E097F82720D0
S315200029E097F8273039680A44D27807F128010B4432
S315200029F003F8152C97F82730013387F827303B68E2
S31520002A009B7897F827209A42E8D307F108031946BE
S31520002A10386A04F0D7F90346FB77FB7F042B04D1F1
S31520002A200548FDF7B9FB012300E0002318462837A7
S31520002A30BD4680BD00680040CC95002080B582B0A0
S31520002A4000AF78607B683B4A934208D10121102071
S31520002A5001F0D2FF0021102001F0CEFF65E07B6857
S31520002A60354A93420AD101214FF4003001F0A4FFE8
S31520002A7000214FF4003001F09FFF56E07B682F4A7B
S31520002A8093420AD101214FF4802001F095FF0021C5
S31520002A904FF4802001F090FF47E07B68284A93425C
S31520002AA00AD101214FF4002001F086FF00214FF4C6
S31520002AB0002001F081FF38E07B68224A93420AD148
S31520002AC001214FF4801001F077FF00214FF4801090
S31520002AD001F072FF29E07B681B4A934208D101214D
S31520002AE0202001F089FF0021202001F085FF1CE035
S31520002AF07B68164A93420AD101214FF0804001F0AB
S31520002B005BFF00214FF0804001F056FF0DE07B680F
S31520002B100F4A934209D101214FF0004001F04CFFAA
S31520002B2000214FF0004001F047FF00BF0837BD46A7
S31520002B3080BD00BF00100140004400400048004016
S31520002B40004C004000500040001401400078004036
S31520002B50007C004080B58AB000AF786039600023E1
S31520002B607B6200233B620023FB610023BB617B6801
S31520002B701B8A9BB27B627B6A23F440537B623B6851
S31520002B80DB881A467B6A13437B627B6A9AB27B6830
S31520002B901A827B689B899BB27B627B6A23F4B05343
S31520002BA023F00C037B623B689A883B681B8913439E
S31520002BB09AB23B685B8913439BB21A467B6A1343DE
S31520002BC07B627B6A9AB27B689A817B689B8A9BB27E
S31520002BD07B627B6A23F440737B623B689B891A463F
S31520002BE07B6A13437B627B6A9AB27B689A8207F17F
S31520002BF00803184601F02AFC7B68304A934203D02A
S31520002C007B682F4A934202D17B693B6201E03B6994
S31520002C103B627B689B899BB21BB2002B0CDA3A6A1B
S31520002C2013469B0013449A001A443B681B685B00BA
S31520002C30B2FBF3F3FB610BE03A6A13469B001344A5
S31520002C409A001A443B681B689B00B2FBF3F3FB61B6
S31520002C50FB691C4AA2FB03235B091B017B627B6A7F
S31520002C601B09642202FB03F3FA69D31ABB617B6852
S31520002C709B899BB21BB2002B0CDABB69DB0032337B
S31520002C80104AA2FB03235B0903F007037A6A134366
S31520002C907B620BE0BB691B0132330A4AA2FB03238A
S31520002CA05B0903F00F037A6A13437B627B6A9AB24D
S31520002CB07B681A8100BF2837BD4680BD00100140C1
S31520002CC0001401401F85EB5180B483B000AF7860BB
S31520002CD07B684FF416521A607B6800229A807B68C4
S31520002CE00022DA807B6800221A817B680C225A81B6
S31520002CF07B6800229A8100BF0C37BD465DF8047BB5
S31520002D00704780B485B000AF786039600023FB60DF
S31520002D107B681B8A9BB2FB60FB6823F47063FB60B5
S31520002D203B681A883B685B8813439AB23B689B884A
S31520002D3013439AB23B68DB8813439BB21A46FB685F
S31520002D401343FB60FB689AB27B681A8200BF143774
S31520002D50BD465DF8047B704780B483B000AF7860D1
S31520002D607B6800221A807B6800225A807B680022BA
S31520002D709A807B680022DA8000BF0C37BD465DF85A
S31520002D80047B704780B483B000AF78600B46FB703D
S31520002D90FB78002B08D07B689B899BB243F40053B9
S31520002DA09AB27B689A8107E07B689B899BB223F461
S31520002DB000539AB27B689A8100BF0C37BD465DF8F6
S31520002DC0047B704780B483B000AF78600B46FB70FD
S31520002DD07B681B8B9BB223F0FF039AB27B681A8316
S31520002DE07B681B8B9AB2FB789BB213439AB27B68A3
S31520002DF01A8300BF0C37BD465DF8047B704780B44C
S31520002E0083B000AF78600B46FB70FB78002B0AD0AE
S31520002E107B689B899BB26FEA43436FEA53439AB21E
S31520002E207B689A8107E07B689B899BB2C3F30E037C
S31520002E309AB27B689A8100BF0C37BD465DF8047B49
S31520002E40704780B483B000AF78600B46FB70FB7888
S31520002E50002B08D07B689B8A9BB243F400639AB20E
S31520002E607B689A8207E07B689B8A9BB223F4006387
S31520002E709AB27B689A8200BF0C37BD465DF8047B08
S31520002E80704780B483B000AF78600B467B807B8828
S31520002E90C3F308039AB27B689A8000BF0C37BD46FD
S31520002EA05DF8047B704780B483B000AF78607B68A0
S31520002EB09B889BB2C3F308039BB218460C37BD46CA
S31520002EC05DF8047B704780B483B000AF78600B4612
S31520002ED0FB707B681B8A9BB223F00F039AB27B6838
S31520002EE01A827B681B8A9AB2FB789BB213439AB2EA
S31520002EF07B681A8200BF0C37BD465DF8047B70479D
S31520002F0080B483B000AF78600B46FB70FB78002B53
S31520002F1008D07B689B899BB243F002039AB27B68F8
S31520002F209A8107E07B689B899BB223F002039AB2C1
S31520002F307B689A8100BF0C37BD465DF8047B7047DD
S31520002F4080B483B000AF78600B467B807B689B891A
S31520002F509BB223F400639AB27B689A817B689B8933
S31520002F609AB27B8813439AB27B689A8100BF0C374A
S31520002F70BD465DF8047B704780B483B000AF7860AF
S31520002F800B467B807B681B8A9BB223F020039AB278
S31520002F907B681A827B681B8A9AB27B8813439AB213
S31520002FA07B681A8200BF0C37BD465DF8047B7047EC
S31520002FB080B483B000AF78600B46FB70FB78002BA3
S31520002FC008D07B681B8A9BB243F480439AB27B6805
S31520002FD01A8207E07B681B8A9BB223F480439AB24D
S31520002FE07B681A8200BF0C37BD465DF8047B7047AC
S31520002FF080B483B000AF78607B689B899BB243F036
S3152000300001039AB27B689A8100BF0C37BD465DF8F2
S31520003010047B704780B483B000AF78600B46FB70AA
S31520003020FB78002B08D07B689B8A9BB243F0080371
S315200030309AB27B689A8207E07B689B8A9BB223F0D0
S3152000304008039AB27B689A8200BF0C37BD465DF8AA
S31520003050047B704780B483B000AF78600B46FB706A
S315200030607B681B8B9BB2DBB29AB27B681A837B6828
S315200030701B8B9AB2FB789BB21B029BB213439AB26C
S315200030807B681A8300BF0C37BD465DF8047B70470A
S3152000309080B483B000AF78600B46FB70FB78002BC2
S315200030A008D07B689B8A9BB243F020039AB27B6848
S315200030B09A8207E07B689B8A9BB223F020039AB210
S315200030C07B689A8200BF0C37BD465DF8047B70474B
S315200030D080B483B000AF78600B46FB70FB78002B82
S315200030E008D07B689B8A9BB243F010039AB27B6818
S315200030F09A8207E07B689B8A9BB223F010039AB2E0
S315200031007B689A8200BF0C37BD465DF8047B70470A
S3152000311080B483B000AF78600B467B807B689B8A47
S315200031209BB223F004039AB27B689A827B689B8ABF
S315200031309AB27B8813439AB27B689A8200BF0C3777
S31520003140BD465DF8047B704780B483B000AF7860DD
S315200031500B46FB70FB78002B08D07B689B8A9BB2C2
S3152000316043F002039AB27B689A8207E07B689B8AC7
S315200031709BB223F002039AB27B689A8200BF0C3777
S31520003180BD465DF8047B704780B483B000AF78609D
S315200031900B467B8013467B707B78002B08D07B68A0
S315200031A09B8A9AB27B8813439AB27B689A8209E0FB
S315200031B07B689B8A9AB27B88DB439BB213409AB288
S315200031C07B689A8200BF0C37BD465DF8047B70474A
S315200031D080B487B000AF78600B467B8013467B7047
S315200031E000233B610023FB600023BB6000237B613F
S315200031F07B687B617B88DBB25B09DBB23B617B88CA
S3152000320003F01F03FB600122FB6802FA03F3BB6095
S315200032103B69012B03D17B690C337B6109E03B6958
S31520003220022B03D17B6910337B6102E07B69143367
S315200032307B617B78002B06D07B6919687B69BA682D
S315200032400A431A6006E07B691968BB68DA437B6922
S315200032500A401A6000BF1C37BD465DF8047B7047E4
S3152000326080B485B000AF78600B467B800023FB736B
S315200032707B681B889AB27B8813409BB2002B02D0B6
S315200032800123FB7301E00023FB73FB7B18461437F5
S31520003290BD465DF8047B704780B483B000AF78608C
S315200032A00B467B807B88DB439AB27B681A8000BF03
S315200032B00C37BD465DF8047B704780B487B000AFFD
S315200032C078600B467B800023FB6000237B61002314
S315200032D0BB600023FB747B88DBB25B09DBB2BB607F
S315200032E07B8803F01F037B6101227B6902FA03F3CB
S315200032F07B61BB68012B07D17B689B899BB21A46F1
S315200033007B6913407B6111E0BB68022B07D17B6888
S315200033101B8A9BB21A467B6913407B6106E07B6859
S315200033209B8A9BB21A467B6913407B617B881B0A6A
S315200033309BB2FB600122FB6802FA03F3FB607B6809
S315200033401B889BB21A46FB681340FB607B69002BE7
S3152000335005D0FB68002B02D00123FB7401E000237B
S31520003360FB74FB7C18461C37BD465DF8047B704712
S3152000337080B485B000AF78600B467B800023FB814C
S315200033800023BB817B881B0AFB81FB89012202FA71
S3152000339003F3BB81BB89DB439AB27B681A8000BFEB
S315200033A01437BD465DF8047B704700BF80B400AF7C
S315200033B000BFBD465DF8047B704780B586B000AF80
S315200033C0454800F089F9454803F080FA444803F05F
S315200033D07DFA01214FF0007001F04EFA01214FF0E5
S315200033E0806001F049FA0121022001F0E5F9092265
S315200033F00921394800F092FB09220821364800F0BD
S315200034008DFB07F11003184600F0A7FA4FF400735E
S315200034103B6102233B750023BB750023FB7502230A
S315200034207B7507F1100319462B4800F007FA4FF475
S3152000343080733B6102233B750023BB750123FB751B
S3152000344002237B7507F110031946234800F0F6F98D
S3152000345009220621204800F061FB092205211E4889
S3152000346000F05CFB40233B6102233B750023BB75C8
S315200034700023FB7502237B7507F1100319461648B6
S3152000348000F0DCF920233B6102233B750023BB754A
S315200034900123FB7502237B7507F1100319460E489D
S315200034A000F0CCF90023BB720023FB7201233B738F
S315200034B000233B8000237B800023BB800023FB80EE
S315200034C000233B8101237B733B46184603F0F3FA26
S315200034D000BF1837BD4680BD00040240006400408E
S315200034E00068004080B586B000AF01214FF0005043
S315200034F001F0C2F907F11003184600F02EFA202336
S315200035003B6103233B750023FB7507F11003194626
S315200035100F4800F093F900F04BFB3B46184600F0AD
S3152000352089FB00233B6000237B600023FB603B4636
S315200035301946102000F04AFB0121102000F090FBD4
S315200035400021082000F03AFC00BF1837BD4680BD98
S315200035500000024080B584B000AF01214FF48040C6
S3152000356001F0AAF907210120FDF7F4FE04F088FAFC
S315200035703B46184604F010FB80233B6000233B713A
S315200035800C237B710123BB713B46184604F092FA4B
S3152000359007F10803184600F0E0F90223BB60012377
S315200035A03B730123BB730023FB7301237B7307F15A
S315200035B008031946184800F041F90123BB6001238E
S315200035C03B730123BB730023FB7301237B7307F13A
S315200035D008031946104800F031F9012202210E484D
S315200035E000F063FA012201210B4800F05EFA8023E5
S315200035F0BB6000233B730023BB730023FB730123B3
S315200036007B7307F108031946034800F017F900BF3A
S315200036101037BD4680BD00BF0004024080B483B091
S3152000362000AFEFF314833B603B6823F003037B601A
S315200036307B6883F3148800BF094B4FF404725A61E8
S31520003640074B5B69064A43F008035361054B4FF06D
S3152000365000425A6000BF0C37BD465DF8047B7047B8
S3152000366000ED00E030EF00E080B500AF012108203A
S3152000367001F002F90121082001F03EFA00BF80BDC9
S3152000368080B400AF124A02E0002342F8043B114BFB
S315200036909A42F9D300BFBD465DF8047B704780B5DA
S315200036A000AFFFF7EDFFFFF781FEFFF786FEFFF77E
S315200036B019FFFFF74FFFFFF7B1FFFFF7D5FF00BF59
S315200036C080BD80B400AF00BFBD465DF8047B704767
S315200036D0409E0020C821012080B582B000AF7860CE
S315200036E07B684B4A934208D10121012001F004F95D
S315200036F00021012001F000F986E07B68454A9342CB
S3152000370008D10121022001F0F7F80021022001F062
S31520003710F3F879E07B68404A934208D101210420DE
S3152000372001F0EAF80021042001F0E6F86CE07B685D
S315200037303A4A934208D10121082001F0DDF8002100
S31520003740082001F0D9F85FE07B68354A934208D11A
S315200037500121102001F0D0F80021102001F0CCF832
S3152000376052E07B682F4A934208D10121202001F0A4
S31520003770C3F80021202001F0BFF845E07B682A4AE3
S31520003780934208D10121402001F0B6F800214020C3
S3152000379001F0B2F838E07B68244A934208D101212F
S315200037A0802001F0A9F80021802001F0A5F82BE067
S315200037B07B681F4A93420AD101214FF4807001F0A1
S315200037C09BF800214FF4807001F096F81CE07B688E
S315200037D0184A93420AD101214FF4007001F08CF867
S315200037E000214FF4007001F087F80DE07B68124A43
S315200037F0934209D101214FF4806001F07DF8002128
S315200038004FF4806001F078F800BF0837BD4680BDD0
S31520003810000002400004024000080240000C024062
S31520003820001002400014024000180240001C024012
S3152000383000200240002402400028024080B487B0C5
S3152000384000AF7860396000237B6100233B61002351
S31520003850FB6000237B6176E001227B6902FA03F399
S315200038603B613B681B683A691340FB60FA683B6919
S315200038709A4265D17B681A687B695B00032101FA4D
S3152000388003F3DB431A407B681A607B681A683B683F
S315200038901B7919467B695B0001FA03F31A437B689F
S315200038A01A603B681B79012B03D03B681B79022BDE
S315200038B02ED17B689A687B695B00032101FA03F3AA
S315200038C0DB431A407B689A607B689A683B685B7921
S315200038D019467B695B0001FA03F31A437B689A60F9
S315200038E07B685A687B699BB2194601238B40DB4370
S315200038F01A407B685A607B685B683A689279114601
S315200039007A6992B201FA02F292B21A437B685A603D
S315200039107B68DA687B699BB25B00032101FA03F3BB
S31520003920DB431A407B68DA607B68DA683B68DB79C0
S3152000393019467B695B0001FA03F31A437B68DA6058
S315200039407B6901337B617B690F2B85D900BF00BF63
S315200039501C37BD465DF8047B704780B483B000AF4A
S3152000396078607B684FF6FF721A607B6800221A71B6
S315200039707B6800225A717B6800229A717B6800223C
S31520003980DA7100BF0C37BD465DF8047B704780B402
S3152000399085B000AF78600B467B804FF48033FB60A8
S315200039A07A88FB681343FB60FA687B68DA617A8859
S315200039B07B68DA61FA687B68DA617B68DB69FB60C1
S315200039C07B68DB69FB6000BF1437BD465DF8047B6E
S315200039D0704780B485B000AF78600B467B800023AB
S315200039E0FB737B681A697B881340002B02D0012366
S315200039F0FB7301E00023FB73FB7B18461437BD469F
S31520003A005DF8047B704780B483B000AF78607B6834
S31520003A101B699BB218460C37BD465DF8047B704780
S31520003A2080B485B000AF78600B467B800023FB73A3
S31520003A307B685A697B881340002B02D00123FB73D5
S31520003A4001E00023FB73FB7B18461437BD465DF867
S31520003A50047B704780B483B000AF78607B685B6975
S31520003A609BB218460C37BD465DF8047B704780B480
S31520003A7083B000AF78600B467B807B687A881A8398
S31520003A8000BF0C37BD465DF8047B704780B483B019
S31520003A9000AF78600B467B807B687A885A8300BFAC
S31520003AA00C37BD465DF8047B704780B483B000AF09
S31520003AB078600B467B8013467B707B78002B03D087
S31520003AC07B687A881A8302E07B687A885A8300BFEB
S31520003AD00C37BD465DF8047B704780B483B000AFD9
S31520003AE078600B467B807A887B685A6100BF0C37EA
S31520003AF0BD465DF8047B704780B483B000AF786024
S31520003B000B467B807B685A697B885A407B685A6162
S31520003B1000BF0C37BD465DF8047B704780B485B086
S31520003B2000AF78600B467B8013467B700023FB60DA
S31520003B300023BB607A787B8803F007039B0002FA98
S31520003B4003F3FB607B88DB089BB21A467B6808324E
S31520003B5053F822207B8803F007039B000F2101FAEC
S31520003B6003F3DB437988C90889B2084602EA0301D0
S31520003B707B6800F1080243F822107B88DB089BB2A1
S31520003B801A467B68083253F82230FA681343BB6022
S31520003B907B88DB089BB21A467B680832B96843F8F3
S31520003BA0221000BF1437BD465DF8047B704700BF66
S31520003BB080B500AF01214FF0005000F0FDFE00213E
S31520003BC04FF0005000F0F8FE00BF80BD80B485B0F5
S31520003BD000AF786039600023FB600023BB60144B84
S31520003BE01B68FB6040F6FE727B6802FA03F3DB4338
S31520003BF0FA681340FB603B681A683B685B681A43A7
S31520003C003B689B681A433B68DB681343BB60BA6812
S31520003C107B6802FA03F3FA681343FB60044AFB68E5
S31520003C20136000BF1437BD465DF8047B704700BFA4
S31520003C300074004080B483B000AF78607B680022B7
S31520003C401A607B6800225A607B6800229A607B6833
S31520003C500022DA6000BF0C37BD465DF8047B704752
S31520003C6080B483B000AF78600B46FB70FB78002BE6
S31520003C7009D00D4B1A6801217B6801FA03F30A4922
S31520003C8013430B6009E0084B1A6801217B6801FA8F
S31520003C9003F3DB43044913400B6000BF0C37BD46DA
S31520003CA05DF8047B704700BF0074004080B483B089
S31520003CB000AF78600B46FB70FB78002B0AD00E4BCA
S31520003CC05A687B681B09012101FA03F30A49134349
S31520003CD04B600AE0084B5A687B681B09012101FAF0
S31520003CE003F3DB43044913404B6000BF0C37BD464A
S31520003CF05DF8047B704700BF0074004080B483B039
S31520003D0000AF0346FB71FB79002B06D0094B5B689D
S31520003D10084A43F00303536005E0064B5B68054AF7
S31520003D2023F00303536000BF0C37BD465DF8047BC8
S31520003D30704700BF0074004080B485B000AFF860C3
S31520003D40B9601346FB71FB79002B09D00C4B1A681E
S31520003D50B968FB6801FA03F3094913430B6009E0CC
S31520003D60074B1A68B968FB6801FA03F3DB43044979
S31520003D7013400B6000BF1437BD465DF8047B7047C7
S31520003D800074004080B485B000AF78600B467B801D
S31520003D900023FB60084BFB60FA687B6813440833FA
S31520003DA0FB60FB681A467B88136000BF1437BD464C
S31520003DB05DF8047B704700BF0074004080B485B076
S31520003DC000AF78600B467B800023FB60084BFB60CE
S31520003DD0FA687B6813441433FB60FB681A467B88B9
S31520003DE0136000BF1437BD465DF8047B704700BFE3
S31520003DF00074004080B485B000AF78600B467B80AD
S31520003E0013463B800023FB600023BB607B68082BA6
S31520003E1005D17B881A023B881343FB6004E07B882C
S31520003E201A043B881343FB60074BBB607A68BB6868
S31520003E3013442033BB60BB68FA681A6000BF14378E
S31520003E40BD465DF8047B70470074004080B485B0A1
S31520003E5000AF78600023FB60084BFB607B689A0804
S31520003E60FB6813442C33FB60FB681B689BB2184627
S31520003E701437BD465DF8047B704700BF00740040D0
S31520003E8080B483B000AF78600B46FB70FB78002BC4
S31520003E900AD00E4B1A684FF480517B6801FA03F35F
S31520003EA00A4913430B600AE0084B1A684FF4805105
S31520003EB07B6801FA03F3DB43044913400B6000BF20
S31520003EC00C37BD465DF8047B704700BF0074004088
S31520003ED080B485B000AFF860B9601346FB71FB79FA
S31520003EE0002B09D00C4B1A68B968FB6801FA03F35A
S31520003EF0094913430B6009E0074B1A68B968FB6848
S31520003F0001FA03F3DB43044913400B6000BF143767
S31520003F10BD465DF8047B70470074004080B485B0D0
S31520003F2000AF786039600023FB730A4B5A6B3968FF
S31520003F307B6801FA03F31340002B02D00123FB73A5
S31520003F4001E00023FB73FB7B18461437BD465DF862
S31520003F50047B70470074004080B483B000AF786063
S31520003F60396006493A687B6802FA03F34B6300BF5F
S31520003F700C37BD465DF8047B704700BF00740040D7
S31520003F8080B485B000AF786039600023FB730023CE
S31520003F90BB60104B1A6839687B6801FA03F313403B
S31520003FA0BB600C4B5A6B39687B6801FA03F31340EC
S31520003FB0002B05D0BB68002B02D00123FB7301E048
S31520003FC00023FB73FB7B18461437BD465DF8047B44
S31520003FD0704700BF0074004080B483B000AF7860A3
S31520003FE0396006493A687B6802FA03F34B6300BFDF
S31520003FF00C37BD465DF8047B704700BF0074004057
S3152000400080B400AF164B1B68154A43F001031360BA
S31520004010134B00229A60124B1B68114A23F0A853B7
S3152000402023F4102313600E4B0E4A5A600C4B0E4A93
S31520004030C3F884200A4B0D4AC3F88820084B1B6816
S31520004040074A23F480231360054B0022DA60044BD1
S315200040500022C3F88C2000BFBD465DF8047B704764
S3152000406000380240103000240030002000300024A8
S3152000407080B483B000AF0346FB71064B00221A7052
S31520004080044AFB79137000BF0C37BD465DF8047BEC
S31520004090704700BF0238024080B582B000AF0023CF
S315200040A03B600023FB710023BB71312000F08AFDA9
S315200040B00346BB713B6801333B603B68B3F5A04FB9
S315200040C002D0BB79002BF0D0312000F07BFD0346D7
S315200040D0002B02D00123FB7101E00023FB71FB7949
S315200040E018460837BD4680BD80B485B000AF03466C
S315200040F0FB710023FB600A4B1B68FB60FB6823F007
S31520004100F803FB60FB79DB00FA681343FB60044A83
S31520004110FB68136000BF1437BD465DF8047B70470B
S315200041200038024080B483B000AF0346FB71044AD6
S31520004130FB79136000BF0C37BD465DF8047B7047E2
S315200041400000474280B483B000AF0346FB710D4B9D
S3152000415000221A700B4B00221A70FB79012B02D019
S31520004160042B04D007E0074B01221A7003E0054B0D
S3152000417005221A7000BF00BF0C37BD465DF8047BD0
S31520004180704700BF7038024080B483B000AF03464A
S31520004190FB71044AFB79136000BF0C37BD465DF8FE
S315200041A0047B7047800E474280B485B000AFF8602C
S315200041B0B9607A603B607B689A01BB681A433B68AA
S315200041C05B08013B1B041A43FB681A43BB691B06A9
S315200041D0044913434B6000BF1437BD465DF8047B8A
S315200041E0704700BF0038024080B483B000AF03465A
S315200041F0FB71044AFB79136000BF0C37BD465DF89E
S31520004200047B70476000474280B483B000AF78607B
S3152000421039607B689A013B681B0705491343C1F83F
S31520004220843000BF0C37BD465DF8047B704700BF65
S315200042300038024080B483B000AF0346FB71044AC5
S31520004240FB79136000BF0C37BD465DF8047B7047D1
S315200042506800474280B485B000AFF860B9607A60E4
S31520004260FB689A01BB681B061A437B681B07054936
S315200042701343C1F8883000BF1437BD465DF8047B70
S31520004280704700BF0038024080B483B000AF0346B9
S31520004290FB71044AFB79136000BF0C37BD465DF8FD
S315200042A0047B70477000474280B483B000AF03465A
S315200042B0FB71044AFB79136000BF0C37BD465DF8DD
S315200042C0047B70474C00474280B485B000AF7860CD
S315200042D039600023FB600B4B9B68FB60FB6823F077
S315200042E0EC63FB607A683B681343FA681343FB6010
S315200042F0044AFB68936000BF1437BD465DF8047B13
S31520004300704700BF0038024080B485B000AF7860A7
S3152000431039600023FB600B4B9B68FB60FB6823F036
S315200043207843FB607A683B681343FA681343FB6063
S31520004330044AFB68936000BF1437BD465DF8047BD2
S31520004340704700BF0038024080B485B000AF786067
S315200043500023FB60094B9B68FB60FB6823F003038B
S31520004360FB60FA687B681343FB60044AFB68936032
S3152000437000BF1437BD465DF8047B70470038024005
S3152000438080B400AF054B9B68DBB203F00C03DBB2B5
S315200043901846BD465DF8047B704700BF00380240D2
S315200043A080B485B000AF78600023FB60094B9B6822
S315200043B0FB60FB6823F0F003FB60FA687B6813431D
S315200043C0FB60044AFB68936000BF1437BD465DF866
S315200043D0047B70470038024080B485B000AF786017
S315200043E00023FB60094B9B68FB60FB6823F4E053CA
S315200043F0FB60FA687B681343FB60044AFB689360A2
S3152000440000BF1437BD465DF8047B70470038024074
S3152000441080B485B000AF78600023FB600A4B9B68B0
S31520004420FB60FB6823F46043FB607B68DB00FA6873
S315200044301343FB60044AFB68936000BF1437BD46F4
S315200044405DF8047B704700BF0038024080B489B015
S3152000445000AF78600023BB6100237B610023FB61F2
S3152000446002233B610023FB600223BB604A4B9B680F
S3152000447003F00C03BB61BB69082B11D0BB69082B69
S3152000448044D8BB69002B03D0BB69042B04D03DE084
S315200044907B68424A1A603DE07B68414A1A6039E0EF
S315200044A03D4B5B689B0D03F00103FB603A4B5B6859
S315200044B003F03F03BB60FB68002B0CD0384ABB6877
S315200044C0B2FBF3F3344A52689209C2F3080202FBA4
S315200044D003F3FB610BE0314ABB68B2FBF3F32E4AD0
S315200044E052689209C2F3080202FB03F3FB612A4BCE
S315200044F05B681B0C03F0030301335B003B61FA6925
S315200045003B69B2FBF3F27B681A6003E07B68234ABF
S315200045101A6000BF204B9B6803F0F003BB61BB69A8
S315200045201B09BB611F4ABB6913441B78DBB27B6145
S315200045307B681A687B69DA407B685A60164B9B68F1
S3152000454003F4E053BB61BB699B0ABB61154ABB6997
S3152000455013441B78DBB27B617B685A687B69DA403F
S315200045607B689A600C4B9B6803F46043BB61BB6914
S315200045705B0BBB610B4ABB6913441B78DBB27B61C7
S315200045807B685A687B69DA407B68DA6000BF24372B
S31520004590BD465DF8047B7047003802400024F400D5
S315200045A000127A00CC9D002080B485B000AF7860E0
S315200045B00023FB607B6803F44073B3F5407F11D181
S315200045C00F4B9B68FB60FB6823F4F813FB607B684A
S315200045D023F0704323F44073FA681343FB60084AC0
S315200045E0FB689360064B1A6F7B68C3F30B03044981
S315200045F013430B6700BF1437BD465DF8047B704735
S315200046000038024080B483B000AF0346FB71044AF1
S31520004610FB79136000BF0C37BD465DF8047B7047FD
S315200046203C0E474280B483B000AF0346FB71044A78
S31520004630FB79136000BF0C37BD465DF8047B7047DD
S31520004640400E474280B483B000AF7860044A7B684E
S31520004650136000BF0C37BD465DF8047B704700BF72
S315200046605C01474280B485B000AF78600023FB60D0
S315200046700B4BD3F88C30FB60FB6823F01F03FB60E9
S315200046807B68013BFA681343FB60054AFB68C2F866
S315200046908C3000BF1437BD465DF8047B704700BFE1
S315200046A00038024080B485B000AF78600023FB60FC
S315200046B00B4BD3F88C30FB60FB6823F4F853FB607C
S315200046C07B68013B1B02FA681343FB60044AFB68C4
S315200046D0C2F88C3000BF1437BD465DF8047B7047A6
S315200046E00038024080B485B000AF78600023FB60BC
S315200046F00A4BD3F88C30FB60FB6823F44013FB6035
S31520004700FA687B681343FB60044AFB68C2F88C3066
S3152000471000BF1437BD465DF8047B70470038024061
S3152000472080B485B000AF78600023FB600A4BD3F8D5
S315200047308C30FB60FB6823F44003FB60FA687B68DF
S315200047401343FB60044AFB68C2F88C3000BF143761
S31520004750BD465DF8047B70470038024080B485B0C2
S3152000476000AF78600023FB600A4BD3F88C30FB60E7
S31520004770FB6823F44033FB60FA687B681343FB60D5
S31520004780044AFB68C2F88C3000BF1437BD465DF87A
S31520004790047B70470038024080B483B000AF786055
S315200047A0044A7B68136000BF0C37BD465DF8047B66
S315200047B0704700BFE011474280B483B000AF7860F5
S315200047C00B46FB70FB78002B06D00A4B1A6B094967
S315200047D07B6813430B6306E0064B1A6B7B68DB434F
S315200047E0044913400B6300BF0C37BD465DF8047BBC
S315200047F0704700BF0038024080B483B000AF7860B5
S315200048000B46FB70FB78002B06D00A4B5A6B0949E6
S315200048107B6813434B6306E0064B5A6B7B68DB438E
S31520004820044913404B6300BF0C37BD465DF8047B3B
S31520004830704700BF0038024080B483B000AF786074
S315200048400B46FB70FB78002B06D00A4B9A6B094966
S315200048507B6813438B6306E0064B9A6B7B68DB43CE
S31520004860044913408B6300BF0C37BD465DF8047BBB
S31520004870704700BF0038024080B483B000AF786034
S315200048800B46FB70FB78002B06D00A4B1A6C0949A5
S315200048907B6813430B6406E0064B1A6C7B68DB438C
S315200048A0044913400B6400BF0C37BD465DF8047BFA
S315200048B0704700BF0038024080B483B000AF7860F4
S315200048C00B46FB70FB78002B06D00A4B5A6C094925
S315200048D07B6813434B6406E0064B5A6C7B68DB43CC
S315200048E0044913404B6400BF0C37BD465DF8047B7A
S315200048F0704700BF0038024080B483B000AF7860B4
S315200049000B46FB70FB78002B06D00A4B1A69094927
S315200049107B6813430B6106E0064B1A697B68DB4311
S31520004920044913400B6100BF0C37BD465DF8047B7C
S31520004930704700BF0038024080B483B000AF786073
S315200049400B46FB70FB78002B06D00A4B5A690949A7
S315200049507B6813434B6106E0064B5A697B68DB4351
S31520004960044913404B6100BF0C37BD465DF8047BFC
S31520004970704700BF0038024080B483B000AF786033
S315200049800B46FB70FB78002B06D00A4B9A69094927
S315200049907B6813438B6106E0064B9A697B68DB4391
S315200049A0044913408B6100BF0C37BD465DF8047B7C
S315200049B0704700BF0038024080B483B000AF7860F3
S315200049C00B46FB70FB78002B06D00A4B1A6A094966
S315200049D07B6813430B6206E0064B1A6A7B68DB434F
S315200049E0044913400B6200BF0C37BD465DF8047BBB
S315200049F0704700BF0038024080B483B000AF7860B3
S31520004A000B46FB70FB78002B06D00A4B5A6A0949E5
S31520004A107B6813434B6206E0064B5A6A7B68DB438E
S31520004A20044913404B6200BF0C37BD465DF8047B3A
S31520004A30704700BF0038024080B483B000AF786072
S31520004A400B46FB70FB78002B06D00A4B1A6D0949E2
S31520004A507B6813430B6506E0064B1A6D7B68DB43C8
S31520004A60044913400B6500BF0C37BD465DF8047B37
S31520004A70704700BF0038024080B483B000AF786032
S31520004A800B46FB70FB78002B06D00A4B5A6D094962
S31520004A907B6813434B6506E0064B5A6D7B68DB4308
S31520004AA0044913404B6500BF0C37BD465DF8047BB7
S31520004AB0704700BF0038024080B483B000AF7860F2
S31520004AC00B46FB70FB78002B06D00A4B9A6D0949E2
S31520004AD07B6813438B6506E0064B9A6D7B68DB4348
S31520004AE0044913408B6500BF0C37BD465DF8047B37
S31520004AF0704700BF0038024080B483B000AF7860B2
S31520004B000B46FB70FB78002B06D00A4B1A6E094920
S31520004B107B6813430B6606E0064B1A6E7B68DB4305
S31520004B20044913400B6600BF0C37BD465DF8047B75
S31520004B30704700BF0038024080B483B000AF786071
S31520004B400B46FB70FB78002B06D00A4B5A6E0949A0
S31520004B507B6813434B6606E0064B5A6E7B68DB4345
S31520004B60044913404B6600BF0C37BD465DF8047BF5
S31520004B70704700BF0038024080B483B000AF0346C0
S31520004B800A46FB711346BB71BB79002B08D00C4B30
S31520004B901B78DAB20A49FB791343DBB20B7009E0C2
S31520004BA0074B1B78DAB2FB79DB43DBB204491340AF
S31520004BB0DBB20B7000BF0C37BD465DF8047B704737
S31520004BC00D38024080B487B000AF0346FB71002346
S31520004BD0FB6000237B610023FB74FB795B09DBB25E
S31520004BE0FB60FB68012B03D1124B1B687B6109E03C
S31520004BF0FB68022B03D10F4B1B6F7B6102E00D4B31
S31520004C005B6F7B61FB7903F01F03FB607A69FB68AE
S31520004C1022FA03F303F00103002B02D00123FB74D5
S31520004C2001E00023FB74FB7C18461C37BD465DF86B
S31520004C30047B70470038024080B400AF054B5B6FA1
S31520004C40044A43F08073536700BFBD465DF8047B7A
S31520004C50704700BF0038024080B485B000AF0346DD
S31520004C60FB710023FB73094BDA68FB791340002B99
S31520004C7002D00123FB7301E00023FB73FB7B184664
S31520004C801437BD465DF8047B704700BF00380240EC
S31520004C9080B483B000AF0346FB71044AFB791370DE
S31520004CA000BF0C37BD465DF8047B70470E380240C6
S31520004CB080B582B000AF78607B68604A934208D1A5
S31520004CC001210120FFF798FE00210120FFF794FE25
S31520004CD0AFE07B68B3F1804F08D101210120FFF7B7
S31520004CE06BFE00210120FFF767FEA2E07B68544A95
S31520004CF0934208D101210220FFF75EFE0021022007
S31520004D00FFF75AFE95E07B684E4A934208D101216F
S31520004D100420FFF751FE00210420FFF74DFE88E016
S31520004D207B68494A934208D101210820FFF744FEB7
S31520004D3000210820FFF740FE7BE07B68434A934230
S31520004D4008D101211020FFF737FE00211020FFF7A0
S31520004D5033FE6EE07B683E4A934208D10121202033
S31520004D60FFF72AFE00212020FFF726FE61E07B6860
S31520004D70384A934208D101210220FFF73DFE002147
S31520004D800220FFF739FE54E07B68334A93420AD16A
S31520004D9001214FF48030FFF72FFE00214FF48030A1
S31520004DA0FFF72AFE45E07B682C4A93420AD101216F
S31520004DB04FF40030FFF720FE00214FF40030FFF7BC
S31520004DC01BFE36E07B68264A93420AD101214FF426
S31520004DD08020FFF711FE00214FF48020FFF70CFE04
S31520004DE027E07B681F4A934208D101214020FFF724
S31520004DF0E3FD00214020FFF7DFFD1AE07B681A4A19
S31520004E00934208D101218020FFF7D6FD0021802082
S31520004E10FFF7D2FD0DE07B68144A934209D10121A8
S31520004E204FF48070FFF7C8FD00214FF48070FFF724
S31520004E30C3FD00BF0837BD4680BD00BF000001404E
S31520004E400004004000080040000C00400010004014
S31520004E50001400400004014000400140004401408D
S31520004E600048014000180040001C0040002000407F
S31520004E7080B485B000AF786039600023FB817B6801
S31520004E801B88FB817B68294A934213D07B68284A7A
S31520004E9093420FD07B68B3F1804F0BD07B68254AB5
S31520004EA0934207D07B68244A934203D07B68234AE7
S31520004EB0934208D1FB8923F07003FB813B685A8813
S31520004EC0FB891343FB817B681D4A93420CD07B6888
S31520004ED01C4A934208D0FB8923F44073FB813B682C
S31520004EE01A89FB891343FB817B68FA891A803B6800
S31520004EF05A687B68DA623B681A887B681A857B6801
S31520004F000A4A934203D07B68094A934204D13B68FC
S31520004F109B7A9AB27B681A867B6801229A8200BFA6
S31520004F201437BD465DF8047B704700BF0000014082
S31520004F30000401400004004000080040000C00402E
S31520004F40001000400014004080B483B000AF7860A9
S31520004F507B684FF0FF325A607B6800221A807B689C
S31520004F6000221A817B6800225A807B6800229A726E
S31520004F7000BF0C37BD465DF8047B704780B483B014
S31520004F8000AF78600B467B8013463B807B687A882F
S31520004F901A857B683A889A8200BF0C37BD465DF831
S31520004FA0047B704780B485B000AF78600B467B8069
S31520004FB00023FB817B681B88FB81FB8923F0700320
S31520004FC0FB81FA897B881343FB817B68FA891A80E7
S31520004FD000BF1437BD465DF8047B704780B483B0AC
S31520004FE000AF786039607B683A685A6200BF0C3738
S31520004FF0BD465DF8047B704780B483B000AF78600F
S3152000500039607B683A68DA6200BF0C37BD465DF8C6
S31520005010047B704780B483B000AF78607B685B6A9E
S3152000502018460C37BD465DF8047B704780B483B0C4
S3152000503000AF78607B681B8D9BB218460C37BD4647
S315200050405DF8047B704780B483B000AF78600B4670
S31520005050FB70FB78002B08D07B681B889BB243F043
S3152000506002039AB27B681A8007E07B681B889BB292
S3152000507023F002039AB27B681A8000BF0C37BD4624
S315200050805DF8047B704780B483B000AF78600B4630
S315200050907B807B88002B08D07B681B889BB243F0E3
S315200050A004039AB27B681A8007E07B681B889BB250
S315200050B023F004039AB27B681A8000BF0C37BD46E2
S315200050C05DF8047B704780B483B000AF78600B46F0
S315200050D0FB70FB78002B08D07B681B889BB243F0C3
S315200050E080039AB27B681A8007E07B681B889BB294
S315200050F023F080039AB27B681A8000BF0C37BD4626
S315200051005DF8047B704780B483B000AF78600B46AF
S315200051107B807B681B889BB223F008039AB27B684E
S315200051201A807B681B889AB27B8813439AB27B6865
S315200051301A8000BF0C37BD465DF8047B704780B4EB
S3152000514083B000AF78600B467B807B681B889BB260
S3152000515023F440739AB27B681A807B681B889AB2C4
S315200051607B8813439AB27B681A8000BF0C37BD46F2
S315200051705DF8047B704780B483B000AF78600B463F
S31520005180FB70FB78002B08D07B681B889BB243F012
S3152000519001039AB27B681A8007E07B681B889BB262
S315200051A023F001039AB27B681A8000BF0C37BD46F4
S315200051B05DF8047B704780B485B000AF78603960B5
S315200051C000237B810023FB810023BB817B681B8C12
S315200051D09BB223F001039AB27B681A847B681B8CEE
S315200051E0FB817B689B88BB817B681B8B7B817B8952
S315200051F023F070037B817B8923F003037B813B684B
S315200052001A887B8913437B81FB8923F00203FB8168
S315200052103B689A89FB891343FB813B685A88FB8943
S315200052201343FB817B681F4A934203D07B681E4A47
S31520005230934223D1FB8923F00803FB813B68DA895B
S31520005240FB891343FB81FB8923F00403FB813B6825
S315200052509A88FB891343FB81BB8923F48073BB8126
S31520005260BB8923F40073BB813B681A8ABB8913432D
S31520005270BB813B685A8ABB891343BB817B68BA8949
S315200052809A807B687A891A833B689A687B685A6316
S315200052907B68FA891A8400BF1437BD465DF8047B03
S315200052A0704700BF000001400004014080B485B073
S315200052B000AF7860396000237B810023FB810023C7
S315200052C0BB817B681B8C9BB223F010039AB27B6850
S315200052D01A847B681B8CFB817B689B88BB817B68DF
S315200052E01B8B7B817B8923F4E0437B817B8923F4A1
S315200052F040737B813B681B881B029AB27B891343D0
S315200053007B81FB8923F02003FB813B689B891B0162
S315200053109AB2FB891343FB813B685B881B019AB2D7
S31520005320FB891343FB817B68224A934203D07B6827
S31520005330214A93422BD1FB8923F08003FB813B68D2
S31520005340DB891B019AB2FB891343FB81FB8923F07E
S315200053504003FB813B689B881B019AB2FB89134360
S31520005360FB81BB8923F48063BB81BB8923F4006363
S31520005370BB813B681B8A9B009AB2BB891343BB81C6
S315200053803B685B8A9B009AB2BB891343BB817B68CF
S31520005390BA899A807B687A891A833B689A687B687F
S315200053A09A637B68FA891A8400BF1437BD465DF874
S315200053B0047B7047000001400004014080B485B0A2
S315200053C000AF7860396000237B810023FB810023B6
S315200053D0BB817B681B8C9BB223F480739AB27B685B
S315200053E01A847B681B8CFB817B689B88BB817B68CE
S315200053F09B8B7B817B8923F070037B817B8923F0C8
S3152000540003037B813B681A887B8913437B81FB8955
S3152000541023F40073FB813B689B891B029AB2FB89AC
S315200054201343FB813B685B881B029AB2FB891343BB
S31520005430FB817B68224A934203D07B68214A9342B0
S315200054402BD1FB8923F40063FB813B68DB891B029C
S315200054509AB2FB891343FB81FB8923F48063FB818A
S315200054603B689B881B029AB2FB891343FB81BB894D
S3152000547023F48053BB81BB8923F40053BB813B6853
S315200054801B8A1B019AB2BB891343BB813B685B8A8B
S315200054901B019AB2BB891343BB817B68BA899A8068
S315200054A07B687A899A833B689A687B68DA637B682B
S315200054B0FA891A8400BF1437BD465DF8047B70470D
S315200054C0000001400004014080B485B000AF786040
S315200054D039600023BB8100237B810023FB817B680D
S315200054E01B8C9BB223F480539AB27B681A847B6808
S315200054F01B8C7B817B689B88FB817B689B8BBB811C
