S01600002E2F44656275672F5254532D4C61622E73313936
S3152000000000BFDFF814D001F0A6F904F0B1FD01F02D
S31520000010B4B9FEE700BF000000C00120314900E06E
S315200000203149EFF3088020ED108A7246EFF31183F1
S3152000003020E9FC0F2D4FD7F80080C8F800001EE0FD
S31520000040084600F0A9F82A4800F0A6F8294800F04A
S31520000050A3F8D8F8040000F0EBF8274800F09CF845
S31520000060D8F8000000F0B5F8244800F095F8D8F844
S315200000700000006800F0ADF81D4800F08DF8DFF8AC
S315200000808080D8F80080C7F8008018E01D4800F06E
S3152000009083F8D8F8040000F0CBF81B4800F07CF871
S315200000A0D8F8000000F095F8144800F075F8D8F854
S315200000B00000006800F08DF80D4800F06DF8134A36
S315200000C0536843F00063536000BFD8F80000B0E8DF
S315200000D0FC0F83F311889646B0EC108A80F30888CB
S315200000E0704700009C840020AD84002040850020BD
S315200000F01D850020CE840020E6840020EE8400208A
S31520000100C48B0020F78400200C85002000ED00E041
S3152000011080B483B000AF0346FB71FB7903F01F0365
S31520000120012202FA03F1064A97F907305B0942F8E1
S31520000130231000BF0C37BD465DF8047B704700BF17
S3152000014000E100E080B483B000AF03463960FB7164
S3152000015097F90730002B0BDA3B68DAB20C49FB79AA
S3152000016003F00F03043B1201D2B20B441A7609E0C6
S315200001703B68DAB2074997F907301201D2B20B442D
S3152000018083F8002300BF0C37BD465DF8047B70471B
S3152000019000ED00E000E100E080B582B000AF7860BD
S315200001A00EE07B681B780D2B07D07B685A1C7A6083
S315200001B01B78184600F060F902E07B6801337B600B
S315200001C07B681B78002BECD100BF00BF0837BD46EB
S315200001D080BD80B586B000AF786000237B617B68E8
S315200001E003F00F027B69591C796110498A5C07F17B
S315200001F018010B4403F80C2C7B681B097B607B6879
S31520000200002BECD10AE07B69013B7B6107F10C02F4
S315200002107B6913441B78184600F02EF97B69002B66
S31520000220F1D100BF00BF1837BD4680BD2085002014
S3152000023080B59EB000AF78607B68002B02DA4FF065
S31520000240FF3300E001233B677B683A6F02FB03F331
S315200002507B6000237B6779681C4B83FB01239A1004
S31520000260CB17D21A13469B0013445B00CA1A7B6F26
S31520000270591C796716498A5C07F178010B4403F803
S315200002806C2C7B68114A82FB03129210DB17D31A5F
S315200002907B607B68002BDED13B6F002B0EDA2D2096
S315200002A000F0EAF80AE07B6F013B7B6707F10C025E
S315200002B07B6F13441B78184600F0DEF87B6F002B0B
S315200002C0F1D100BF00BF7837BD4680BD6766666640
S315200002D02085002080B483B000AF10237B607B682C
S315200002E083F3118800BF00BF0C37BD465DF8047B41
S315200002F0704780B483B000AF30237B607B6883F384
S31520000300118800BF00BF0C37BD465DF8047B7047DF
S3152000031080B584B000AF78600B48FFF73DFF0B4BEC
S315200003201B68002B02D1094B094A1A60074B1B6830
S31520000330FB60064B1A687B681344044A1360FB680B
S3152000034018461037BD4680BDF07F0020088F00205C
S31520000350200F012080B485B000AF786039603B68FB
S3152000036003F5F95310337A6813607B681B68BB600A
S315200003700023FB600AE0FB689B001A46BB68134417
S315200003801A4600231360FB680133FB60FB68332B9E
S31520000390F1DDBB686FF016021A60BB6804331A469B
S315200003A003231360BB6884331A464FF080731360AF
S315200003B000BF1437BD465DF8047B704780B485B016
S315200003C000AF786039607B681B688033FB60FB6810
S315200003D03A681A6000BF1437BD465DF8047B704743
S315200003E080B584B000AF1D4801F074FF3B1D184650
S315200003F002F0BCF840F24733BB803B1D1946174834
S3152000040002F048F8164B174A1A6002216FF00100D5
S31520000410FFF798FE144B154A1A6000216FF004006E
S31520000420FFF790FE124B134A1A6002213220FFF783
S3152000043089FE3220FFF76CFE0021084802F0E0F822
S315200004400121064802F0A9F901220221034803F0FE
S3152000045078F900BF1037BD4680BD00BF000C0040B4
S3152000046038C00120210000202CC001201D000020C2
S3152000047008C10120FF07002080B582B000AF0346E7
S31520000480FB71FB799BB21946074805F0E4F800BFDB
S315200004908021054805F0CEFA0346002BF8D000BF90
S315200004A000BF0837BD4680BD0010014080B500AFB3
S315200004B0124802F0C1F803461A46114B1A60114B36
S315200004C001221A60104B00221A60104B1B68002B69
S315200004D006D00E4B1B680E4A12680021104698471C
S315200004E0084B00221A60084B1B68002B01D000F035
S315200004F05DFA054B00221A6000BF80BD000C00404B
S31520000500A88B0020A08B0020A48B0020188C002014
S31520000510B88B002080B500AF124802F08DF8034654
S315200005201A46114B1A60114B01221A60104B0022F9
S315200005301A60104B5B68002B06D00E4B5B680E4A88
S315200005405268012110469847084B00221A60084B32
S315200005501B68002B01D000F029FA054B00221A60F7
S3152000056000BF80BD000C0040A88B0020A08B00207F
S31520000570A48B0020188C0020B88B002080B500AFFB
S31520000580124802F059F803461A46114B1A60114BCD
S3152000059001221A60104B00221A60104B9B68002B18
S315200005A006D00E4B9B680E4A926802211046984749
S315200005B0084B00221A60084B1B68002B01D000F064
S315200005C0F5F9054B00221A6000BF80BD000C0040E3
S315200005D0A88B0020A08B0020A48B0020188C002044
S315200005E0B88B002080B485B000AF786039600023D6
S315200005F0FB603B681B68BB6004E0BB68FB60BB68B4
S315200006001B68BB60BB68002B05D0BB689A687B68FB
S315200006109B689A42F1DD7B68BA681A60FB68002BFA
S3152000062003D13B687A681A6002E0FB687A681A6030
S3152000063000BF1437BD465DF8047B704780B485B093
S3152000064000AF786039600023FB603B681B68BB60A5
S3152000065004E0BB68FB60BB681B68BB60BB68002B03
S3152000066005D0BB685A687B685B689A42F1DD7B6877
S31520000670BA681A60FB68002B03D13B687A681A6057
S3152000068002E0FB687A681A6000BF1437BD465DF841
S31520000690047B704780B584B000AF78607B681B68A8
S315200006A0FB60FB68002B04D0FB681A687B681A6025
S315200006B00CE00948FFF770FD00220221074805F0EB
S315200006C048FC0748FFF768FD30BFFDE7FB68184682
S315200006D01037BD4680BD00BF0880002000040240C0
S315200006E01480002080B584B000AF78607B681B68DA
S315200006F0FB60FB68002B04D0FB681A687B681A60D5
S315200007000CE00948FFF748FD00220221074805F0C2
S3152000071020FC0748FFF740FD30BFFDE7FB68184681
S315200007201037BD4680BD00BF08800020000402406F
S315200007302080002080B483B000AF786039603B68A9
S315200007401A687B681A603B687A681A6000BF0C37A3
S31520000750BD465DF8047B704780B483B000AF7860F7
S3152000076039603B681A687B689A603B687A681A60C9
S3152000077000BF0C37BD465DF8047B704780B485B05A
S3152000078000AF78607B681B68FB60FB689A687B68B3
S315200007901A60FB6818461437BD465DF8047B70471F
S315200007A080B485B000AF786039600023FB603B6879
S315200007B01B68BB6004E0BB68FB60BB681B68BB6052
S315200007C0BB68002B03D0BA687B689A42F3D1BB681A
S315200007D0002B0DD0FB68002B04D0BB681A68FB6881
S315200007E01A6003E0BB681A683B681A60012300E0C0
S315200007F0002318461437BD465DF8047B704780B544
S3152000080082B000AF02211E4803F025F81C4801F0F3
S3152000081013FF03467B6007E01A48FFF73BFF0346BA
S3152000082019491846FFF7DEFE164B1B68002B06D02B
S31520000830144B1B685A687B68D31A002BECDD114BCE
S315200008401B68002B16D00E4801F0F6FE03463B60CF
S315200008500C4B1B685B683A689A4204DD0022022131
S315200008600A4805F076FB074B1B685B681946044867
S3152000087002F021FA00F09AF800BF0837BD4680BD85
S31520000880000C00409C8B0020988B00200004024026
S315200008900346024A136010DFF74600BFC48B0020D0
S315200008A00346054A1360054B5B68044A43F08053B0
S315200008B05360F74600BF00BFC48B002000ED00E068
S315200008C080B582B000AF7860094B5B68C3F308033C
S315200008D0002B03D17868FFF7DBFF02E07868FFF78B
S315200008E0DFFFFFF706FD00BF0837BD4680BD00BF0E
S315200008F000ED00E090B585B000AF234B1C6823487F
S31520000900FFF7C8FE0346E360E368BB60FFF7F1FC30
S31520000910BB68D868BB681969BB685B691A4600F072
S3152000092015F9FFF7D7FC1A49B868FFF703FF194BEB
S315200009301B689B68DB687B60144B1B68002B0AD006
S315200009407B68002BD9D0114B1B689A687B689B6803
S31520000950D31A002BD1DD0F48FFF710FF03460E49AF
S315200009601846FFF7F9FE0B4B1B68FB6003E0FB689C
S315200009701B691B68FB60FB681B69002BF7D1F868B5
S31520000980FFF79EFFB9E700BF40850020988B002027
S31520000990348500203C8500203885002080B500AFB6
S315200009A000F004F8FFF7A5FC30BFFBE780B582B066
S315200009B000AF144B1B68DB687B60134B1B68002B56
S315200009C01BD0124B1B68002B17D07B68002B07D03F
S315200009D00D4B1B689A687B689B68D31A002B0CDA30
S315200009E00A48FFF7CBFE034606491846FFF7B4FE32
S315200009F0044B1B681846FFF763FF00BF0837BD4648
S31520000A0080BD00BF3C850020988B002038850020C3
S31520000A1080B588B000AFF860B9607A603B60EFF3CC
S31520000A2012833B613B691B09012B14BF0123002361
S31520000A30DBB2FB77FFF74EFC3A48FFF753FEB8616F
S31520000A40BB697A68DA60BB693A681A61BB69BA6AB7
S31520000A505A61354B1B68002B04D1344B1B68DB686D
S31520000A605B6801E0324B1B68FA681A44BB695A601E
S31520000A70BB695A68BB68002B01DDBB6801E06FF0DB
S31520000A8000431A44BB699A602A4801F0D5FD034603
S31520000A907B61BB695A687B69D31A002B16DD264910
S31520000AA0B869FFF7CBFD244B1B685B687A699A42CD
S31520000AB004DD00220221214805F04BFA1E4B1B685B
S31520000AC05B6819461B4802F0F6F821E01C49B86914
S31520000AD0FFF788FDFB7F002B1AD01A4B1B68002BD3
S31520000AE016D0174B1B689A68174B1B68DB689B68E8
S31520000AF0D31A002B0CDA1348FFF740FE034612499F
S31520000B001846FFF729FE104B1B681846FFF7D8FE3C
S31520000B10FB7F002B01D0FFF7ECFBBB691846203783
S31520000B20BD4680BD34850020A08B00204085002056
S31520000B30A88B0020000C00409C8B00200004024063
S31520000B40988B0020388500203C85002080B588B011
S31520000B5000AFF860B9607A60EFF312833B613B69BE
S31520000B601B09012B14BF01230023DBB2FB76FFF701
S31520000B70B1FBFB681B68FB61FB69002B37D003E0E8
S31520000B80FB691B691B68FB61FB691B69002BF7D19D
S31520000B90304B1B68FA699A4202D0FB7E002B07D1A4
S31520000BA0FB7E002B01D0FFF7A4FB4FF0FF334DE077
S31520000BB0FB685B68002B03D0FB685B6800221A6128
S31520000BC0244B1A68FB685A60224B1B68FA681A6124
S31520000BD0F869FFF775FE1F4B1B68DB68002B06D1F3
S31520000BE0FB7E002B01D0FFF784FB00232EE0194B60
S31520000BF01A68FB681A60FB7E002B05D0FB685B68D1
S31520000C00012B01D0FFF775FBBB687968F868984718
S31520000C107861FFF75FFBFB6800221A60FB685B6860
S31520000C20FB61FB69002B0BD0FB69012B08D0FB680D
S31520000C3000225A60FB6900221A61F869FFF740FE1C
S31520000C40FB7E002B01D0FFF754FB7B69184620372B
S31520000C50BD4680BD4085002080B586B000AF786057
S31520000C60EFF31283FB60FB681B09012B14BF0123E2
S31520000C700023DBB2FB74FFF72DFB1F497868FFF7D3
S31520000C808FFD0346002B06D11C497868FFF788FDA7
S31520000C900346002B04D01A497868FFF74BFD21E064
S31520000CA0184B1B687B611AE0174B1B687A699A42BE
S31520000CB012D07B69DB687A689A420DD17B691A6902
S31520000CC07B68DB689A4207D17B690022DA600C498F
S31520000CD07868FFF72FFD05E07B699B687B617B6960
S31520000CE0002BE1D1FB7C002B01D0FFF702FB00BFDC
S31520000CF01837BD4680BD00BF9C8B0020988B0020F6
S31520000D00348500203C8500204085002080B485B0B5
S31520000D1000AF7860EFF31283FB60FB681B09012BA1
S31520000D2004D0074B1B68DB685B6801E0054B1B683A
S31520000D307A68136000BF1437BD465DF8047B7047A0
S31520000D4040850020A88B002080B485B000AF786055
S31520000D50EFF31283FB60FB681B09012B04D0084BC1
S31520000D601B68DB685B6801E0064B1B687A681268C3
S31520000D709B1A18461437BD465DF8047B704700BFA2
S31520000D8040850020A88B002080B584B000AFEFF30B
S31520000D9012837B607B681B09012B14BF0123002370
S31520000DA0DBB2FB73FFF796FA0C4801F045FC0346CD
S31520000DB0BB60FB7B002B01D0FFF79BFAFB7B002B54
S31520000DC004D0074B1B68DB685B6801E0054B1B689A
S31520000DD0BA68D31A18461037BD4680BD000C0040AD
S31520000DE040850020A88B002080B582B000AF00236C
S31520000DF07B6012E07B685A1C13465B001344DB00C1
S31520000E00444A991843487A6813465B001344DB002A
S31520000E10034419607B6801337B607B681C2BE9DD0A
S31520000E203C4B0022C3F8B82200237B6013E07B688A
S31520000E305A1C13469B0013449B00374A9918364880
S31520000E407A6813469B0013449B00034408331960B9
S31520000E507B6801337B607B68022BE8DD2E4B00220A
S31520000E605A6400237B6030E02B497A6813469B0046
S31520000E7013449B000B4404337A681A607A6813463D
S31520000E809B0013449B00244A1A447B685B03234936
S31520000E900B4419461046FFF75DFA7A6813469B0005
S31520000EA013449B001C4A13441D491846FFF786FA33
S31520000EB019497A6813469B0013449B000B44103350
S31520000EC000221A607B6801337B607B68032BCBDDB5
S31520000ED0144B4FF0FF325A60124B00229A60114B8E
S31520000EE000221A610F4B0022DA600F48FFF754F9EF
S31520000EF00E48FFF751F90E48FFF74EF90A48FFF75B
S31520000F004BF90948FFF748F9FFF76AFA00BF083797
S31520000F10BD4680BD388C0020C88B0020108F002055
S31520000F20F5080020248C00202C8000203080002012
S31520000F303C80002080B586B000AFF860B9601346CB
S31520000F40FB71FB79022B41D8EFF312833B613B699E
S31520000F501B09012B14BF01230023DBB2FB75FFF70E
S31520000F60B9F9FB79022B0ED0022B10DC002B02D014
S31520000F70012B04D00BE0174B174A1A6014E0174BCD
S31520000F80174A1A6010E0174B174A1A600CE01748E8
S31520000F90FFF702F900220221154804F0DAFF15486E
S31520000FA0FFF7FAF830BFFDE7FB791349FA6841F8F5
S31520000FB02320FB791149BA6841F82320FB680122D6
S31520000FC05A60FB7D002B01D0FFF793F900BF18373D
S31520000FD0BD4680BDD4C00120AD04002090C00120B4
S31520000FE0150500209CC001207D05002008800020DA
S31520000FF00004024054800020B88B0020188C00206A
S3152000100080B586B002AFF860B9607A60FFF762F902
S31520001010FFF7EAFEBB68002B16D00F4801F00CFB49
S3152000102003461A460D4B1A600D4B01221A607B6847
S315200010300093BB68FA6800210020FFF7E9FC084B03
S3152000104000221A60FFF7B2FCFFF7A8FC002318461F
S315200010501037BD4680BD00BF000C0040A88B002085
S31520001060A08B002080B400AF00BFBD465DF8047B96
S31520001070704780B586B000AF454804F081FD4548ED
S3152000108004F0EAFF444804F0E7FF01214FF0007026
S3152000109000F004FF01214FF0806000F0FFFE0121E7
S315200010A0022000F09BFE09220921394804F08AFF1C
S315200010B009220821364804F085FF07F11003184657
S315200010C004F09FFE4FF400733B6102233B7500231F
S315200010D0BB750023FB7502237B7507F110031946A8
S315200010E02B4804F0FFFD4FF480733B6102233B75D0
S315200010F00023BB750123FB7502237B7507F11003C3
S315200011001946234804F0EEFD09220621204804F062
S3152000111059FF092205211E4804F054FF40233B6154
S3152000112002233B750023BB750023FB7502237B75C9
S3152000113007F110031946164804F0D4FD20233B611D
S3152000114002233B750023BB750123FB7502237B75A8
S3152000115007F1100319460E4804F0C4FD0023BB72A4
S315200011600023FB7201233B7300233B8000237B80FB
S315200011700023BB800023FB8000233B8101237B735C
S315200011803B46184605F05DF800BF1837BD4680BDC2
S3152000119000040240006400400068004080B586B02C
S315200011A000AF01214FF0005000F078FE07F1100348
S315200011B0184604F026FE20233B6103233B750023BB
S315200011C0FB7507F1100319460F4804F08BFD03F059
S315200011D0F7FD3B46184603F035FE00233B6000230F
S315200011E07B600023FB603B461946102003F0F6FD8A
S315200011F00121102003F03CFE0021082003F0E6FE2A
S3152000120000BF1837BD4680BD0000024080B584B0BF
S3152000121000AF01214FF4804000F060FE072101203D
S3152000122006F022F803F0C4FC3B46184603F04CFDBA
S3152000123080233B6000233B710C237B710123BB7110
S315200012403B46184603F0CEFC07F10803184604F087
S31520001250D8FD0223BB6001233B730123BB7300230C
S31520001260FB7301237B7307F108031946184804F022
S3152000127039FD0123BB6001233B730123BB7300238C
S31520001280FB7301237B7307F108031946104804F00A
S3152000129029FD012202210E4804F05BFE01220121D4
S315200012A00B4804F056FE8023BB6000233B730023CB
S315200012B0BB730023FB7301237B7307F108031946D5
S315200012C0034804F00FFD00BF1037BD4680BD00BFA8
S315200012D00004024080B483B000AFEFF314833B6078
S315200012E03B6823F003037B607B6883F3148800BF8D
S315200012F0094B4FF404725A61074B5B69064A43F067
S3152000130008035361054B4FF000425A6000BF0C376B
S31520001310BD465DF8047B704700ED00E030EF00E04D
S3152000132080B500AF0121082000F0B8FD012108207A
S3152000133000F0F4FE00BF80BD80B400AF124A02E088
S31520001340002342F8043B114B9A42F9D300BFBD4615
S315200013505DF8047B704780B500AFFFF7EDFFFFF720
S3152000136081FEFFF786FEFFF719FFFFF74FFFFFF716
S31520001370B1FFFFF7D5FF00BF80BD80B400AF00BF2F
S31520001380BD465DF8047B7047988B0020200F012016
S3152000139080B483B000AF0346FB71FB7903F01F03D3
S315200013A0012202FA03F1064A97F907305B0942F84F
S315200013B0231000BF0C37BD465DF8047B704700BF85
S315200013C000E100E080B483B000AF03463960FB71D2
S315200013D097F90730002B0BDA3B68DAB20C49FB7918
S315200013E003F00F03043B1201D2B20B441A7609E034
S315200013F03B68DAB2074997F907301201D2B20B449B
S3152000140083F8002300BF0C37BD465DF8047B704788
S3152000141000ED00E000E100E080B582B000AF78602A
S3152000142039607B6800229A617B689A697B685A6179
S315200014307B685A697B68DA61012240F225510A48A5
S3152000144004F0B0FA002240F22771074804F0AAFA05
S3152000145002212520FFF7B6FF2520FFF799FF00BFC1
S315200014600837BD4680BD00BF0010014080B483B060
S3152000147000AF78600B46FB707B68DB69B3F5806F45
S3152000148017DA7B685B697A681344FA7883F8202038
S315200014907B685B6901335A42C3F30903C2F309022D
S315200014A058BF53427A6853617B68DB695A1C7B6854
S315200014B0DA6100BF0C37BD465DF8047B704780B506
S315200014C082B000AF786039607B68DB69002B18D169
S315200014D07B689B68012240F22771184604F062FA65
S315200014E00FE03B681B780A2B03D10D217868FFF7A4
S315200014F0BDFF3B685A1C3A601B7819467868FFF78F
S31520001500B5FF3B681B78002BEBD100BF00BF083727
S31520001510BD4680BD80B582B000AF786039607B68FB
S31520001520DB69002B07D17B689B68012240F227717B
S31520001530184604F037FA3B68DBB219467868FFF79D
S3152000154095FF00BF0837BD4680BD80B586B002AF87
S31520001550786039607B689B682021184604F06AFA17
S315200015600346012B18D17B689B68184604F085F842
S315200015700346FB607B68DB68002B0DD07B68DA684E
S315200015807B681969FB6800930B4600210020FFF752
S315200015903FFA234B01221A607B689B6880211846FC
S315200015A004F048FA0346012B35D17B68DB69002B12
S315200015B029DD7B6898687B689B697A68134493F871
S315200015C020309BB2194604F046F87B689B690133AC
S315200015D05A42C3F30903C2F3090258BF53427A6839
S315200015E093617B68DB695A1E7B68DA617B68DB69FD
S315200015F0002B10D17B689B68002240F22771184689
S3152000160004F0D0F907E07B689B68002240F227713E
S31520001610184604F0C7F9002318461037BD4680BD8A
S31520001620A48B002080B400AF164B1B68154A43F0EC
S3152000163001031360134B00229A60124B1B68114A58
S3152000164023F0A85323F4102313600E4B0E4A5A603E
S315200016500C4B0E4AC3F884200A4B0D4AC3F8882047
S31520001660084B1B68074A23F480231360054B00228E
S31520001670DA60044B0022C3F88C2000BFBD465DF81B
S31520001680047B7047003802401030002400300020D0
S315200016900030002480B483B000AF0346FB71064BB4
S315200016A000221A70044AFB79137000BF0C37BD461E
S315200016B05DF8047B704700BF0238024080B582B0D7
S315200016C000AF00233B600023FB710023BB71312058
S315200016D000F08AFD0346BB713B6801333B603B68E3
S315200016E0B3F5A04F02D0BB79002BF0D0312000F00B
S315200016F07BFD0346002B02D00123FB7101E0002372
S31520001700FB71FB7918460837BD4680BD80B485B08D
S3152000171000AF0346FB710023FB600A4B1B68FB608E
S31520001720FB6823F0F803FB60FB79DB00FA681343C0
S31520001730FB60044AFB68136000BF1437BD465DF8A2
S31520001740047B70470038024080B483B000AF034664
S31520001750FB71044AFB79136000BF0C37BD465DF868
S31520001760047B70470000474280B483B000AF034635
S31520001770FB710D4B00221A700B4B00221A70FB795D
S31520001780012B02D0042B04D007E0074B01221A704C
S3152000179003E0054B05221A7000BF00BF0C37BD467B
S315200017A05DF8047B704700BF7038024080B483B078
S315200017B000AF0346FB71044AFB79136000BF0C3768
S315200017C0BD465DF8047B7047800E474280B485B0E5
S315200017D000AFF860B9607A603B607B689A01BB68AD
S315200017E01A433B685B08013B1B041A43FB681A43F8
S315200017F0BB691B06044913434B6000BF1437BD4623
S315200018005DF8047B704700BF0038024080B483B087
S3152000181000AF0346FB71044AFB79136000BF0C3707
S31520001820BD465DF8047B70476000474280B483B0B4
S3152000183000AF786039607B689A013B681B070549D1
S315200018401343C1F8843000BF0C37BD465DF8047BD6
S31520001850704700BF0038024080B483B000AF034613
S31520001860FB71044AFB79136000BF0C37BD465DF857
S31520001870047B70476800474280B485B000AFF860AB
S31520001880B9607A60FB689A01BB681B061A437B68BD
S315200018901B0705491343C1F8883000BF1437BD46DE
S315200018A05DF8047B704700BF0038024080B483B0E7
S315200018B000AF0346FB71044AFB79136000BF0C3767
S315200018C0BD465DF8047B70477000474280B483B004
S315200018D000AF0346FB71044AFB79136000BF0C3747
S315200018E0BD465DF8047B70474C00474280B485B006
S315200018F000AF786039600023FB600B4B9B68FB6070
S31520001900FB6823F0EC63FB607A683B681343FA6854
S315200019101343FB60044AFB68936000BF1437BD463F
S315200019205DF8047B704700BF0038024080B485B064
S3152000193000AF786039600023FB600B4B9B68FB602F
S31520001940FB6823F07843FB607A683B681343FA68A8
S315200019501343FB60044AFB68936000BF1437BD46FF
S315200019605DF8047B704700BF0038024080B485B024
S3152000197000AF78600023FB60094B9B68FB60FB6827
S3152000198023F00303FB60FA687B681343FB60044A79
S31520001990FB68936000BF1437BD465DF8047B704733
S315200019A00038024080B400AF054B9B68DBB203F0E1
S315200019B00C03DBB21846BD465DF8047B704700BFBA
S315200019C00038024080B485B000AF78600023FB6009
S315200019D0094B9B68FB60FB6823F0F003FB60FA6809
S315200019E07B681343FB60044AFB68936000BF14378F
S315200019F0BD465DF8047B70470038024080B485B050
S31520001A0000AF78600023FB60094B9B68FB60FB6896
S31520001A1023F4E053FB60FA687B681343FB60044AB7
S31520001A20FB68936000BF1437BD465DF8047B7047A2
S31520001A300038024080B485B000AF78600023FB6098
S31520001A400A4B9B68FB60FB6823F46043FB607B6862
S31520001A50DB00FA681343FB60044AFB68936000BF0F
S31520001A601437BD465DF8047B704700BF003802403E
S31520001A7080B489B000AF78600023BB6100237B610E
S31520001A800023FB6102233B610023FB600223BB6032
S31520001A904A4B9B6803F00C03BB61BB69082B11D032
S31520001AA0BB69082B44D8BB69002B03D0BB69042B28
S31520001AB004D03DE07B68424A1A603DE07B68414A9B
S31520001AC01A6039E03D4B5B689B0D03F00103FB6018
S31520001AD03A4B5B6803F03F03BB60FB68002B0CD0DE
S31520001AE0384ABB68B2FBF3F3344A52689209C2F310
S31520001AF0080202FB03F3FB610BE0314ABB68B2FB31
S31520001B00F3F32E4A52689209C2F3080202FB03F34A
S31520001B10FB612A4B5B681B0C03F0030301335B005C
S31520001B203B61FA693B69B2FBF3F27B681A6003E01A
S31520001B307B68234A1A6000BF204B9B6803F0F003A2
S31520001B40BB61BB691B09BB611F4ABB6913441B7878
S31520001B50DBB27B617B681A687B69DA407B685A60F6
S31520001B60164B9B6803F4E053BB61BB699B0ABB61C0
S31520001B70154ABB6913441B78DBB27B617B685A68C4
S31520001B807B69DA407B689A600C4B9B6803F4604360
S31520001B90BB61BB695B0BBB610B4ABB6913441B78FA
S31520001BA0DBB27B617B685A687B69DA407B68DA60E6
S31520001BB000BF2437BD465DF8047B704700380240DD
S31520001BC00024F40000127A004485002080B485B0F9
S31520001BD000AF78600023FB607B6803F44073B3F5A5
S31520001BE0407F11D10F4B9B68FB60FB6823F4F813F1
S31520001BF0FB607B6823F0704323F44073FA68134339
S31520001C00FB60084AFB689360064B1A6F7B68C3F338
S31520001C100B03044913430B6700BF1437BD465DF819
S31520001C20047B70470038024080B483B000AF03467F
S31520001C30FB71044AFB79136000BF0C37BD465DF883
S31520001C40047B70473C0E474280B483B000AF034606
S31520001C50FB71044AFB79136000BF0C37BD465DF863
S31520001C60047B7047400E474280B483B000AF786053
S31520001C70044A7B68136000BF0C37BD465DF8047BC1
S31520001C80704700BF5C01474280B485B000AF7860E2
S31520001C900023FB600B4BD3F88C30FB60FB6823F0F2
S31520001CA01F03FB607B68013BFA681343FB60054A10
S31520001CB0FB68C2F88C3000BF1437BD465DF8047B44
S31520001CC0704700BF0038024080B485B000AF78600E
S31520001CD00023FB600B4BD3F88C30FB60FB6823F4AE
S31520001CE0F853FB607B68013B1B02FA681343FB60D9
S31520001CF0044AFB68C2F88C3000BF1437BD465DF835
S31520001D00047B70470038024080B485B000AF78600D
S31520001D100023FB600A4BD3F88C30FB60FB6823F46E
S31520001D204013FB60FA687B681343FB60044AFB6838
S31520001D30C2F88C3000BF1437BD465DF8047B70476F
S31520001D400038024080B485B000AF78600023FB6085
S31520001D500A4BD3F88C30FB60FB6823F44003FB600E
S31520001D60FA687B681343FB60044AFB68C2F88C3030
S31520001D7000BF1437BD465DF8047B7047003802402B
S31520001D8080B485B000AF78600023FB600A4BD3F89F
S31520001D908C30FB60FB6823F44033FB60FA687B6879
S31520001DA01343FB60044AFB68C2F88C3000BF14372B
S31520001DB0BD465DF8047B70470038024080B483B08E
S31520001DC000AF7860044A7B68136000BF0C37BD46BD
S31520001DD05DF8047B704700BFE011474280B483B0B2
S31520001DE000AF78600B46FB70FB78002B06D00A4BC1
S31520001DF01A6B09497B6813430B6306E0064B1A6B83
S31520001E007B68DB43044913400B6300BF0C37BD4698
S31520001E105DF8047B704700BF0038024080B483B071
S31520001E2000AF78600B46FB70FB78002B06D00A4B80
S31520001E305A6B09497B6813434B6306E0064B5A6B82
S31520001E407B68DB43044913404B6300BF0C37BD4618
S31520001E505DF8047B704700BF0038024080B483B031
S31520001E6000AF78600B46FB70FB78002B06D00A4B40
S31520001E709A6B09497B6813438B6306E0064B9A6B82
S31520001E807B68DB43044913408B6300BF0C37BD4698
S31520001E905DF8047B704700BF0038024080B483B0F1
S31520001EA000AF78600B46FB70FB78002B06D00A4B00
S31520001EB01A6C09497B6813430B6406E0064B1A6CBF
S31520001EC07B68DB43044913400B6400BF0C37BD46D7
S31520001ED05DF8047B704700BF0038024080B483B0B1
S31520001EE000AF78600B46FB70FB78002B06D00A4BC0
S31520001EF05A6C09497B6813434B6406E0064B5A6CBF
S31520001F007B68DB43044913404B6400BF0C37BD4656
S31520001F105DF8047B704700BF0038024080B483B070
S31520001F2000AF78600B46FB70FB78002B06D00A4B7F
S31520001F301A6909497B6813430B6106E0064B1A6947
S31520001F407B68DB43044913400B6100BF0C37BD4659
S31520001F505DF8047B704700BF0038024080B483B030
S31520001F6000AF78600B46FB70FB78002B06D00A4B3F
S31520001F705A6909497B6813434B6106E0064B5A6947
S31520001F807B68DB43044913404B6100BF0C37BD46D9
S31520001F905DF8047B704700BF0038024080B483B0F0
S31520001FA000AF78600B46FB70FB78002B06D00A4BFF
S31520001FB09A6909497B6813438B6106E0064B9A6947
S31520001FC07B68DB43044913408B6100BF0C37BD4659
S31520001FD05DF8047B704700BF0038024080B483B0B0
S31520001FE000AF78600B46FB70FB78002B06D00A4BBF
S31520001FF01A6A09497B6813430B6206E0064B1A6A84
S315200020007B68DB43044913400B6200BF0C37BD4697
S315200020105DF8047B704700BF0038024080B483B06F
S3152000202000AF78600B46FB70FB78002B06D00A4B7E
S315200020305A6A09497B6813434B6206E0064B5A6A83
S315200020407B68DB43044913404B6200BF0C37BD4617
S315200020505DF8047B704700BF0038024080B483B02F
S3152000206000AF78600B46FB70FB78002B06D00A4B3E
S315200020701A6D09497B6813430B6506E0064B1A6DFA
S315200020807B68DB43044913400B6500BF0C37BD4614
S315200020905DF8047B704700BF0038024080B483B0EF
S315200020A000AF78600B46FB70FB78002B06D00A4BFE
S315200020B05A6D09497B6813434B6506E0064B5A6DFA
S315200020C07B68DB43044913404B6500BF0C37BD4694
S315200020D05DF8047B704700BF0038024080B483B0AF
S315200020E000AF78600B46FB70FB78002B06D00A4BBE
S315200020F09A6D09497B6813438B6506E0064B9A6DFA
S315200021007B68DB43044913408B6500BF0C37BD4613
S315200021105DF8047B704700BF0038024080B483B06E
S3152000212000AF78600B46FB70FB78002B06D00A4B7D
S315200021301A6E09497B6813430B6606E0064B1A6E36
S315200021407B68DB43044913400B6600BF0C37BD4652
S315200021505DF8047B704700BF0038024080B483B02E
S3152000216000AF78600B46FB70FB78002B06D00A4B3D
S315200021705A6E09497B6813434B6606E0064B5A6E36
S315200021807B68DB43044913404B6600BF0C37BD46D2
S315200021905DF8047B704700BF0038024080B483B0EE
S315200021A000AF03460A46FB711346BB71BB79002B71
S315200021B008D00C4B1B78DAB20A49FB791343DBB201
S315200021C00B7009E0074B1B78DAB2FB79DB43DBB2F5
S315200021D004491340DBB20B7000BF0C37BD465DF8D7
S315200021E0047B70470D38024080B487B000AF0346A9
S315200021F0FB710023FB6000237B610023FB74FB79CA
S315200022005B09DBB2FB60FB68012B03D1124B1B6819
S315200022107B6109E0FB68022B03D10F4B1B6F7B61AF
S3152000222002E00D4B5B6F7B61FB7903F01F03FB60C4
S315200022307A69FB6822FA03F303F00103002B02D02C
S315200022400123FB7401E00023FB74FB7C18461C373A
S31520002250BD465DF8047B70470038024080B400AF6D
S31520002260054B5B6F044A43F08073536700BFBD463E
S315200022705DF8047B704700BF0038024080B485B00B
S3152000228000AF0346FB710023FB73094BDA68FB7929
S315200022901340002B02D00123FB7301E00023FB73C4
S315200022A0FB7B18461437BD465DF8047B704700BF9C
S315200022B00038024080B483B000AF0346FB71044A65
S315200022C0FB79137000BF0C37BD465DF8047B704761
S315200022D00E38024080B582B000AF78607B68604AD5
S315200022E0934208D101210120FFF798FE0021012009
S315200022F0FFF794FEAFE07B68B3F1804F08D1012150
S315200023000120FFF76BFE00210120FFF767FEA2E008
S315200023107B68544A934208D101210220FFF75EFED2
S3152000232000210220FFF75AFE95E07B684E4A934231
S3152000233008D101210420FFF751FE00210420FFF7D8
S315200023404DFE88E07B68494A934208D10121082046
S31520002350FFF744FE00210820FFF740FE7BE07B6864
S31520002360434A934208D101211020FFF737FE00216E
S315200023701020FFF733FE6EE07B683E4A934208D179
S3152000238001212020FFF72AFE00212020FFF726FE2C
S3152000239061E07B68384A934208D101210220FFF789
S315200023A03DFE00210220FFF739FE54E07B68334AC8
S315200023B093420AD101214FF48030FFF72FFE0021EE
S315200023C04FF48030FFF72AFE45E07B682C4A934283
S315200023D00AD101214FF40030FFF720FE00214FF4EF
S315200023E00030FFF71BFE36E07B68264A93420AD16F
S315200023F001214FF48020FFF711FE00214FF48020A9
S31520002400FFF70CFE27E07B681F4A934208D1012183
S315200024104020FFF7E3FD00214020FFF7DFFD1AE013
S315200024207B681A4A934208D101218020FFF7D6FD06
S3152000243000218020FFF7D2FD0DE07B68144A9342ED
S3152000244009D101214FF48070FFF7C8FD00214FF418
S315200024508070FFF7C3FD00BF0837BD4680BD00BFB3
S31520002460000001400004004000080040000C00402D
S3152000247000100040001400400004014000400140CC
S31520002480004401400048014000180040001C004064
S315200024900020004080B485B000AF7860396000230A
S315200024A0FB817B681B88FB817B68294A934213D07A
S315200024B07B68284A93420FD07B68B3F1804F0BD0BC
S315200024C07B68254A934207D07B68244A934203D0EF
S315200024D07B68234A934208D1FB8923F07003FB8152
S315200024E03B685A88FB891343FB817B681D4A9342CC
S315200024F00CD07B681C4A934208D0FB8923F4407396
S31520002500FB813B681A89FB891343FB817B68FA8927
S315200025101A803B685A687B68DA623B681A887B684F
S315200025201A857B680A4A934203D07B68094A9342FC
S3152000253004D13B689B7A9AB27B681A867B68012213
S315200025409A8200BF1437BD465DF8047B704700BFF2
S315200025500000014000040140000400400008004043
S31520002560000C0040001000400014004080B483B0EE
S3152000257000AF78607B684FF0FF325A607B6800229C
S315200025801A807B6800221A817B6800225A807B6829
S3152000259000229A7200BF0C37BD465DF8047B704757
S315200025A080B483B000AF78600B467B8013463B80B7
S315200025B07B687A881A857B683A889A8200BF0C37AE
S315200025C0BD465DF8047B704780B485B000AF786067
S315200025D00B467B800023FB817B681B88FB81FB8964
S315200025E023F07003FB81FA897B881343FB817B6888
S315200025F0FA891A8000BF1437BD465DF8047B704700
S3152000260080B483B000AF786039607B683A685A62DC
S3152000261000BF0C37BD465DF8047B704780B483B09D
S3152000262000AF786039607B683A68DA6200BF0C37A1
S31520002630BD465DF8047B704780B483B000AF7860F8
S315200026407B685B6A18460C37BD465DF8047B70478D
S3152000265080B483B000AF78607B681B8D9BB2184630
S315200026600C37BD465DF8047B704780B483B000AF5D
S3152000267078600B46FB70FB78002B08D07B681B88A4
S315200026809BB243F002039AB27B681A8007E07B680C
S315200026901B889BB223F002039AB27B681A8000BF84
S315200026A00C37BD465DF8047B704780B483B000AF1D
S315200026B078600B467B807B88002B08D07B681B8844
S315200026C09BB243F004039AB27B681A8007E07B68CA
S315200026D01B889BB223F004039AB27B681A8000BF42
S315200026E00C37BD465DF8047B704780B483B000AFDD
S315200026F078600B46FB70FB78002B08D07B681B8824
S315200027009BB243F080039AB27B681A8007E07B680D
S315200027101B889BB223F080039AB27B681A8000BF85
S315200027200C37BD465DF8047B704780B483B000AF9C
S3152000273078600B467B807B681B889BB223F008035E
S315200027409AB27B681A807B681B889AB27B8813436F
S315200027509AB27B681A8000BF0C37BD465DF8047BB1
S31520002760704780B483B000AF78600B467B807B686F
S315200027701B889BB223F440739AB27B681A807B68CD
S315200027801B889AB27B8813439AB27B681A8000BF53
S315200027900C37BD465DF8047B704780B483B000AF2C
S315200027A078600B46FB70FB78002B08D07B681B8873
S315200027B09BB243F001039AB27B681A8007E07B68DC
S315200027C01B889BB223F001039AB27B681A8000BF54
S315200027D00C37BD465DF8047B704780B485B000AFEA
S315200027E07860396000237B810023FB810023BB8135
S315200027F07B681B8C9BB223F001039AB27B681A84F8
S315200028007B681B8CFB817B689B88BB817B681B8BD1
S315200028107B817B8923F070037B817B8923F00303F3
S315200028207B813B681A887B8913437B81FB8923F054
S315200028300203FB813B689A89FB891343FB813B6832
S315200028405A88FB891343FB817B681F4A934203D036
S315200028507B681E4A934223D1FB8923F00803FB8120
S315200028603B68DA89FB891343FB81FB8923F0040348
S31520002870FB813B689A88FB891343FB81BB8923F440
S315200028808073BB81BB8923F40073BB813B681A8AA2
S31520002890BB891343BB813B685A8ABB891343BB81DF
S315200028A07B68BA899A807B687A891A833B689A689A
S315200028B07B685A637B68FA891A8400BF1437BD4641
S315200028C05DF8047B704700BF000001400004014012
S315200028D080B485B000AF7860396000237B81002307
S315200028E0FB810023BB817B681B8C9BB223F01003EA
S315200028F09AB27B681A847B681B8CFB817B689B88D9
S31520002900BB817B681B8B7B817B8923F4E0437B81A6
S315200029107B8923F440737B813B681B881B029AB218
S315200029207B8913437B81FB8923F02003FB813B6852
S315200029309B891B019AB2FB891343FB813B685B8809
S315200029401B019AB2FB891343FB817B68224A93427F
S3152000295003D07B68214A93422BD1FB8923F0800345
S31520002960FB813B68DB891B019AB2FB891343FB8100
S31520002970FB8923F04003FB813B689B881B019AB2AD
S31520002980FB891343FB81BB8923F48063BB81BB890D
S3152000299023F40063BB813B681B8A9B009AB2BB89E8
S315200029A01343BB813B685B8A9B009AB2BB89134366
S315200029B0BB817B68BA899A807B687A891A833B684F
S315200029C09A687B689A637B68FA891A8400BF1437F1
S315200029D0BD465DF8047B70470000014000040140BD
S315200029E080B485B000AF7860396000237B810023F6
S315200029F0FB810023BB817B681B8C9BB223F48073F5
S31520002A009AB27B681A847B681B8CFB817B689B88C7
S31520002A10BB817B689B8B7B817B8923F070037B81C9
S31520002A207B8923F003037B813B681A887B891343C8
S31520002A307B81FB8923F40073FB813B689B891B0206
S31520002A409AB2FB891343FB813B685B881B029AB2CF
S31520002A50FB891343FB817B68224A934203D07B6820
S31520002A60214A93422BD1FB8923F40063FB813B68E7
S31520002A70DB891B029AB2FB891343FB81FB8923F472
S31520002A808063FB813B689B881B029AB2FB891343B8
S31520002A90FB81BB8923F48053BB81BB8923F400537C
S31520002AA0BB813B681B8A1B019AB2BB891343BB813E
S31520002AB03B685B8A1B019AB2BB891343BB817B6847
S31520002AC0BA899A807B687A899A833B689A687B68F8
S31520002AD0DA637B68FA891A8400BF1437BD465DF82D
S31520002AE0047B7047000001400004014080B485B09B
S31520002AF000AF786039600023BB8100237B810023EF
S31520002B00FB817B681B8C9BB223F480539AB27B6833
S31520002B101A847B681B8C7B817B689B88FB817B6806
S31520002B209B8BBB81BB8923F4E043BB81BB8923F408
S31520002B304073BB813B681B881B029AB2BB89134337
S31520002B40BB817B8923F400537B813B689B891B03D4
S31520002B509AB27B8913437B813B685B881B039AB2BD
S31520002B607B8913437B817B68124A934203D07B681F
S31520002B70114A93420AD1FB8923F48043FB813B68A7
S31520002B801B8A9B019AB2FB891343FB817B68FA89D6
S31520002B909A807B68BA899A833B689A687B681A64AC
S31520002BA07B687A891A8400BF1437BD465DF8047B9A
S31520002BB0704700BF000001400004014080B483B08C
S31520002BC000AF78607B6800221A807B6800225A80DA
S31520002BD07B6800229A807B6800229A607B680022AC
S31520002BE09A817B680022DA817B6800221A827B68C0
S31520002BF000225A8200BF0C37BD465DF8047B704721
S31520002C0080B485B000AF78600B467B8013463B804E
S31520002C100023FB6000237B817B68FB60FB68183305
S31520002C20FB607B88012202FA03F37B817B681B8C85
S31520002C309AB27B89DB439BB213409AB27B681A8493
S31520002C407B88002B02D07B88082B14D17B885B08DD
S31520002C509BB21A46FB681344FB60FB681968FA6846
S31520002C604FF68F730B401360FB6819683A88FB6830
S31520002C700A431A6019E07B88043B9BB25B089BB22F
S31520002C801A46FB681344FB60FB681968FA6848F625
S31520002C90FF730B401360FB681A683B881B029BB2CC
S31520002CA01946FB680A431A6000BF00BF1437BD46A9
S31520002CB05DF8047B704780B483B000AF78603960DC
S31520002CC07B683A685A6300BF0C37BD465DF8047BC3
S31520002CD0704780B483B000AF786039607B683A680B
S31520002CE09A6300BF0C37BD465DF8047B704780B4FD
S31520002CF083B000AF786039607B683A68DA6300BFDA
S31520002D000C37BD465DF8047B704780B483B000AFB6
S31520002D10786039607B683A681A6400BF0C37BD4614
S31520002D205DF8047B704780B485B000AF78600B46B1
S31520002D307B800023FB817B681B8BFB81FB8923F037
S31520002D407003FB81FA897B881343FB817B68FA89B0
S31520002D501A8300BF1437BD465DF8047B704780B4E4
S31520002D6085B000AF78600B467B800023FB817B68B3
S31520002D701B8BFB81FB8923F4E043FB817B881B02B1
S31520002D809AB2FB891343FB817B68FA891A8300BFB9
S31520002D901437BD465DF8047B704780B485B000AF1C
S31520002DA078600B467B800023FB817B689B8BFB81B5
S31520002DB0FB8923F07003FB81FA897B881343FB810F
S31520002DC07B68FA899A8300BF1437BD465DF8047B79
S31520002DD0704780B485B000AF78600B467B800023B7
S31520002DE0FB817B689B8BFB81FB8923F4E043FB8182
S31520002DF07B881B029AB2FB891343FB817B68FA8985
S31520002E009A8300BF1437BD465DF8047B704780B4B3
S31520002E1085B000AF78600B467B800023FB817B6802
S31520002E201B8BFB81FB8923F00803FB81FA897B88B6
S31520002E301343FB817B68FA891A8300BF1437BD468A
S31520002E405DF8047B704780B485B000AF78600B4690
S31520002E507B800023FB817B681B8BFB81FB8923F412
S31520002E600063FB817B881B029AB2FB891343FB819B
S31520002E707B68FA891A8300BF1437BD465DF8047B48
S31520002E80704780B485B000AF78600B467B80002306
S31520002E90FB817B689B8BFB81FB8923F00803FB81ED
S31520002EA0FA897B881343FB817B68FA899A8300BF62
S31520002EB01437BD465DF8047B704780B485B000AFFB
S31520002EC078600B467B800023FB817B689B8BFB8194
S31520002ED0FB8923F40063FB817B881B029AB2FB8962
S31520002EE01343FB817B68FA899A8300BF1437BD465A
S31520002EF05DF8047B704780B485B000AF78600B46E0
S31520002F007B800023FB817B681B8BFB81FB8923F065
S31520002F100403FB81FA897B881343FB817B68FA894A
S31520002F201A8300BF1437BD465DF8047B704780B412
S31520002F3085B000AF78600B467B800023FB817B68E1
S31520002F401B8BFB81FB8923F48063FB817B881B021F
S31520002F509AB2FB891343FB817B68FA891A8300BFE7
S31520002F601437BD465DF8047B704780B485B000AF4A
S31520002F7078600B467B800023FB817B689B8BFB81E3
S31520002F80FB8923F00403FB81FA897B881343FB81A9
S31520002F907B68FA899A8300BF1437BD465DF8047BA7
S31520002FA0704780B485B000AF78600B467B800023E5
S31520002FB0FB817B689B8BFB81FB8923F48063FB81F0
S31520002FC07B881B029AB2FB891343FB817B68FA89B3
S31520002FD09A8300BF1437BD465DF8047B704780B4E2
S31520002FE085B000AF78600B467B800023FB817B6831
S31520002FF01B8BFB81FB8923F08003FB81FA897B886D
S315200030001343FB817B68FA891A8300BF1437BD46B8
S315200030105DF8047B704780B485B000AF78600B46BE
S315200030207B800023FB817B681B8BFB81FB89C3F3A1
S315200030300E03FB817B881B029AB2FB891343FB811B
S315200030407B68FA891A8300BF1437BD465DF8047B76
S31520003050704780B485B000AF78600B467B80002334
S31520003060FB817B689B8BFB81FB8923F08003FB81A3
S31520003070FA897B881343FB817B68FA899A8300BF90
S315200030801437BD465DF8047B704780B485B000AF29
S3152000309078600B467B800023FB817B689B8BFB81C2
S315200030A0FB89C3F30E03FB817B881B029AB2FB8943
S315200030B01343FB817B68FA899A8300BF1437BD4688
S315200030C05DF8047B704780B485B000AF78600B460E
S315200030D07B800023FB817B681B8CFB81FB8923F093
S315200030E00203FB81FA897B881343FB817B68FA897B
S315200030F01A8400BF1437BD465DF8047B704780B440
S3152000310085B000AF78600B467B800023FB817B680F
S315200031101B8CFB81FB8923F00803FB81FA897B88C2
S315200031201343FB817B68FA891A8400BF1437BD4696
S315200031305DF8047B704780B485B000AF78600B469D
S315200031407B800023FB817B681B8CFB81FB8923F022
S315200031502003FB817B881B019AB2FB891343FB81E9
S315200031607B68FA891A8400BF1437BD465DF8047B54
S31520003170704780B485B000AF78600B467B80002313
S31520003180FB817B681B8CFB81FB8923F08003FB8101
S315200031907B881B019AB2FB891343FB817B68FA89E2
S315200031A01A8400BF1437BD465DF8047B704780B48F
S315200031B085B000AF78600B467B800023FB817B685F
S315200031C01B8CFB81FB8923F40073FB817B881B020C
S315200031D09AB2FB891343FB817B68FA891A8400BF64
S315200031E01437BD465DF8047B704780B485B000AFC8
S315200031F078600B467B800023FB817B681B8CFB81E0
S31520003200FB8923F40063FB817B881B029AB2FB892E
S315200032101343FB817B68FA891A8400BF1437BD46A5
S315200032205DF8047B704780B485B000AF78600B46AC
S315200032307B800023FB817B681B8CFB81FB8923F42D
S315200032400053FB817B881B039AB2FB891343FB81C6
S315200032507B68FA891A8400BF1437BD465DF8047B63
S31520003260704780B485B000AF78600B467B801346EC
S315200032703B800023FB817B88012202FA03F3FB813A
S315200032807B681B8C9AB2FB89DB439BB213409AB2B4
S315200032907B681A847B681B8C9AB239887B8801FAF2
S315200032A003F39BB213439AB27B681A8400BF143788
S315200032B0BD465DF8047B704780B485B000AF78606A
S315200032C00B467B8013463B800023FB817B880422B0
S315200032D002FA03F3FB817B681B8C9AB2FB89DB43E2
S315200032E09BB213409AB27B681A847B681B8C9AB275
S315200032F039887B8801FA03F39BB213439AB27B6821
S315200033001A8400BF1437BD465DF8047B704780B52C
S3152000331082B000AF786039603B681B88002B0FD1E4
S315200033203B6859883B689A883B681B89786800F017
S31520003330B7FC3B68DB881946786800F0E1F836E090
S315200033403B681B88042B0FD13B6859883B689A88B9
S315200033503B681B89786800F0E6FC3B68DB881946E9
S31520003360786800F0E9F822E03B681B88082B0FD12B
S315200033703B6859883B689A883B681B89786800F0C7
S315200033801FFD3B68DB881946786800F0F3F80EE0ED
S315200033903B6859883B689A883B681B89786800F0A7
S315200033A057FD3B68DB881946786800F0FFF800BFB8
S315200033B00837BD4680BD80B483B000AF78607B6897
S315200033C000221A807B6800225A807B6801229A801C
S315200033D07B680022DA807B6800221A8100BF0C37C6
S315200033E0BD465DF8047B704780B584B000AF786039
S315200033F039600023FB810123BB813B685B88002B5E
S3152000340002D10223FB8101E00023FB813B689B88DC
S31520003410012B02D10223BB8101E00123BB813B6842
S315200034201B88002B1CD13B6859883B689A883B68CF
S315200034301B89786800F034FC3B68DB88194678687D
S3152000344000F05EF83B681B89BA89F989786800F034
S315200034506AFC3B68DB881946786800F06DF81BE04B
S315200034603B6859883B689A883B681B89786800F0D6
S315200034705AFC3B68DB881946786800F05DF83B68A3
S315200034801B89BA89F989786800F00AFC3B68DB88D1
S315200034901946786800F034F800BF1037BD4680BD65
S315200034A080B483B000AF78607B685B6B18460C37BE
S315200034B0BD465DF8047B704780B483B000AF78606A
S315200034C07B689B6B18460C37BD465DF8047B7047BE
S315200034D080B483B000AF78607B68DB6B18460C370E
S315200034E0BD465DF8047B704780B483B000AF78603A
S315200034F07B681B6C18460C37BD465DF8047B70470D
S3152000350080B483B000AF78600B467B807B681B8BD2
S315200035109BB223F00C039AB27B681A837B681B8BC1
S315200035209AB27B8813439AB27B681A8300BF0C3702
S31520003530BD465DF8047B704780B483B000AF7860E9
S315200035400B467B807B681B8B9BB223F440639AB22D
S315200035507B681A837B681B8B9AB27B881B029BB283
S3152000356013439AB27B681A8300BF0C37BD465DF8B9
S31520003570047B704780B483B000AF78600B467B80B5
S315200035807B689B8B9BB223F00C039AB27B689A8351
S315200035907B689B8B9AB27B8813439AB27B689A830B
S315200035A000BF0C37BD465DF8047B704780B483B0FE
S315200035B000AF78600B467B807B689B8B9BB223F4A5
S315200035C040639AB27B689A837B689B8B9AB27B888E
S315200035D01B029BB213439AB27B689A8300BF0C37B7
S315200035E0BD465DF8047B704780B483B000AF786039
S315200035F039603B681A883B685B8813439AB23B68FC
S315200036009B8813439AB23B68DB8813439AB23B6884
S315200036101B8913439AB23B685B8913439AB23B6872
S315200036209B8913439AB27B68A3F8442000BF0C37CA
S31520003630BD465DF8047B704780B483B000AF7860E8
S315200036407B6800221A807B6800225A807B680022D1
S315200036509A807B680022DA807B6800221A817B6848
S3152000366000225A817B6800229A8100BF0C37BD4612
S315200036705DF8047B704780B483B000AF78600B465A
S31520003680FB70FB78002B0CD07B68B3F844309BB2E0
S315200036906FEA43436FEA53439AB27B68A3F8442008
S315200036A009E07B68B3F844309BB2C3F30E039AB2A9
S315200036B07B68A3F8442000BF0C37BD465DF8047B29
S315200036C0704780B483B000AF78600B46FB70FB7800
S315200036D0002B08D07B689B889BB243F004039AB2E8
S315200036E07B689A8007E07B689B889BB223F0040363
S315200036F09AB27B689A8000BF0C37BD465DF8047B82
S31520003700704780B483B000AF78600B46FB70FB78BF
S31520003710002B08D07B689B889BB243F001039AB2AA
S315200037207B689A8007E07B689B889BB223F0010325
S315200037309AB27B689A8000BF0C37BD465DF8047B41
S31520003740704780B483B000AF78600B467B80134609
S315200037507B707B78002B08D07B689B899AB27B880C
S3152000376013439AB27B689A8109E07B689B899AB257
S315200037707B88DB439BB213409AB27B689A8100BF59
S315200037800C37BD465DF8047B704780B483B000AF2C
S3152000379078600B467B807B687A889A8200BF0C37DC
S315200037A0BD465DF8047B704780B485B000AF786075
S315200037B00B467B800023FB737B681B8A9AB27B882F
S315200037C013409BB2002B02D00123FB7301E00023A0
S315200037D0FB73FB7B18461437BD465DF8047B7047A8
S315200037E080B483B000AF78600B467B807B88DB4358
S315200037F09AB27B681A8200BF0C37BD465DF8047BFF
S31520003800704780B485B000AF78600B467B8000237C
S31520003810FB730023BB8100237B817B681B8A9AB2C2
S315200038207B881340BB817B689B899AB27B88134037
S315200038307B81BB89002B05D07B89002B02D00123FD
S31520003840FB7301E00023FB73FB7B18461437BD4650
S315200038505DF8047B704780B483B000AF78600B4678
S315200038607B807B88DB439AB27B681A8200BF0C3749
S31520003870BD465DF8047B704780B483B000AF7860A6
S315200038800B467B8013463B807A883B8813439AB24B
S315200038907B68A3F8482000BF0C37BD465DF8047B43
S315200038A0704780B483B000AF78600B467B801346A8
S315200038B07B707B78002B08D07B689B899AB27B88AB
S315200038C013439AB27B689A8109E07B689B899AB2F6
S315200038D07B88DB439BB213409AB27B689A8100BFF8
S315200038E00C37BD465DF8047B704780B483B000AFCB
S315200038F078600B46FB70FB78002B08D07B689B8892
S315200039009BB243F008039AB27B689A8007E07B68F3
S315200039109B889BB223F008039AB27B689A8000BFEB
S315200039200C37BD465DF8047B704780B483B000AF8A
S3152000393078607B681B899BB223F007039AB27B6869
S315200039401A8100BF0C37BD465DF8047B704780B5F1
S3152000395082B000AF78600B467B807B8819467868FA
S3152000396000F088F87B681B899BB243F007039AB264
S315200039707B681A8100BF0837BD4680BD80B584B0FC
S3152000398000AFF860084611461A4603467B810B466F
S315200039903B811346FB807B89602B06D1FB883989C6
S315200039A00122F86800F0BFF905E0FB883989012279
S315200039B0F86800F075F97B891946F86800F05AF81E
S315200039C0FB681B899BB243F007039AB2FB681A81F6
S315200039D000BF1037BD4680BD80B586B000AFF86009
S315200039E0084611461A4603467B810B463B81134601
S315200039F0FB800023FB82FB883A897989F86800F0EE
S31520003A00A9F8FB681B89FB82FB8A23F00703FB824C
S31520003A10FB8A43F00703FB82FB8A23F07003FB82B9
S31520003A20FB8A43F07003FB82FB68FA8A1A8100BF87
S31520003A301837BD4680BD80B584B000AFF860084613
S31520003A4011461A4603467B810B463B811346FB8073
S31520003A50FB883A897989F86800F07CF8FB681B892D
S31520003A609BB243F480439AB2FB681A8100BF103799
S31520003A70BD4680BD80B485B000AF78600B467B80A4
S31520003A800023FB817B681B89FB81FB8923F0700364
S31520003A90FB81FA897B881343FB817B68FA891A812B
S31520003AA000BF1437BD465DF8047B704780B483B0F1
S31520003AB000AF78600B467B807B689B889BB223F0A7
S31520003AC070039AB27B689A807B689B889AB27B88BF
S31520003AD013439AB27B689A8000BF0C37BD465DF8C7
S31520003AE0047B704780B483B000AF78600B467B8040
S31520003AF07B681B899BB223F007039AB27B681A81E5
S31520003B007B681B899AB27B8813439AB27B681A8199
S31520003B1000BF0C37BD465DF8047B704780B483B088
S31520003B2000AF78600B467B807B681B899BB223F0B5
S31520003B3080039AB27B681A817B681B899AB27B883C
S31520003B4013439AB27B681A8100BF0C37BD465DF8D5
S31520003B50047B704780B487B000AFF86008461146F2
S31520003B601A4603467B810B463B811346FB80002386
S31520003B70FB82FB681B89FB82FB8ADBB2FB82FB880C
S31520003B801B029AB23B8913439AB27B8913439AB29A
S31520003B90FB8A1343FB82FB68FA8A1A8100BF1C3713
S31520003BA0BD465DF8047B704780B487B000AFF860EF
S31520003BB0084611461A4603467B810B463B8113462F
S31520003BC0FB800023FB820023BB8200237B82FB68D1
S31520003BD01B89FB82FB681B8BBB82FB681B8C7B8251
S31520003BE0FB8A23F00703FB82FA8A7B891343FB8235
S31520003BF0BB8A23F4407323F00303BB82BB8A43F4BE
S31520003C00807343F00103BB827B8A23F022037B82ED
S31520003C10FB881B019AB23B8913439AB27B8A1343D2
S31520003C207B82FB68FA8A1A81FB68BA8A1A83FB6848
S31520003C307A8A1A8400BF1C37BD465DF8047B70471C
S31520003C4080B483B000AF78600B46FB70FB78002B06
S31520003C5008D07B689B889BB243F080039AB27B682E
S31520003C609A8007E07B689B889BB223F080039AB2F8
S31520003C707B689A8000BF0C37BD465DF8047B704791
S31520003C8080B483B000AF78600B467B807B687A88EF
S31520003C90A3F8502000BF0C37BD465DF8047B704763
S31520003CA080B487B000AFF860084611461A4603462E
S31520003CB07B810B463B811346FB800023FB8200233E
S31520003CC0BB82FB681B8C9BB223F001039AB2FB6874
S31520003CD01A84FB681B8BFB82FB681B8CBB82FB8ACE
S31520003CE023F0F303FB82FB881B019AB23B89134323
S31520003CF09AB2FB8A1343FB82BB8A23F00A03BB8258
S31520003D007A89BB8A13439BB243F00103BB82FB68CB
S31520003D10FA8A1A83FB68BA8A1A8400BF1C37BD4602
S31520003D205DF8047B704780B487B000AFF860084622
S31520003D3011461A4603467B810B463B811346FB8080
S31520003D400023FB820023BB8200237B82FB681B8C23
S31520003D509BB223F010039AB2FB681A84FB681B8B74
S31520003D60FB82FB681B8CBB827B891B017B82FB8AC7
S31520003D7023F440731B051B0DFB82FB881B039AB2A1
S31520003D80FB8A1343FB823B891B029AB2FB8A1343AD
S31520003D90FB82BB8A23F0A003BB827A8ABB8A1343A9
S31520003DA09BB243F01003BB82FB68FA8A1A83FB6836
S31520003DB0BA8A1A8400BF1C37BD465DF8047B70475B
S31520003DC080B487B000AFF860084611461A4603460D
S31520003DD07B810B463B811346FB800023FB8200231D
S31520003DE0BB8200237B82FB681B8C9BB223F48073EF
S31520003DF09AB2FB681A84FB689B8BFB82FB681B8C40
S31520003E00BB827B891B027B82FB8A23F0F303FB8226
S31520003E10FB881B019AB23B8913439AB2FB8A134350
S31520003E20FB82BB8A23F42063BB827A8ABB8A134334
S31520003E309BB243F48073BB82FB68FA8A9A83FB6841
S31520003E40BA8A1A8400BF1C37BD465DF8047B7047CA
S31520003E5080B487B000AFF860084611461A4603467C
S31520003E607B810B463B811346FB800023FB8200238C
S31520003E70BB8200237B82FB681B8C9BB223F480537E
S31520003E809AB2FB681A84FB689B8BFB82FB681B8CAF
S31520003E90BB827B891B037B82FB8A23F440731B0531
S31520003EA01B0DFB823B891B029AB2FB8A1343FB82C2
S31520003EB0FB881B039AB2FB8A1343FB82BB8A23F43B
S31520003EC000535B045B0CBB827A8ABB8A13439BB28A
S31520003ED043F48053BB82FB68FA8A9A83FB68BA8ACA
S31520003EE01A8400BF1C37BD465DF8047B704700BFAF
S31520003EF080B483B000AF0346FB71FB7903F01F0348
S31520003F00012202FA03F1064A97F907305B0942F8C3
S31520003F10231000BF0C37BD465DF8047B704700BFF9
S31520003F2000E100E080B483B000AF03463960FB7146
S31520003F3097F90730002B0BDA3B68DAB20C49FB798C
S31520003F4003F00F03043B1201D2B20B441A7609E0A8
S31520003F503B68DAB2074997F907301201D2B20B440F
S31520003F6083F8002300BF0C37BD465DF8047B7047FD
S31520003F7000ED00E000E100E080B586B000AF78609B
S31520003F8039607B6800229A617B689A697B685A61EE
S31520003F907B685A697B68DA612248FCF7FDF807F1ED
S31520003FA00C03184602F010FA0023BB740023FB749E
S31520003FB000233B7500237B750023BB750023FB750F
S31520003FC00023BB730023FB7302233B7403237B7400
S31520003FD00723BB8107F10C031946134802F060F84A
S31520003FE00346002B02D11148FCF7D6F807F10C0343
S31520003FF019460F4802F054F80346002B02D10D480B
S31520004000FCF7CAF802211420FFF78CFF1420FFF7D3
S315200040106FFF01220221044802F014FE00BF183768
S31520004020BD4680BD74800020006400409C80002036
S3152000403000680040B4800020B0B58AB002AF786036
S3152000404039607B689B685A49184602F019FE034678
S31520004050012B02D05748FCF79FF87B68DB69072BBA
S3152000406000F39F807B689B6807F1080200211846B1
S3152000407002F0EEFBBB681B09DBB27A68526903F0DB
S315200040807F03D8B2796813469B0013445B00134420
S315200040900B44203302461A70BB68DBB27A68526939
S315200040A003F00F03D8B2796813469B0013445B00D4
S315200040B013440B44213302461A70BB7C7A6852693A
S315200040C003F00F03D8B2796813469B0013445B00B4
S315200040D013440B44223302461A700023FB7716E062
S315200040E0FB7F7A685269F97F07F12000034413F8B1
S315200040F00D4C786813469B0013445B00134403441D
S315200041000B44233322461A70FB7F0133FB777B68EF
S315200041105A69796813469B0013445B0013440B4489
S3152000412022331B78FA7F9A42DAD37B68DB68002B2E
S3152000413025D07B68DC687B681D697B685A6979684D
S3152000414013469B0013445B0013440B4420331B7817
S3152000415019017B685A69786813469B0013445B00F3
S315200041601344034421331B780B4400932B462246E9
S3152000417000210020FCF74CFC0F4B01221A607B68C3
S315200041805B6901335A4203F0070302F0070258BF66
S3152000419053427A6853617B68DB695A1C7B68DA6113
S315200041A002E00648FBF7F8FF00BF2037BD46B0BD4A
S315200041B003000012CC800020A48B0020F480002075
S315200041C090B484B000AF786039607B68DB69002BDF
S315200041D055DD7B689A69796813469B0013445B001A
S315200041E013440B4420331A783B681A707B689A690B
S315200041F0796813469B0013445B0013440B44213318
S315200042001A783B685A707B689A69796813469B00CE
S3152000421013445B0013440B4422331A783B689A708C
S315200042200023FB7313E07B689A69F87BF97B7C6833
S3152000423013469B0013445B00134423440344233357
S315200042401A783B680B44DA70FB7B0133FB733B68BF
S315200042509B78FA7B9A42E6D37B689B6901335A4264
S3152000426003F0070302F0070258BF53427A689361AE
S315200042707B68DB695A1E7B68DA61002300E0012334
S3152000428018461037BD4690BC704780B58AB000AF3F
S31520004290786039607B689B683B620023FB77234B01
S315200042A03B623B681B781B013A6852781344BB601B
S315200042B000237B7400233B743B689B78082B02D930
S315200042C03B6808229A703B689B78BB74002387F86A
S315200042D0273010E097F8272097F8273039680A44C6
S315200042E0D27807F128010B4403F8152C97F82730CC
S315200042F0013387F827303B689B7897F827209A4226
S31520004300E8D307F108031946386A02F021F9034673
S31520004310FB77FB7F042B04D10548FBF73DFF0123E8
S3152000432000E0002318462837BD4680BD00680040BF
S315200043301481002080B586B000AF7860396007F11F
S315200043400C031A460D490E48FCF700FC0D4B1A4685
S315200043500D490E48FCF7FAFB07F10C0303331A4606
S3152000436009490A48FCF7F2FB094B1A460649074851
S31520004370FCF7ECFB00BF1837BD4680BDC1410020CD
S31520004380B88A00208C820020BF1400209886002046
S31520004390A082002080B483B000AF786039603B688B
S315200043A0012B09D17B68DB68132B05DC7B68DB6876
S315200043B05A1C7B68DA600BE03B68002B08D17B68CF
S315200043C0DB68012B04DD7B68DB685A1E7B68DA60BC
S315200043D000BF0C37BD465DF8047B704780B59CB0A6
S315200043E000AF786039603B68012B15D17B689B68EC
S315200043F003F5FA727B689A607B689B6807F10C006C
S31520004400164A642103F034F807F10C031A461449BE
S315200044101448FCF79BFB1CE03B68002B19D17B68FA
S315200044209B68B3F57A7F14DD7B689B68A3F5FA72E7
S315200044307B689A607B689B6807F10C00074A6421B9
S3152000444003F016F807F10C031A4605490548FCF750
S315200044507DFB00BF7037BD4680BD00BFA482002013
S31520004460BF1400209886002080B582B000AF786007
S3152000447039607B68DB68002B09D17B680122DA6012
S31520004480094B1A4609490A48FCF760FB08E07B6895
S315200044900022DA60074B1A4604490548FCF756FB0A
S315200044A000BF0837BD4680BDBC820020BF14002057
S315200044B098860020D482002080B483B000AF786034
S315200044C039607B685B69002B03D17B6801225A61C6
S315200044D002E07B6800225A6100BF0C37BD465DF8BA
S315200044E0047B704780B483B000AF78607B68DB685C
S315200044F0002B04D17B681A697B68DA6006E07B684A
S31520004500DA687B681A617B680022DA6000BF0C37A4
S31520004510BD465DF8047B704780B586B002AF7860F3
S3152000452039600023FB6002E0FB680133FB607B6897
S315200045309B68FA689A42F7DB7B68DB68002B08D019
S3152000454000230093094B7A6882218220FCF760FAC7
S3152000455007E000230093054B7A6800218220FCF7B0
S3152000456057FA00BF1037BD4680BD00BF1945002051
S3152000457080B483B000AF786039607B6801229A618D
S3152000458000BF0C37BD465DF8047B704780B584B00C
S3152000459002AF786039607B689B68002B0CBF0123D3
S315200045A00023DBB21A467B689A607B689B69002BE6
S315200045B003D0224B00221A700CE07B689B68002BEC
S315200045C005D07B68DA681D4BD2B21A7002E01B4B0D
S315200045D000221A707B68DB6A002B2AD07B685B6915
S315200045E0002B16D07B689B6A154A82FB0312921019
S315200045F0DB17D01A7B689B6A114A82FB0312921042
S31520004600DB17D11A002300930E4B7A68FCF700FAC9
S3152000461010E07B689B6A0A4A82FB03129210DB1722
S31520004620D01A00230093074B7A680021FCF7F0F993
S3152000463000E000BF0837BD4680BD00BF1C740040A7
S31520004640676666668D45002080B588B002AF7860C3
S3152000465039607B68DB6A002B7FD07B6800229A61F9
S315200046607B685B6A0A337B617B68DB693D4A52F86B
S3152000467023207B6913443C4A9B001344D3ED007AE4
S315200046809FED3A7A67EE877AFDEEE77A17EE902A63
S315200046907B689A627B68DB69354A52F823303B6136
S315200046A07B68DB6901335A4203F01F0302F01F02C5
S315200046B058BF53427A68D3617B681B6A07EE903AEB
S315200046C0B8EEE77ADFED2B6AC6EE877AC7ED037A76
S315200046D03B694FF4FA7202FB03F307EE903AB8EE09
S315200046E0E77AD7ED037A67EE277A9FED237A77EE7E
S315200046F0C77A9FED227A67EE877AFDEEE77A002366
S3152000470000931F4B7A6841F2883117EE900AFCF726
S315200047107FF93B694FF4FA7202FB03F307EE903AF6
S31520004720B8EEE77AD7ED037A67EE277A9FED137A0C
S3152000473067EE877AFDEEE77A7B681B6A3A6902FBA9
S3152000474003F3642202FB03F1002300930D4B7A68E6
S3152000475017EE900AFCF75CF900E000BF1837BD465B
S3152000476080BD00BF28810020A88100200024744934
S315200047700C82002000007042000048420000C8421F
S31520004780714500204946002080B584B002AF78608C
S3152000479039607B68DB6A002B0CBF01230023DBB268
S315200047A01A467B68DA627B68DB6A002B16D0104BD0
S315200047B01A4610491048FCF7C9F9002300930F4BFD
S315200047C00F4A00210020FCF723F9002300930D4B0C
S315200047D07A6800210020FCF71BF905E00A4B1A46EF
S315200047E004490548FCF7B2F900BF0837BD4680BD2D
S315200047F0EC820020BF140020988600204946002025
S31520004800588600208D450020F882002080B582B091
S3152000481000AF786039603B6813F1050F06DB3B6813
S31520004820052B03DC7B683A685A6206E0054B1A467C
S3152000483005490648FCF78AF900BF00BF0837BD4680
S3152000484080BD00BF04830020BF140020988600206E
S3152000485080B582B000AF786039603B68002B03DDFD
S315200048607B683A681A6205E0044B1A4604490548F3
S31520004870FCF76CF900BF0837BD4680BD14830020C5
S31520004880BF1400209886002080B588B002AF7860DB
S315200048903960844B1A4684498448FCF757F93A68AC
S315200048A083498248FCF752F9824B1A467E497F4853
S315200048B0FCF74CF93B686F2B1DD17B68D3F8803011
S315200048C0002B0CBF01230023DBB21A467B68C3F8FA
S315200048D080207B68D3F88030002B06D0764B1A4692
S315200048E071497248FCF732F905E0744B1A466E4955
S315200048F06E48FCF72BF97B68D3F88030002B10D05C
S3152000490001233B7201237B720623BB723B68DBB219
S31520004910FB7207F108031A4669496A48FCF716F93B
S31520004920BCE03B68613B162B00F2A08001A252F846
S3152000493023F000BFF7490020BB4900206D4A002024
S315200049403F4A00206D4A00206D4A00206D4A002013
S315200049506D4A00206D4A00206D4A002091490020B2
S315200049606D4A0020094A00206D4A00206D4A002029
S31520004970614A0020E54900206D4A00202D4A00208A
S315200049806D4A00206D4A00206D4A00201B4A0020F7
S315200049907B689B687A68134400221A737B680C3301
S315200049A0184602F02DFD78617B6800229A607A69AC
S315200049B045494648FCF7CAF858E07B689B687A6800
S315200049C0134400221A737B680C33184602F018FD34
S315200049D078617B6800229A607A693D493B48FCF7FA
S315200049E0B5F843E0012300933A4B384A00210020D2
S315200049F0FCF70EF83AE000230093364B334A0021A9
S31520004A000020FCF705F831E000230093324B2F4AB3
S31520004A1000210020FBF7FCFF28E0012300932F4B09
S31520004A202F4A00210020FBF7F3FF1FE0002300930D
S31520004A302A4B2B4A00210020FBF7EAFF16E0002331
S31520004A400093284B264A00210020FBF7E1FF002394
S31520004A500093254B1D4A00210020FBF7D9FF05E0D6
S31520004A60002222491948FCF771F800BF3B682F2B1A
S31520004A7002DD3B68392B06DD7B689B68002B0DD158
S31520004A803B682D2B0AD17B689B68591C7A689160FC
S31520004A903A68D1B27A6813440A461A7300BF1837A7
S31520004AA0BD4680BD24830020BF14002098860020A8
S31520004AB0151500202C830020308300204083002001
S31520004AC08B420020B88A00200D48002058860020FE
S31520004AD05148002095430020E5440020DD43002076
S31520004AE08886002069440020B94400208947002098
S31520004AF080B586B000AF7860396000221549164827
S31520004B00FCF724F8002215491548FCF71FF8154B29
S31520004B101A4615491248FCF719F801233B7301235D
S31520004B207B730623BB734823FB7365233B746C237B
S31520004B307B746C23BB746F23FB7400233B7507F1D6
S31520004B400C031A4609490448FCF700F800BF183739
S31520004B50BD4680BD793F0020B88A00201914002068
S31520004B609886002050830020BF1400208B4200200E
S31520004B7080B500AF002208490848FCF7DBF901227E
S31520004B8007490848FCF7D6F9002207490748FCF7E9
S31520004B9037FA0023184680BD4B1500209886002042
S31520004BA039400020B88A0020F14A0020D485002010
S31520004BB080B400AF094B00221A60084B00225A60CD
S31520004BC0064B00229A60054B0022DA60034B044A0A
S31520004BD05A6100BFBD465DF8047B7047003C01402A
S31520004BE0FFFF7F0080B485B000AF78600023FB60B4
S31520004BF0344BFB607B689B79002B4FD0314B1A6876
S31520004C007B681B68DB432F4913400B602D4B5A688A
S31520004C107B681B68DB432B4913404B607B681B7901
S31520004C201A46FB681344FB60FB6819687B681A68A0
S31520004C30FB680A431A60234B9A687B681B68DB4330
S31520004C40204913408B601F4BDA687B681B68DB4367
S31520004C501C491340CB607B685B79102B0ED1194B16
S31520004C609A687B681B68174913438B60154BDA6873
S31520004C707B681B6813491343CB601DE0114BFB6017
S31520004C807B685B791A46FB681344FB60FB681968EE
S31520004C907B681A68FB680A431A600DE07B681B79FB
S31520004CA01A46FB681344FB60FB6819687B681B681F
S31520004CB0DA43FB680A401A6000BF1437BD465DF828
S31520004CC0047B7047003C014080B483B000AF78601D
S31520004CD07B6800221A607B6800221A717B680C228E
S31520004CE05A717B6800229A7100BF0C37BD465DF869
S31520004CF0047B704780B483B000AF7860054B1A6997
S31520004D0004497B6813430B6100BF0C37BD465DF831
S31520004D10047B7047003C014080B485B000AF7860CA
S31520004D200023FB73084B5A697B681340002B02D083
S31520004D300123FB7301E00023FB73FB7B184614372A
S31520004D40BD465DF8047B7047003C014080B483B0CB
S31520004D5000AF7860044A7B68536100BF0C37BD46BC
S31520004D605DF8047B704700BF003C014080B485B0ED
S31520004D7000AF78600023FB73084B5A697B681340A9
S31520004D80002B02D00123FB7301E00023FB73FB7B86
S31520004D9018461437BD465DF8047B7047003C014039
S31520004DA080B483B000AF7860044A7B68536100BF4B
S31520004DB00C37BD465DF8047B704700BF003C0140C0
S31520004DC080B500AF01214FF00050FDF707F9002113
S31520004DD04FF00050FDF702F900BF80BD80B485B0CA
S31520004DE000AF786039600023FB600023BB60144B62
S31520004DF01B68FB6040F6FE727B6802FA03F3DB4316
S31520004E00FA681340FB603B681A683B685B681A4384
S31520004E103B689B681A433B68DB681343BB60BA68F0
S31520004E207B6802FA03F3FA681343FB60044AFB68C3
S31520004E30136000BF1437BD465DF8047B704700BF82
S31520004E400074004080B483B000AF78607B68002295
S31520004E501A607B6800225A607B6800229A607B6811
S31520004E600022DA6000BF0C37BD465DF8047B704730
S31520004E7080B483B000AF78600B46FB70FB78002BC4
S31520004E8009D00D4B1A6801217B6801FA03F30A4900
S31520004E9013430B6009E0084B1A6801217B6801FA6D
S31520004EA003F3DB43044913400B6000BF0C37BD46B8
S31520004EB05DF8047B704700BF0074004080B483B067
S31520004EC000AF78600B46FB70FB78002B0AD00E4BA8
S31520004ED05A687B681B09012101FA03F30A49134327
S31520004EE04B600AE0084B5A687B681B09012101FACE
S31520004EF003F3DB43044913404B6000BF0C37BD4628
S31520004F005DF8047B704700BF0074004080B483B016
S31520004F1000AF0346FB71FB79002B06D0094B5B687B
S31520004F20084A43F00303536005E0064B5B68054AD5
S31520004F3023F00303536000BF0C37BD465DF8047BA6
S31520004F40704700BF0074004080B485B000AFF860A1
S31520004F50B9601346FB71FB79002B09D00C4B1A68FC
S31520004F60B968FB6801FA03F3094913430B6009E0AA
S31520004F70074B1A68B968FB6801FA03F3DB43044957
S31520004F8013400B6000BF1437BD465DF8047B7047A5
S31520004F900074004080B485B000AF78600B467B80FB
S31520004FA00023FB60084BFB60FA687B6813440833D8
S31520004FB0FB60FB681A467B88136000BF1437BD462A
S31520004FC05DF8047B704700BF0074004080B485B054
S31520004FD000AF78600B467B800023FB60084BFB60AC
S31520004FE0FA687B6813441433FB60FB681A467B8897
S31520004FF0136000BF1437BD465DF8047B704700BFC1
S315200050000074004080B485B000AF78600B467B808A
S3152000501013463B800023FB600023BB607B68082B84
S3152000502005D17B881A023B881343FB6004E07B880A
S315200050301A043B881343FB60074BBB607A68BB6846
S3152000504013442033BB60BB68FA681A6000BF14376C
S31520005050BD465DF8047B70470074004080B485B07F
S3152000506000AF78600023FB60084BFB607B689A08E2
S31520005070FB6813442C33FB60FB681B689BB2184605
S315200050801437BD465DF8047B704700BF00740040AE
S3152000509080B483B000AF78600B46FB70FB78002BA2
S315200050A00AD00E4B1A684FF480517B6801FA03F33D
S315200050B00A4913430B600AE0084B1A684FF48051E3
S315200050C07B6801FA03F3DB43044913400B6000BFFE
S315200050D00C37BD465DF8047B704700BF0074004066
S315200050E080B485B000AFF860B9601346FB71FB79D8
S315200050F0002B09D00C4B1A68B968FB6801FA03F338
S31520005100094913430B6009E0074B1A68B968FB6825
S3152000511001FA03F3DB43044913400B6000BF143745
S31520005120BD465DF8047B70470074004080B485B0AE
S3152000513000AF786039600023FB730A4B5A6B3968DD
S315200051407B6801FA03F31340002B02D00123FB7383
S3152000515001E00023FB73FB7B18461437BD465DF840
S31520005160047B70470074004080B483B000AF786041
S31520005170396006493A687B6802FA03F34B6300BF3D
S315200051800C37BD465DF8047B704700BF00740040B5
S3152000519080B485B000AF786039600023FB730023AC
S315200051A0BB60104B1A6839687B6801FA03F3134019
S315200051B0BB600C4B5A6B39687B6801FA03F31340CA
S315200051C0002B05D0BB68002B02D00123FB7301E026
S315200051D00023FB73FB7B18461437BD465DF8047B22
S315200051E0704700BF0074004080B483B000AF786081
S315200051F0396006493A687B6802FA03F34B6300BFBD
S315200052000C37BD465DF8047B704700BF0074004034
S3152000521080B582B000AF78607B683B4A934208D164
S3152000522001211020FCF7FAFE00211020FCF7F6FEE3
S3152000523065E07B68354A93420AD101214FF400305C
S31520005240FCF7CCFE00214FF40030FCF7C7FE56E0F9
S315200052507B682F4A93420AD101214FF48020FCF724
S31520005260BDFE00214FF48020FCF7B8FE47E07B68A6
S31520005270284A93420AD101214FF40020FCF7AEFEC2
S3152000528000214FF40020FCF7A9FE38E07B68224A73
S3152000529093420AD101214FF48010FCF79FFE002192
S315200052A04FF48010FCF79AFE29E07B681B4A934254
S315200052B008D101212020FCF7B1FE00212020FCF797
S315200052C0ADFE1CE07B68164A93420AD101214FF0BD
S315200052D08040FCF783FE00214FF08040FCF77EFEE5
S315200052E00DE07B680F4A934209D101214FF000401F
S315200052F0FCF774FE00214FF00040FCF76FFE00BF64
S315200053000837BD4680BD00BF001001400044004064
S3152000531000480040004C004000500040001401406E
S3152000532000780040007C004080B58AB000AF7860ED
S31520005330396000237B6200233B620023FB6100234C
S31520005340BB617B681B8A9BB27B627B6A23F44053DA
S315200053507B623B68DB881A467B6A13437B627B6AE7
S315200053609AB27B681A827B689B899BB27B627B6A36
S3152000537023F4B05323F00C037B623B689A883B6886
S315200053801B8913439AB23B685B8913439BB21A4627
S315200053907B6A13437B627B6A9AB27B689A817B68BD
S315200053A09B8A9BB27B627B6A23F440737B623B6859
S315200053B09B891A467B6A13437B627B6A9AB27B6817
S315200053C09A8207F108031846FCF752FB7B68304A9D
S315200053D0934203D07B682F4A934202D17B693B627A
S315200053E001E03B693B627B689B899BB21BB2002B29
S315200053F00CDA3A6A13469B0013449A001A443B6817
S315200054001B685B00B2FBF3F3FB610BE03A6A1346C1
S315200054109B0013449A001A443B681B689B00B2FB0E
S31520005420F3F3FB61FB691C4AA2FB03235B091B0107
S315200054307B627B6A1B09642202FB03F3FA69D31A97
S31520005440BB617B689B899BB21BB2002B0CDABB69C4
S31520005450DB003233104AA2FB03235B0903F0070368
S315200054607A6A13437B620BE0BB691B0132330A4A1B
S31520005470A2FB03235B0903F00F037A6A13437B62C3
S315200054807B6A9AB27B681A8100BF2837BD4680BDE9
S3152000549000100140001401401F85EB5180B483B0F9
S315200054A000AF78607B684FF416521A607B68002242
S315200054B09A807B680022DA807B6800221A817B68CA
S315200054C00C225A817B6800229A8100BF0C37BD4688
S315200054D05DF8047B704780B485B000AF7860396092
S315200054E00023FB607B681B8A9BB2FB60FB6823F46E
S315200054F07063FB603B681A883B685B8813439AB2EB
